{
  "transactions": [
    {
      "hash": "0xb6729c0b8b583999e800ad968606de63d687fa0b74cd812ceb65e4972f9b0032",
      "transactionType": "CALL",
      "contractName": null,
      "contractAddress": "0x0c3126619a5d3072eb889ad0ec8b612db0e3e5ed",
      "function": "changeController(uint8,bytes32,bytes32,address)",
      "arguments": [
        "28",
        "0x1932cb842d3e27f54f79f7be0289437381ba2410fdefbae36850bee9c41e3b91",
        "0x87b7639b5f24e93bf106794133370f950d5e9b00f5b5c8cbd866a487529b814f",
        "0x0000000000000000000000000000000000000000"
      ],
      "transaction": {
        "from": "0xf93ee28f72069752a808bbf56f9db51952475ae0",
        "to": "0x0c3126619a5d3072eb889ad0ec8b612db0e3e5ed",
        "gas": "0x1230a",
        "value": "0x0",
        "input": "0x3e8cd570000000000000000000000000000000000000000000000000000000000000001c1932cb842d3e27f54f79f7be0289437381ba2410fdefbae36850bee9c41e3b9187b7639b5f24e93bf106794133370f950d5e9b00f5b5c8cbd866a487529b814f0000000000000000000000000000000000000000000000000000000000000000",
        "nonce": "0x13b",
        "chainId": "0xaa36a7"
      },
      "additionalContracts": [],
      "isFixedGasLimit": false
    }
  ],
  "receipts": [
    {
      "status": "0x1",
      "cumulativeGasUsed": "0x2ec58eb",
      "logs": [
        {
          "address": "0x0c3126619a5d3072eb889ad0ec8b612db0e3e5ed",
          "topics": [
            "0x8cf1cbc25758c16f47e27029c8104e5be712c49e9baaf12c1fd697a91b431680",
            "0x0000000000000000000000000000000000000000000000000000000000000000"
          ],
          "data": "0x00000000000000000000000000000000000000000000000000000000695bb66c",
          "blockHash": "0x68f873fd753c7ea4faf7196563d01620322e81658efc00473e66842b2dda198e",
          "blockNumber": "0x9857f3",
          "blockTimestamp": "0x695bb66c",
          "transactionHash": "0xb6729c0b8b583999e800ad968606de63d687fa0b74cd812ceb65e4972f9b0032",
          "transactionIndex": "0x19",
          "logIndex": "0x26d",
          "removed": false
        }
      ],
      "logsBloom": "0x00000000000000000000000000000001000000000000010000000000000000000000000000000000000000000000000000000000000000000000000000000000000000000000000000000000000000000000000000220000000000000000000000000000020000001000000000000800000000000000000000000000000000000000000000000000000000000000000000000000000000000000000000000000000000000000000000000000000000000000000000000000000000000000000000000000000000000000000000000000000000000000000000000000000020000000000000000800000000000000000000000000000000000000000000000000",
      "type": "0x2",
      "transactionHash": "0xb6729c0b8b583999e800ad968606de63d687fa0b74cd812ceb65e4972f9b0032",
      "transactionIndex": "0x19",
      "blockHash": "0x68f873fd753c7ea4faf7196563d01620322e81658efc00473e66842b2dda198e",
      "blockNumber": "0x9857f3",
      "gasUsed": "0xc701",
      "effectiveGasPrice": "0x9896f9",
      "from": "0xf93ee28f72069752a808bbf56f9db51952475ae0",
      "to": "0x0c3126619a5d3072eb889ad0ec8b612db0e3e5ed",
      "contractAddress": null
    }
  ],
  "libraries": [],
  "pending": [],
  "returns": {},
  "timestamp": 1767618156918,
  "chain": 11155111,
  "commit": "c3203b4"
}