{
  "transactions": [
    {
      "hash": "0x3effd010e723480da5f6462b3c32f21fbe5d7fe280f1846a80446e37fa5a784d",
      "transactionType": "CALL",
      "contractName": null,
      "contractAddress": "0xcd8af4a0f29cf7966c051542905f66f5dca9052f",
      "function": "approve(address,uint256)",
      "arguments": [
        "0xC59d60d9cdc3D29090892C355CC43ff7B12f254c",
        "2000000000000000"
      ],
      "transaction": {
        "from": "0x679bb4ff2273f0b4482d7fa07eb701ddfb6ded42",
        "to": "0xcd8af4a0f29cf7966c051542905f66f5dca9052f",
        "gas": "0x10851",
        "value": "0x0",
        "input": "0x095ea7b3000000000000000000000000c59d60d9cdc3d29090892c355cc43ff7b12f254c00000000000000000000000000000000000000000000000000071afd498d0000",
        "nonce": "0x1",
        "chainId": "0xaa36a7"
      },
      "additionalContracts": [],
      "isFixedGasLimit": false
    },
    {
      "hash": "0x08e6248cc4b0fa1e5cebd2480558d4f786699c57c9a03ec28ecf5343c527767e",
      "transactionType": "CALL",
      "contractName": null,
      "contractAddress": "0xc59d60d9cdc3d29090892c355cc43ff7b12f254c",
      "function": "StakeETH()",
      "arguments": [],
      "transaction": {
        "from": "0x679bb4ff2273f0b4482d7fa07eb701ddfb6ded42",
        "to": "0xc59d60d9cdc3d29090892c355cc43ff7b12f254c",
        "gas": "0x1da2f",
        "value": "0x5543df729c000",
        "input": "0x78e7ed2f",
        "nonce": "0x2",
        "chainId": "0xaa36a7"
      },
      "additionalContracts": [],
      "isFixedGasLimit": false
    },
    {
      "hash": "0x7d1d6afcea52bebb3e740b1f62f172372e2ed77b77ac15e0a83776e5b87a2b87",
      "transactionType": "CALL",
      "contractName": null,
      "contractAddress": "0xc59d60d9cdc3d29090892c355cc43ff7b12f254c",
      "function": "StakeWETH(uint256)",
      "arguments": [
        "1500000000000000"
      ],
      "transaction": {
        "from": "0x679bb4ff2273f0b4482d7fa07eb701ddfb6ded42",
        "to": "0xc59d60d9cdc3d29090892c355cc43ff7b12f254c",
        "gas": "0x1269b",
        "value": "0x0",
        "input": "0x6e35c7400000000000000000000000000000000000000000000000000005543df729c000",
        "nonce": "0x3",
        "chainId": "0xaa36a7"
      },
      "additionalContracts": [],
      "isFixedGasLimit": false
    },
    {
      "hash": "0xabb2b3353d40a527e4c2da611ab63d2d6b9294884935e1164f2745bd03b4ced3",
      "transactionType": "CALL",
      "contractName": null,
      "contractAddress": "0xc59d60d9cdc3d29090892c355cc43ff7b12f254c",
      "function": "StakeETH()",
      "arguments": [],
      "transaction": {
        "from": "0xf93ee28f72069752a808bbf56f9db51952475ae0",
        "to": "0xc59d60d9cdc3d29090892c355cc43ff7b12f254c",
        "gas": "0x19464",
        "value": "0x5543df729c000",
        "input": "0x78e7ed2f",
        "nonce": "0x12f",
        "chainId": "0xaa36a7"
      },
      "additionalContracts": [],
      "isFixedGasLimit": false
    },
    {
      "hash": "0x1685e71d9b6fadb2958a10f26e9829474bfa1f574633eda59b2934091b62ec12",
      "transactionType": "CALL",
      "contractName": null,
      "contractAddress": "0xc59d60d9cdc3d29090892c355cc43ff7b12f254c",
      "function": "Unstake(uint256)",
      "arguments": [
        "1500000000000000"
      ],
      "transaction": {
        "from": "0xf93ee28f72069752a808bbf56f9db51952475ae0",
        "to": "0xc59d60d9cdc3d29090892c355cc43ff7b12f254c",
        "gas": "0xb861",
        "value": "0x0",
        "input": "0xf1f1db1e0000000000000000000000000000000000000000000000000005543df729c000",
        "nonce": "0x130",
        "chainId": "0xaa36a7"
      },
      "additionalContracts": [],
      "isFixedGasLimit": false
    }
  ],
  "receipts": [
    {
      "status": "0x1",
      "cumulativeGasUsed": "0x6c3eb8",
      "logs": [
        {
          "address": "0xcd8af4a0f29cf7966c051542905f66f5dca9052f",
          "topics": [
            "0x8c5be1e5ebec7d5bd14f71427d1e84f3dd0314c0f7b2291e5b200ac8c7c3b925",
            "0x000000000000000000000000679bb4ff2273f0b4482d7fa07eb701ddfb6ded42",
            "0x000000000000000000000000c59d60d9cdc3d29090892c355cc43ff7b12f254c"
          ],
          "data": "0x00000000000000000000000000000000000000000000000000071afd498d0000",
          "blockHash": "0xf7a6b9746e4bec53b93fb294ab54989a721970f3517782a0fc88d6aecf3c2f50",
          "blockNumber": "0x97ec82",
          "blockTimestamp": "0x6955f830",
          "transactionHash": "0x3effd010e723480da5f6462b3c32f21fbe5d7fe280f1846a80446e37fa5a784d",
          "transactionIndex": "0x2b",
          "logIndex": "0x3e",
          "removed": false
        }
      ],
      "logsBloom": "0x00000000000000000000000000000000000000000000000000000200000000000000000000000000000000000002000000000000000000000000000000200000000000000000000000000000000000000000000000000000000000000000000001000000000002000000000000000000000000000000000000000000000040000000000000000000000000000000000000000000000000000000000000000000020000000000000000000000000000000000000000000000000000000000000000000000000000000000000400000000000000000000000000000000000000000210000000000020000004000000000000000000000000000000000000000000",
      "type": "0x2",
      "transactionHash": "0x3effd010e723480da5f6462b3c32f21fbe5d7fe280f1846a80446e37fa5a784d",
      "transactionIndex": "0x2b",
      "blockHash": "0xf7a6b9746e4bec53b93fb294ab54989a721970f3517782a0fc88d6aecf3c2f50",
      "blockNumber": "0x97ec82",
      "gasUsed": "0xb4bb",
      "effectiveGasPrice": "0x118c2e",
      "from": "0x679bb4ff2273f0b4482d7fa07eb701ddfb6ded42",
      "to": "0xcd8af4a0f29cf7966c051542905f66f5dca9052f",
      "contractAddress": null
    },
    {
      "status": "0x1",
      "cumulativeGasUsed": "0x2ab834",
      "logs": [],
      "logsBloom": "0x00000000000000000000000000000000000000000000000000000000000000000000000000000000000000000000000000000000000000000000000000000000000000000000000000000000000000000000000000000000000000000000000000000000000000000000000000000000000000000000000000000000000000000000000000000000000000000000000000000000000000000000000000000000000000000000000000000000000000000000000000000000000000000000000000000000000000000000000000000000000000000000000000000000000000000000000000000000000000000000000000000000000000000000000000000000",
      "type": "0x2",
      "transactionHash": "0x08e6248cc4b0fa1e5cebd2480558d4f786699c57c9a03ec28ecf5343c527767e",
      "transactionIndex": "0x21",
      "blockHash": "0xe42f326cc000ebc6393080ae9890bf3f4ff01abde7452134444273bea04fb201",
      "blockNumber": "0x97ec83",
      "gasUsed": "0x1574e",
      "effectiveGasPrice": "0x118c2e",
      "from": "0x679bb4ff2273f0b4482d7fa07eb701ddfb6ded42",
      "to": "0xc59d60d9cdc3d29090892c355cc43ff7b12f254c",
      "contractAddress": null
    },
    {
      "status": "0x1",
      "cumulativeGasUsed": "0x973965",
      "logs": [],
      "logsBloom": "0x00000000000000000000000000000000000000000000000000000000000000000000000000000000000000000000000000000000000000000000000000000000000000000000000000000000000000000000000000000000000000000000000000000000000000000000000000000000000000000000000000000000000000000000000000000000000000000000000000000000000000000000000000000000000000000000000000000000000000000000000000000000000000000000000000000000000000000000000000000000000000000000000000000000000000000000000000000000000000000000000000000000000000000000000000000000",
      "type": "0x2",
      "transactionHash": "0x7d1d6afcea52bebb3e740b1f62f172372e2ed77b77ac15e0a83776e5b87a2b87",
      "transactionIndex": "0x37",
      "blockHash": "0xc6a5888f3b210afdfc6550e065198a0a41836b2b9a53220b0c8e2f2270875fa6",
      "blockNumber": "0x97ec84",
      "gasUsed": "0xc971",
      "effectiveGasPrice": "0x118c2e",
      "from": "0x679bb4ff2273f0b4482d7fa07eb701ddfb6ded42",
      "to": "0xc59d60d9cdc3d29090892c355cc43ff7b12f254c",
      "contractAddress": null
    },
    {
      "status": "0x1",
      "cumulativeGasUsed": "0x6df208",
      "logs": [],
      "logsBloom": "0x00000000000000000000000000000000000000000000000000000000000000000000000000000000000000000000000000000000000000000000000000000000000000000000000000000000000000000000000000000000000000000000000000000000000000000000000000000000000000000000000000000000000000000000000000000000000000000000000000000000000000000000000000000000000000000000000000000000000000000000000000000000000000000000000000000000000000000000000000000000000000000000000000000000000000000000000000000000000000000000000000000000000000000000000000000000",
      "type": "0x2",
      "transactionHash": "0xabb2b3353d40a527e4c2da611ab63d2d6b9294884935e1164f2745bd03b4ced3",
      "transactionIndex": "0x3a",
      "blockHash": "0x499dc7aeaa6f0440c6d09b3c95a37a98341a634f38dba851f1bea3aa244397ab",
      "blockNumber": "0x97ec85",
      "gasUsed": "0x11482",
      "effectiveGasPrice": "0x118c2e",
      "from": "0xf93ee28f72069752a808bbf56f9db51952475ae0",
      "to": "0xc59d60d9cdc3d29090892c355cc43ff7b12f254c",
      "contractAddress": null
    },
    {
      "status": "0x1",
      "cumulativeGasUsed": "0x5f3e6d",
      "logs": [],
      "logsBloom": "0x00000000000000000000000000000000000000000000000000000000000000000000000000000000000000000000000000000000000000000000000000000000000000000000000000000000000000000000000000000000000000000000000000000000000000000000000000000000000000000000000000000000000000000000000000000000000000000000000000000000000000000000000000000000000000000000000000000000000000000000000000000000000000000000000000000000000000000000000000000000000000000000000000000000000000000000000000000000000000000000000000000000000000000000000000000000",
      "type": "0x2",
      "transactionHash": "0x1685e71d9b6fadb2958a10f26e9829474bfa1f574633eda59b2934091b62ec12",
      "transactionIndex": "0x36",
      "blockHash": "0x53f372c8ae64e0dd4c8b2b3d0a81e0e9dfd8b50f461566d97907ca8f607e8305",
      "blockNumber": "0x97ec86",
      "gasUsed": "0x857e",
      "effectiveGasPrice": "0x118c2e",
      "from": "0xf93ee28f72069752a808bbf56f9db51952475ae0",
      "to": "0xc59d60d9cdc3d29090892c355cc43ff7b12f254c",
      "contractAddress": null
    }
  ],
  "libraries": [],
  "pending": [],
  "returns": {},
  "timestamp": 1767241825302,
  "chain": 11155111,
  "commit": "477bcca"
}