{
  "transactions": [
    {
      "hash": "0xd91987769ef36ac5eeb9df3424ff5d7b866776b7efd515da8f4b38f73c31ec9d",
      "transactionType": "CREATE",
      "contractName": "Switch",
      "contractAddress": "0x2922a2f14c1061f8361d38fce06a8cae6a4a1334",
      "function": null,
      "arguments": null,
      "transaction": {
        "from": "0xf93ee28f72069752a808bbf56f9db51952475ae0",
        "gas": "0x9e54d",
        "value": "0x0",
        "input": "0x60806040527f20606e15b70f0894e0e83ae9593ae406a94abb5adcfcf0d169c6784f02198dc35f60016101000a81548163ffffffff021916908360e01c0217905550348015604b575f5ffd5b506107af806100595f395ff3fe608060405234801561000f575f5ffd5b5060043610610055575f3560e01c806320606e151461005957806330c13ade146100635780635a2cfa661461007f57806376227e121461009d578063f9f8f895146100a7575b5f5ffd5b6100616100c5565b005b61007d600480360381019061007891906104a9565b61014d565b005b61008761028e565b604051610094919061052a565b60405180910390f35b6100a56102a0565b005b6100af610329565b6040516100bc919061055d565b60405180910390f35b3073ffffffffffffffffffffffffffffffffffffffff163373ffffffffffffffffffffffffffffffffffffffff1614610133576040517f08c379a000000000000000000000000000000000000000000000000000000000815260040161012a906105d0565b60405180910390fd5b5f5f5f6101000a81548160ff021916908315150217905550565b61015561033a565b6004604482375f60019054906101000a900460e01b7bffffffffffffffffffffffffffffffffffffffffffffffffffffffff1916815f6001811061019c5761019b6105ee565b5b6020020151146101e1576040517f08c379a00000000000000000000000000000000000000000000000000000000081526004016101d89061068b565b60405180910390fd5b5f3073ffffffffffffffffffffffffffffffffffffffff168360405161020791906106fb565b5f604051808303815f865af19150503d805f8114610240576040519150601f19603f3d011682016040523d82523d5f602084013e610245565b606091505b5050905080610289576040517f08c379a00000000000000000000000000000000000000000000000000000000081526004016102809061075b565b60405180910390fd5b505050565b5f60019054906101000a900460e01b81565b3073ffffffffffffffffffffffffffffffffffffffff163373ffffffffffffffffffffffffffffffffffffffff161461030e576040517f08c379a0000000000000000000000000000000000000000000000000000000008152600401610305906105d0565b60405180910390fd5b60015f5f6101000a81548160ff021916908315150217905550565b5f5f9054906101000a900460ff1681565b6040518060200160405280600190602082028036833780820191505090505090565b5f604051905090565b5f5ffd5b5f5ffd5b5f5ffd5b5f5ffd5b5f601f19601f8301169050919050565b7f4e487b71000000000000000000000000000000000000000000000000000000005f52604160045260245ffd5b6103bb82610375565b810181811067ffffffffffffffff821117156103da576103d9610385565b5b80604052505050565b5f6103ec61035c565b90506103f882826103b2565b919050565b5f67ffffffffffffffff82111561041757610416610385565b5b61042082610375565b9050602081019050919050565b828183375f83830152505050565b5f61044d610448846103fd565b6103e3565b90508281526020810184848401111561046957610468610371565b5b61047484828561042d565b509392505050565b5f82601f8301126104905761048f61036d565b5b81356104a084826020860161043b565b91505092915050565b5f602082840312156104be576104bd610365565b5b5f82013567ffffffffffffffff8111156104db576104da610369565b5b6104e78482850161047c565b91505092915050565b5f7fffffffff0000000000000000000000000000000000000000000000000000000082169050919050565b610524816104f0565b82525050565b5f60208201905061053d5f83018461051b565b92915050565b5f8115159050919050565b61055781610543565b82525050565b5f6020820190506105705f83018461054e565b92915050565b5f82825260208201905092915050565b7f4f6e6c792074686520636f6e74726163742063616e2063616c6c2074686973005f82015250565b5f6105ba601f83610576565b91506105c582610586565b602082019050919050565b5f6020820190508181035f8301526105e7816105ae565b9050919050565b7f4e487b71000000000000000000000000000000000000000000000000000000005f52603260045260245ffd5b7f43616e206f6e6c792063616c6c20746865207475726e4f6666537769746368205f8201527f66756e6374696f6e000000000000000000000000000000000000000000000000602082015250565b5f610675602883610576565b91506106808261061b565b604082019050919050565b5f6020820190508181035f8301526106a281610669565b9050919050565b5f81519050919050565b5f81905092915050565b8281835e5f83830152505050565b5f6106d5826106a9565b6106df81856106b3565b93506106ef8185602086016106bd565b80840191505092915050565b5f61070682846106cb565b915081905092915050565b7f63616c6c206661696c6564203a280000000000000000000000000000000000005f82015250565b5f610745600e83610576565b915061075082610711565b602082019050919050565b5f6020820190508181035f83015261077281610739565b905091905056fea2646970667358221220ccce93d9d423a48b7c2dc42746839d614406fb861b8dfad053ead8f61c18873664736f6c634300081e0033",
        "nonce": "0x128",
        "chainId": "0xaa36a7"
      },
      "additionalContracts": [],
      "isFixedGasLimit": false
    },
    {
      "hash": "0xccf9521685807e251c1616d38cd0e0a955de520c57ae34a12a99b17d5be2c174",
      "transactionType": "CALL",
      "contractName": "Switch",
      "contractAddress": "0x2922a2f14c1061f8361d38fce06a8cae6a4a1334",
      "function": "flipSwitch(bytes)",
      "arguments": [
        "0x76227e12"
      ],
      "transaction": {
        "from": "0xf93ee28f72069752a808bbf56f9db51952475ae0",
        "to": "0x2922a2f14c1061f8361d38fce06a8cae6a4a1334",
        "gas": "0x9deb",
        "value": "0x0",
        "input": "0x30c13ade0000000000000000000000000000000000000000000000000000000000000060000000000000000000000000000000000000000000000000000000000000000020606e15b70f0894e0e83ae9593ae406a94abb5adcfcf0d169c6784f02198dc3000000000000000000000000000000000000000000000000000000000000000476227e1200000000000000000000000000000000000000000000000000000000",
        "nonce": "0x129",
        "chainId": "0xaa36a7"
      },
      "additionalContracts": [],
      "isFixedGasLimit": false
    }
  ],
  "receipts": [
    {
      "status": "0x1",
      "cumulativeGasUsed": "0x12e498a",
      "logs": [],
      "logsBloom": "0x00000000000000000000000000000000000000000000000000000000000000000000000000000000000000000000000000000000000000000000000000000000000000000000000000000000000000000000000000000000000000000000000000000000000000000000000000000000000000000000000000000000000000000000000000000000000000000000000000000000000000000000000000000000000000000000000000000000000000000000000000000000000000000000000000000000000000000000000000000000000000000000000000000000000000000000000000000000000000000000000000000000000000000000000000000000",
      "type": "0x2",
      "transactionHash": "0xccf9521685807e251c1616d38cd0e0a955de520c57ae34a12a99b17d5be2c174",
      "transactionIndex": "0x56",
      "blockHash": "0xfbddc3f500f0e3cdcaebdd688d7bf43d9022949570fb560eee5e24ffe110e418",
      "blockNumber": "0x97c0af",
      "gasUsed": "0x79cb2",
      "effectiveGasPrice": "0x18db98",
      "from": "0xf93ee28f72069752a808bbf56f9db51952475ae0",
      "to": null,
      "contractAddress": "0x2922a2f14c1061f8361d38fce06a8cae6a4a1334"
    },
    {
      "status": "0x1",
      "cumulativeGasUsed": "0x249baa5",
      "logs": [],
      "logsBloom": "0x00000000000000000000000000000000000000000000000000000000000000000000000000000000000000000000000000000000000000000000000000000000000000000000000000000000000000000000000000000000000000000000000000000000000000000000000000000000000000000000000000000000000000000000000000000000000000000000000000000000000000000000000000000000000000000000000000000000000000000000000000000000000000000000000000000000000000000000000000000000000000000000000000000000000000000000000000000000000000000000000000000000000000000000000000000000",
      "type": "0x2",
      "transactionHash": "0xd91987769ef36ac5eeb9df3424ff5d7b866776b7efd515da8f4b38f73c31ec9d",
      "transactionIndex": "0xd8",
      "blockHash": "0x957be15977cfdb12c26f9cf492a04ae794c2dee2bd075507337c78614a58b5c8",
      "blockNumber": "0x97c0b1",
      "gasUsed": "0x7255",
      "effectiveGasPrice": "0x18d5f9",
      "from": "0xf93ee28f72069752a808bbf56f9db51952475ae0",
      "to": "0x2922a2f14c1061f8361d38fce06a8cae6a4a1334",
      "contractAddress": null
    }
  ],
  "libraries": [],
  "pending": [],
  "returns": {},
  "timestamp": 1767098534440,
  "chain": 11155111,
  "commit": "9ae6b74"
}