{
  "transactions": [
    {
      "hash": "0x1cab3331cf260a102b1dd5e6051f4e551e07f4ce5e13c321bac2c4e1f76d31aa",
      "transactionType": "CREATE",
      "contractName": "NewEngine",
      "contractAddress": "0x19ebbb0436d4d230e8b155217d612bf0a2ab1b3b",
      "function": null,
      "arguments": null,
      "transaction": {
        "from": "0xf93ee28f72069752a808bbf56f9db51952475ae0",
        "gas": "0x19d04",
        "value": "0x0",
        "input": "0x6080604052348015600e575f5ffd5b50608180601a5f395ff3fe6080604052348015600e575f5ffd5b50600436106026575f3560e01c80635ad0f92214602a575b5f5ffd5b60306032565b005b5f73ffffffffffffffffffffffffffffffffffffffff16fffea2646970667358221220b8e816db1f820e093f4a8626ef12ea8fe9a8bba19fa6a02b38b7f71c6489f4b064736f6c634300081e0033",
        "nonce": "0x10e",
        "chainId": "0xaa36a7"
      },
      "additionalContracts": [],
      "isFixedGasLimit": false
    },
    {
      "hash": "0xc01ba6f80e75f3d7894961ae1613180c68e679fe7686623ad5c129d24569b4cc",
      "transactionType": "CALL",
      "contractName": null,
      "contractAddress": "0x63acb6ffb118881d38de86ff94b5986a469af88c",
      "function": "initialize()",
      "arguments": [],
      "transaction": {
        "from": "0xf93ee28f72069752a808bbf56f9db51952475ae0",
        "to": "0x63acb6ffb118881d38de86ff94b5986a469af88c",
        "gas": "0x1670f",
        "value": "0x0",
        "input": "0x8129fc1c",
        "nonce": "0x10f",
        "chainId": "0xaa36a7"
      },
      "additionalContracts": [],
      "isFixedGasLimit": false
    },
    {
      "hash": "0xf6c5f89642bd569ed5685144a9250a241ddda5cc5bce500559dcddf1836e73e1",
      "transactionType": "CALL",
      "contractName": null,
      "contractAddress": "0x63acb6ffb118881d38de86ff94b5986a469af88c",
      "function": "upgradeToAndCall(address,bytes)",
      "arguments": [
        "0x19EbbB0436D4d230e8b155217d612bF0A2Ab1B3b",
        "0x5ad0f922"
      ],
      "transaction": {
        "from": "0xf93ee28f72069752a808bbf56f9db51952475ae0",
        "to": "0x63acb6ffb118881d38de86ff94b5986a469af88c",
        "gas": "0x1491d",
        "value": "0x0",
        "input": "0x4f1ef28600000000000000000000000019ebbb0436d4d230e8b155217d612bf0a2ab1b3b000000000000000000000000000000000000000000000000000000000000004000000000000000000000000000000000000000000000000000000000000000045ad0f92200000000000000000000000000000000000000000000000000000000",
        "nonce": "0x110",
        "chainId": "0xaa36a7"
      },
      "additionalContracts": [],
      "isFixedGasLimit": false
    }
  ],
  "receipts": [
    {
      "status": "0x1",
      "cumulativeGasUsed": "0xe6ffa6",
      "logs": [],
      "logsBloom": "0x00000000000000000000000000000000000000000000000000000000000000000000000000000000000000000000000000000000000000000000000000000000000000000000000000000000000000000000000000000000000000000000000000000000000000000000000000000000000000000000000000000000000000000000000000000000000000000000000000000000000000000000000000000000000000000000000000000000000000000000000000000000000000000000000000000000000000000000000000000000000000000000000000000000000000000000000000000000000000000000000000000000000000000000000000000000",
      "type": "0x2",
      "transactionHash": "0x1cab3331cf260a102b1dd5e6051f4e551e07f4ce5e13c321bac2c4e1f76d31aa",
      "transactionIndex": "0x37",
      "blockHash": "0xe340f55de4abd1c443f03f848952e4aca078e983393930cd036d14028ff9e33f",
      "blockNumber": "0x975b24",
      "gasUsed": "0x13db5",
      "effectiveGasPrice": "0x10c8ef",
      "from": "0xf93ee28f72069752a808bbf56f9db51952475ae0",
      "to": null,
      "contractAddress": "0x19ebbb0436d4d230e8b155217d612bf0a2ab1b3b"
    },
    {
      "status": "0x1",
      "cumulativeGasUsed": "0xe8039a",
      "logs": [],
      "logsBloom": "0x00000000000000000000000000000000000000000000000000000000000000000000000000000000000000000000000000000000000000000000000000000000000000000000000000000000000000000000000000000000000000000000000000000000000000000000000000000000000000000000000000000000000000000000000000000000000000000000000000000000000000000000000000000000000000000000000000000000000000000000000000000000000000000000000000000000000000000000000000000000000000000000000000000000000000000000000000000000000000000000000000000000000000000000000000000000",
      "type": "0x2",
      "transactionHash": "0xf6c5f89642bd569ed5685144a9250a241ddda5cc5bce500559dcddf1836e73e1",
      "transactionIndex": "0x38",
      "blockHash": "0xe340f55de4abd1c443f03f848952e4aca078e983393930cd036d14028ff9e33f",
      "blockNumber": "0x975b24",
      "gasUsed": "0x103f4",
      "effectiveGasPrice": "0x10c8ef",
      "from": "0xf93ee28f72069752a808bbf56f9db51952475ae0",
      "to": "0x63acb6ffb118881d38de86ff94b5986a469af88c",
      "contractAddress": null
    },
    {
      "status": "0x1",
      "cumulativeGasUsed": "0xe8e4a3",
      "logs": [],
      "logsBloom": "0x00000000000000000000000000000000000000000000000000000000000000000000000000000000000000000000000000000000000000000000000000000000000000000000000000000000000000000000000000000000000000000000000000000000000000000000000000000000000000000000000000000000000000000000000000000000000000000000000000000000000000000000000000000000000000000000000000000000000000000000000000000000000000000000000000000000000000000000000000000000000000000000000000000000000000000000000000000000000000000000000000000000000000000000000000000000",
      "type": "0x2",
      "transactionHash": "0xc01ba6f80e75f3d7894961ae1613180c68e679fe7686623ad5c129d24569b4cc",
      "transactionIndex": "0x39",
      "blockHash": "0xe340f55de4abd1c443f03f848952e4aca078e983393930cd036d14028ff9e33f",
      "blockNumber": "0x975b24",
      "gasUsed": "0xe109",
      "effectiveGasPrice": "0x10c8ef",
      "from": "0xf93ee28f72069752a808bbf56f9db51952475ae0",
      "to": "0x63acb6ffb118881d38de86ff94b5986a469af88c",
      "contractAddress": null
    }
  ],
  "libraries": [],
  "pending": [],
  "returns": {},
  "timestamp": 1766766866155,
  "chain": 11155111,
  "commit": "7003378"
}