{
  "transactions": [
    {
      "hash": "0x37bfc6931b5b118bc4c6ce9726977992c6545d16f0c874e7d04aeb595db89ebd",
      "transactionType": "CALL",
      "contractName": null,
      "contractAddress": "0x47ce967eab4cca879a424ed5720424ae37bf9b0c",
      "function": "approve(address,uint256)",
      "arguments": [
        "0x47cE967eAb4CCa879A424Ed5720424ae37bf9B0c",
        "100000"
      ],
      "transaction": {
        "from": "0xf93ee28f72069752a808bbf56f9db51952475ae0",
        "to": "0x47ce967eab4cca879a424ed5720424ae37bf9b0c",
        "gas": "0x1e966",
        "value": "0x0",
        "input": "0x095ea7b300000000000000000000000047ce967eab4cca879a424ed5720424ae37bf9b0c00000000000000000000000000000000000000000000000000000000000186a0",
        "nonce": "0x74",
        "chainId": "0xaa36a7"
      },
      "additionalContracts": [],
      "isFixedGasLimit": false
    },
    {
      "hash": "0x8b1071ae6f73ba398d6497031e160796fd4ee25605abeccf356fe9c0696294c9",
      "transactionType": "CALL",
      "contractName": null,
      "contractAddress": "0x47ce967eab4cca879a424ed5720424ae37bf9b0c",
      "function": "swap(address,address,uint256)",
      "arguments": [
        "0x8f62248b1aB982578e0f59d19076c1bd9C0405f3",
        "0xbDbD81BEdB050C054643356ebEC720258B9ac81e",
        "10"
      ],
      "transaction": {
        "from": "0xf93ee28f72069752a808bbf56f9db51952475ae0",
        "to": "0x47ce967eab4cca879a424ed5720424ae37bf9b0c",
        "gas": "0x1b896",
        "value": "0x0",
        "input": "0xdf791e500000000000000000000000008f62248b1ab982578e0f59d19076c1bd9c0405f3000000000000000000000000bdbd81bedb050c054643356ebec720258b9ac81e000000000000000000000000000000000000000000000000000000000000000a",
        "nonce": "0x75",
        "chainId": "0xaa36a7"
      },
      "additionalContracts": [],
      "isFixedGasLimit": false
    },
    {
      "hash": "0x47d894bc63e31801dbaf30732c67d68614859a64f581aa33b31d8c52bffa2f33",
      "transactionType": "CALL",
      "contractName": null,
      "contractAddress": "0x47ce967eab4cca879a424ed5720424ae37bf9b0c",
      "function": "swap(address,address,uint256)",
      "arguments": [
        "0xbDbD81BEdB050C054643356ebEC720258B9ac81e",
        "0x8f62248b1aB982578e0f59d19076c1bd9C0405f3",
        "20"
      ],
      "transaction": {
        "from": "0xf93ee28f72069752a808bbf56f9db51952475ae0",
        "to": "0x47ce967eab4cca879a424ed5720424ae37bf9b0c",
        "gas": "0x1ea9a",
        "value": "0x0",
        "input": "0xdf791e50000000000000000000000000bdbd81bedb050c054643356ebec720258b9ac81e0000000000000000000000008f62248b1ab982578e0f59d19076c1bd9c0405f30000000000000000000000000000000000000000000000000000000000000014",
        "nonce": "0x76",
        "chainId": "0xaa36a7"
      },
      "additionalContracts": [],
      "isFixedGasLimit": false
    },
    {
      "hash": "0xf4d8243f6e2c3054c72d0b78d7491128115b852acf2968a70d902d996dacf148",
      "transactionType": "CALL",
      "contractName": null,
      "contractAddress": "0x47ce967eab4cca879a424ed5720424ae37bf9b0c",
      "function": "swap(address,address,uint256)",
      "arguments": [
        "0x8f62248b1aB982578e0f59d19076c1bd9C0405f3",
        "0xbDbD81BEdB050C054643356ebEC720258B9ac81e",
        "24"
      ],
      "transaction": {
        "from": "0xf93ee28f72069752a808bbf56f9db51952475ae0",
        "to": "0x47ce967eab4cca879a424ed5720424ae37bf9b0c",
        "gas": "0x206bd",
        "value": "0x0",
        "input": "0xdf791e500000000000000000000000008f62248b1ab982578e0f59d19076c1bd9c0405f3000000000000000000000000bdbd81bedb050c054643356ebec720258b9ac81e0000000000000000000000000000000000000000000000000000000000000018",
        "nonce": "0x77",
        "chainId": "0xaa36a7"
      },
      "additionalContracts": [],
      "isFixedGasLimit": false
    },
    {
      "hash": "0x299c74d5e5bf7630c9e042cc9f79a13f278662d6a66fc789d8eadefece9de979",
      "transactionType": "CALL",
      "contractName": null,
      "contractAddress": "0x47ce967eab4cca879a424ed5720424ae37bf9b0c",
      "function": "swap(address,address,uint256)",
      "arguments": [
        "0xbDbD81BEdB050C054643356ebEC720258B9ac81e",
        "0x8f62248b1aB982578e0f59d19076c1bd9C0405f3",
        "30"
      ],
      "transaction": {
        "from": "0xf93ee28f72069752a808bbf56f9db51952475ae0",
        "to": "0x47ce967eab4cca879a424ed5720424ae37bf9b0c",
        "gas": "0x1ea9a",
        "value": "0x0",
        "input": "0xdf791e50000000000000000000000000bdbd81bedb050c054643356ebec720258b9ac81e0000000000000000000000008f62248b1ab982578e0f59d19076c1bd9c0405f3000000000000000000000000000000000000000000000000000000000000001e",
        "nonce": "0x78",
        "chainId": "0xaa36a7"
      },
      "additionalContracts": [],
      "isFixedGasLimit": false
    },
    {
      "hash": "0xca2b70d3d35a40cac95c7718ffe2512178b50e9db827e7b34a85d85e7304e1aa",
      "transactionType": "CALL",
      "contractName": null,
      "contractAddress": "0x47ce967eab4cca879a424ed5720424ae37bf9b0c",
      "function": "swap(address,address,uint256)",
      "arguments": [
        "0x8f62248b1aB982578e0f59d19076c1bd9C0405f3",
        "0xbDbD81BEdB050C054643356ebEC720258B9ac81e",
        "41"
      ],
      "transaction": {
        "from": "0xf93ee28f72069752a808bbf56f9db51952475ae0",
        "to": "0x47ce967eab4cca879a424ed5720424ae37bf9b0c",
        "gas": "0x206bd",
        "value": "0x0",
        "input": "0xdf791e500000000000000000000000008f62248b1ab982578e0f59d19076c1bd9c0405f3000000000000000000000000bdbd81bedb050c054643356ebec720258b9ac81e0000000000000000000000000000000000000000000000000000000000000029",
        "nonce": "0x79",
        "chainId": "0xaa36a7"
      },
      "additionalContracts": [],
      "isFixedGasLimit": false
    }
  ],
  "receipts": [
    {
      "status": "0x1",
      "cumulativeGasUsed": "0x1105719",
      "logs": [
        {
          "address": "0x8f62248b1ab982578e0f59d19076c1bd9c0405f3",
          "topics": [
            "0x8c5be1e5ebec7d5bd14f71427d1e84f3dd0314c0f7b2291e5b200ac8c7c3b925",
            "0x000000000000000000000000f93ee28f72069752a808bbf56f9db51952475ae0",
            "0x00000000000000000000000047ce967eab4cca879a424ed5720424ae37bf9b0c"
          ],
          "data": "0x00000000000000000000000000000000000000000000000000000000000186a0",
          "blockHash": "0xfcf139ce3e4c6ae38c7d07ab40d6eef6c7e7b151c43d120d53b3df2c9e10a96d",
          "blockNumber": "0x964ffe",
          "blockTimestamp": "0x6940ec0c",
          "transactionHash": "0xf4d8243f6e2c3054c72d0b78d7491128115b852acf2968a70d902d996dacf148",
          "transactionIndex": "0x46",
          "logIndex": "0x26f",
          "removed": false
        },
        {
          "address": "0xbdbd81bedb050c054643356ebec720258b9ac81e",
          "topics": [
            "0x8c5be1e5ebec7d5bd14f71427d1e84f3dd0314c0f7b2291e5b200ac8c7c3b925",
            "0x000000000000000000000000f93ee28f72069752a808bbf56f9db51952475ae0",
            "0x00000000000000000000000047ce967eab4cca879a424ed5720424ae37bf9b0c"
          ],
          "data": "0x00000000000000000000000000000000000000000000000000000000000186a0",
          "blockHash": "0xfcf139ce3e4c6ae38c7d07ab40d6eef6c7e7b151c43d120d53b3df2c9e10a96d",
          "blockNumber": "0x964ffe",
          "blockTimestamp": "0x6940ec0c",
          "transactionHash": "0xf4d8243f6e2c3054c72d0b78d7491128115b852acf2968a70d902d996dacf148",
          "transactionIndex": "0x46",
          "logIndex": "0x270",
          "removed": false
        }
      ],
      "logsBloom": "0x00000000000000001000000400000000004000000000000000000000000000000000000000000000000000100000000000000000000000000000000000200000000000010000000000000000000000000000000000100000000000000000002000000000000000000000000000000000000000000000000000000000000000000000000000000000000000000000000000000000000000000000000000000000020000000000002000000000000000000000000000000000000000001000000000000000000000000000000000000000000000000000000000000000000000000010400000000000000000000000000000000000000000000000001010000000",
      "type": "0x2",
      "transactionHash": "0xf4d8243f6e2c3054c72d0b78d7491128115b852acf2968a70d902d996dacf148",
      "transactionIndex": "0x46",
      "blockHash": "0xfcf139ce3e4c6ae38c7d07ab40d6eef6c7e7b151c43d120d53b3df2c9e10a96d",
      "blockNumber": "0x964ffe",
      "gasUsed": "0x14ea2",
      "effectiveGasPrice": "0x1460e8",
      "from": "0xf93ee28f72069752a808bbf56f9db51952475ae0",
      "to": "0x47ce967eab4cca879a424ed5720424ae37bf9b0c",
      "contractAddress": null
    },
    {
      "status": "0x1",
      "cumulativeGasUsed": "0x111845b",
      "logs": [
        {
          "address": "0x8f62248b1ab982578e0f59d19076c1bd9c0405f3",
          "topics": [
            "0x8c5be1e5ebec7d5bd14f71427d1e84f3dd0314c0f7b2291e5b200ac8c7c3b925",
            "0x000000000000000000000000f93ee28f72069752a808bbf56f9db51952475ae0",
            "0x00000000000000000000000047ce967eab4cca879a424ed5720424ae37bf9b0c"
          ],
          "data": "0x0000000000000000000000000000000000000000000000000000000000018696",
          "blockHash": "0xfcf139ce3e4c6ae38c7d07ab40d6eef6c7e7b151c43d120d53b3df2c9e10a96d",
          "blockNumber": "0x964ffe",
          "blockTimestamp": "0x6940ec0c",
          "transactionHash": "0x8b1071ae6f73ba398d6497031e160796fd4ee25605abeccf356fe9c0696294c9",
          "transactionIndex": "0x47",
          "logIndex": "0x271",
          "removed": false
        },
        {
          "address": "0x8f62248b1ab982578e0f59d19076c1bd9c0405f3",
          "topics": [
            "0xddf252ad1be2c89b69c2b068fc378daa952ba7f163c4a11628f55a4df523b3ef",
            "0x000000000000000000000000f93ee28f72069752a808bbf56f9db51952475ae0",
            "0x00000000000000000000000047ce967eab4cca879a424ed5720424ae37bf9b0c"
          ],
          "data": "0x000000000000000000000000000000000000000000000000000000000000000a",
          "blockHash": "0xfcf139ce3e4c6ae38c7d07ab40d6eef6c7e7b151c43d120d53b3df2c9e10a96d",
          "blockNumber": "0x964ffe",
          "blockTimestamp": "0x6940ec0c",
          "transactionHash": "0x8b1071ae6f73ba398d6497031e160796fd4ee25605abeccf356fe9c0696294c9",
          "transactionIndex": "0x47",
          "logIndex": "0x272",
          "removed": false
        },
        {
          "address": "0xbdbd81bedb050c054643356ebec720258b9ac81e",
          "topics": [
            "0x8c5be1e5ebec7d5bd14f71427d1e84f3dd0314c0f7b2291e5b200ac8c7c3b925",
            "0x00000000000000000000000047ce967eab4cca879a424ed5720424ae37bf9b0c",
            "0x00000000000000000000000047ce967eab4cca879a424ed5720424ae37bf9b0c"
          ],
          "data": "0x000000000000000000000000000000000000000000000000000000000000000a",
          "blockHash": "0xfcf139ce3e4c6ae38c7d07ab40d6eef6c7e7b151c43d120d53b3df2c9e10a96d",
          "blockNumber": "0x964ffe",
          "blockTimestamp": "0x6940ec0c",
          "transactionHash": "0x8b1071ae6f73ba398d6497031e160796fd4ee25605abeccf356fe9c0696294c9",
          "transactionIndex": "0x47",
          "logIndex": "0x273",
          "removed": false
        },
        {
          "address": "0xbdbd81bedb050c054643356ebec720258b9ac81e",
          "topics": [
            "0x8c5be1e5ebec7d5bd14f71427d1e84f3dd0314c0f7b2291e5b200ac8c7c3b925",
            "0x00000000000000000000000047ce967eab4cca879a424ed5720424ae37bf9b0c",
            "0x00000000000000000000000047ce967eab4cca879a424ed5720424ae37bf9b0c"
          ],
          "data": "0x0000000000000000000000000000000000000000000000000000000000000000",
          "blockHash": "0xfcf139ce3e4c6ae38c7d07ab40d6eef6c7e7b151c43d120d53b3df2c9e10a96d",
          "blockNumber": "0x964ffe",
          "blockTimestamp": "0x6940ec0c",
          "transactionHash": "0x8b1071ae6f73ba398d6497031e160796fd4ee25605abeccf356fe9c0696294c9",
          "transactionIndex": "0x47",
          "logIndex": "0x274",
          "removed": false
        },
        {
          "address": "0xbdbd81bedb050c054643356ebec720258b9ac81e",
          "topics": [
            "0xddf252ad1be2c89b69c2b068fc378daa952ba7f163c4a11628f55a4df523b3ef",
            "0x00000000000000000000000047ce967eab4cca879a424ed5720424ae37bf9b0c",
            "0x000000000000000000000000f93ee28f72069752a808bbf56f9db51952475ae0"
          ],
          "data": "0x000000000000000000000000000000000000000000000000000000000000000a",
          "blockHash": "0xfcf139ce3e4c6ae38c7d07ab40d6eef6c7e7b151c43d120d53b3df2c9e10a96d",
          "blockNumber": "0x964ffe",
          "blockTimestamp": "0x6940ec0c",
          "transactionHash": "0x8b1071ae6f73ba398d6497031e160796fd4ee25605abeccf356fe9c0696294c9",
          "transactionIndex": "0x47",
          "logIndex": "0x275",
          "removed": false
        }
      ],
      "logsBloom": "0x00000000000000001000000400000000004000000000000000000000000000000000000000000000000000100000000000000000000000000000000000200000000000010000000000000008000000000000000000100000000000000000002000000000000000000000000000000000000000000000000000000010000000000000000000000000000000000000000000000000000000000000000000000000020000000000002000000000000000000000000000000000000000001000000000000002000000000000000000000000000000000000000000000000000000000010400000000000000000000000000000000000000000000000001010000000",
      "type": "0x2",
      "transactionHash": "0x8b1071ae6f73ba398d6497031e160796fd4ee25605abeccf356fe9c0696294c9",
      "transactionIndex": "0x47",
      "blockHash": "0xfcf139ce3e4c6ae38c7d07ab40d6eef6c7e7b151c43d120d53b3df2c9e10a96d",
      "blockNumber": "0x964ffe",
      "gasUsed": "0x12d42",
      "effectiveGasPrice": "0x1460e8",
      "from": "0xf93ee28f72069752a808bbf56f9db51952475ae0",
      "to": "0x47ce967eab4cca879a424ed5720424ae37bf9b0c",
      "contractAddress": null
    },
    {
      "status": "0x1",
      "cumulativeGasUsed": "0x112e78b",
      "logs": [
        {
          "address": "0xbdbd81bedb050c054643356ebec720258b9ac81e",
          "topics": [
            "0x8c5be1e5ebec7d5bd14f71427d1e84f3dd0314c0f7b2291e5b200ac8c7c3b925",
            "0x000000000000000000000000f93ee28f72069752a808bbf56f9db51952475ae0",
            "0x00000000000000000000000047ce967eab4cca879a424ed5720424ae37bf9b0c"
          ],
          "data": "0x000000000000000000000000000000000000000000000000000000000001868c",
          "blockHash": "0xfcf139ce3e4c6ae38c7d07ab40d6eef6c7e7b151c43d120d53b3df2c9e10a96d",
          "blockNumber": "0x964ffe",
          "blockTimestamp": "0x6940ec0c",
          "transactionHash": "0xca2b70d3d35a40cac95c7718ffe2512178b50e9db827e7b34a85d85e7304e1aa",
          "transactionIndex": "0x48",
          "logIndex": "0x276",
          "removed": false
        },
        {
          "address": "0xbdbd81bedb050c054643356ebec720258b9ac81e",
          "topics": [
            "0xddf252ad1be2c89b69c2b068fc378daa952ba7f163c4a11628f55a4df523b3ef",
            "0x000000000000000000000000f93ee28f72069752a808bbf56f9db51952475ae0",
            "0x00000000000000000000000047ce967eab4cca879a424ed5720424ae37bf9b0c"
          ],
          "data": "0x0000000000000000000000000000000000000000000000000000000000000014",
          "blockHash": "0xfcf139ce3e4c6ae38c7d07ab40d6eef6c7e7b151c43d120d53b3df2c9e10a96d",
          "blockNumber": "0x964ffe",
          "blockTimestamp": "0x6940ec0c",
          "transactionHash": "0xca2b70d3d35a40cac95c7718ffe2512178b50e9db827e7b34a85d85e7304e1aa",
          "transactionIndex": "0x48",
          "logIndex": "0x277",
          "removed": false
        },
        {
          "address": "0x8f62248b1ab982578e0f59d19076c1bd9c0405f3",
          "topics": [
            "0x8c5be1e5ebec7d5bd14f71427d1e84f3dd0314c0f7b2291e5b200ac8c7c3b925",
            "0x00000000000000000000000047ce967eab4cca879a424ed5720424ae37bf9b0c",
            "0x00000000000000000000000047ce967eab4cca879a424ed5720424ae37bf9b0c"
          ],
          "data": "0x0000000000000000000000000000000000000000000000000000000000000018",
          "blockHash": "0xfcf139ce3e4c6ae38c7d07ab40d6eef6c7e7b151c43d120d53b3df2c9e10a96d",
          "blockNumber": "0x964ffe",
          "blockTimestamp": "0x6940ec0c",
          "transactionHash": "0xca2b70d3d35a40cac95c7718ffe2512178b50e9db827e7b34a85d85e7304e1aa",
          "transactionIndex": "0x48",
          "logIndex": "0x278",
          "removed": false
        },
        {
          "address": "0x8f62248b1ab982578e0f59d19076c1bd9c0405f3",
          "topics": [
            "0x8c5be1e5ebec7d5bd14f71427d1e84f3dd0314c0f7b2291e5b200ac8c7c3b925",
            "0x00000000000000000000000047ce967eab4cca879a424ed5720424ae37bf9b0c",
            "0x00000000000000000000000047ce967eab4cca879a424ed5720424ae37bf9b0c"
          ],
          "data": "0x0000000000000000000000000000000000000000000000000000000000000000",
          "blockHash": "0xfcf139ce3e4c6ae38c7d07ab40d6eef6c7e7b151c43d120d53b3df2c9e10a96d",
          "blockNumber": "0x964ffe",
          "blockTimestamp": "0x6940ec0c",
          "transactionHash": "0xca2b70d3d35a40cac95c7718ffe2512178b50e9db827e7b34a85d85e7304e1aa",
          "transactionIndex": "0x48",
          "logIndex": "0x279",
          "removed": false
        },
        {
          "address": "0x8f62248b1ab982578e0f59d19076c1bd9c0405f3",
          "topics": [
            "0xddf252ad1be2c89b69c2b068fc378daa952ba7f163c4a11628f55a4df523b3ef",
            "0x00000000000000000000000047ce967eab4cca879a424ed5720424ae37bf9b0c",
            "0x000000000000000000000000f93ee28f72069752a808bbf56f9db51952475ae0"
          ],
          "data": "0x0000000000000000000000000000000000000000000000000000000000000018",
          "blockHash": "0xfcf139ce3e4c6ae38c7d07ab40d6eef6c7e7b151c43d120d53b3df2c9e10a96d",
          "blockNumber": "0x964ffe",
          "blockTimestamp": "0x6940ec0c",
          "transactionHash": "0xca2b70d3d35a40cac95c7718ffe2512178b50e9db827e7b34a85d85e7304e1aa",
          "transactionIndex": "0x48",
          "logIndex": "0x27a",
          "removed": false
        }
      ],
      "logsBloom": "0x00000000000000001000000400000000004000000000000000000000000000000000000000000000000000100000000000000000000000000000000000200000000000010000000000000008000000000000000000100000000000000000002000000000000000000000000000000000000000000000000000000010000000000000000000000000000000000000000000000000000000000000000000000000020000000000002000000000000000000000000000000000000000001000000000000002000000000000000000000000000000000000000000000000000000000010400000000000000000000000000000000000000000000000001010000000",
      "type": "0x2",
      "transactionHash": "0xca2b70d3d35a40cac95c7718ffe2512178b50e9db827e7b34a85d85e7304e1aa",
      "transactionIndex": "0x48",
      "blockHash": "0xfcf139ce3e4c6ae38c7d07ab40d6eef6c7e7b151c43d120d53b3df2c9e10a96d",
      "blockNumber": "0x964ffe",
      "gasUsed": "0x16330",
      "effectiveGasPrice": "0x1460e8",
      "from": "0xf93ee28f72069752a808bbf56f9db51952475ae0",
      "to": "0x47ce967eab4cca879a424ed5720424ae37bf9b0c",
      "contractAddress": null
    },
    {
      "status": "0x1",
      "cumulativeGasUsed": "0x11579c2",
      "logs": [
        {
          "address": "0x8f62248b1ab982578e0f59d19076c1bd9c0405f3",
          "topics": [
            "0x8c5be1e5ebec7d5bd14f71427d1e84f3dd0314c0f7b2291e5b200ac8c7c3b925",
            "0x000000000000000000000000f93ee28f72069752a808bbf56f9db51952475ae0",
            "0x00000000000000000000000047ce967eab4cca879a424ed5720424ae37bf9b0c"
          ],
          "data": "0x000000000000000000000000000000000000000000000000000000000001867e",
          "blockHash": "0xfcf139ce3e4c6ae38c7d07ab40d6eef6c7e7b151c43d120d53b3df2c9e10a96d",
          "blockNumber": "0x964ffe",
          "blockTimestamp": "0x6940ec0c",
          "transactionHash": "0x47d894bc63e31801dbaf30732c67d68614859a64f581aa33b31d8c52bffa2f33",
          "transactionIndex": "0x4a",
          "logIndex": "0x27d",
          "removed": false
        },
        {
          "address": "0x8f62248b1ab982578e0f59d19076c1bd9c0405f3",
          "topics": [
            "0xddf252ad1be2c89b69c2b068fc378daa952ba7f163c4a11628f55a4df523b3ef",
            "0x000000000000000000000000f93ee28f72069752a808bbf56f9db51952475ae0",
            "0x00000000000000000000000047ce967eab4cca879a424ed5720424ae37bf9b0c"
          ],
          "data": "0x0000000000000000000000000000000000000000000000000000000000000018",
          "blockHash": "0xfcf139ce3e4c6ae38c7d07ab40d6eef6c7e7b151c43d120d53b3df2c9e10a96d",
          "blockNumber": "0x964ffe",
          "blockTimestamp": "0x6940ec0c",
          "transactionHash": "0x47d894bc63e31801dbaf30732c67d68614859a64f581aa33b31d8c52bffa2f33",
          "transactionIndex": "0x4a",
          "logIndex": "0x27e",
          "removed": false
        },
        {
          "address": "0xbdbd81bedb050c054643356ebec720258b9ac81e",
          "topics": [
            "0x8c5be1e5ebec7d5bd14f71427d1e84f3dd0314c0f7b2291e5b200ac8c7c3b925",
            "0x00000000000000000000000047ce967eab4cca879a424ed5720424ae37bf9b0c",
            "0x00000000000000000000000047ce967eab4cca879a424ed5720424ae37bf9b0c"
          ],
          "data": "0x000000000000000000000000000000000000000000000000000000000000001e",
          "blockHash": "0xfcf139ce3e4c6ae38c7d07ab40d6eef6c7e7b151c43d120d53b3df2c9e10a96d",
          "blockNumber": "0x964ffe",
          "blockTimestamp": "0x6940ec0c",
          "transactionHash": "0x47d894bc63e31801dbaf30732c67d68614859a64f581aa33b31d8c52bffa2f33",
          "transactionIndex": "0x4a",
          "logIndex": "0x27f",
          "removed": false
        },
        {
          "address": "0xbdbd81bedb050c054643356ebec720258b9ac81e",
          "topics": [
            "0x8c5be1e5ebec7d5bd14f71427d1e84f3dd0314c0f7b2291e5b200ac8c7c3b925",
            "0x00000000000000000000000047ce967eab4cca879a424ed5720424ae37bf9b0c",
            "0x00000000000000000000000047ce967eab4cca879a424ed5720424ae37bf9b0c"
          ],
          "data": "0x0000000000000000000000000000000000000000000000000000000000000000",
          "blockHash": "0xfcf139ce3e4c6ae38c7d07ab40d6eef6c7e7b151c43d120d53b3df2c9e10a96d",
          "blockNumber": "0x964ffe",
          "blockTimestamp": "0x6940ec0c",
          "transactionHash": "0x47d894bc63e31801dbaf30732c67d68614859a64f581aa33b31d8c52bffa2f33",
          "transactionIndex": "0x4a",
          "logIndex": "0x280",
          "removed": false
        },
        {
          "address": "0xbdbd81bedb050c054643356ebec720258b9ac81e",
          "topics": [
            "0xddf252ad1be2c89b69c2b068fc378daa952ba7f163c4a11628f55a4df523b3ef",
            "0x00000000000000000000000047ce967eab4cca879a424ed5720424ae37bf9b0c",
            "0x000000000000000000000000f93ee28f72069752a808bbf56f9db51952475ae0"
          ],
          "data": "0x000000000000000000000000000000000000000000000000000000000000001e",
          "blockHash": "0xfcf139ce3e4c6ae38c7d07ab40d6eef6c7e7b151c43d120d53b3df2c9e10a96d",
          "blockNumber": "0x964ffe",
          "blockTimestamp": "0x6940ec0c",
          "transactionHash": "0x47d894bc63e31801dbaf30732c67d68614859a64f581aa33b31d8c52bffa2f33",
          "transactionIndex": "0x4a",
          "logIndex": "0x281",
          "removed": false
        }
      ],
      "logsBloom": "0x00000000000000001000000400000000004000000000000000000000000000000000000000000000000000100000000000000000000000000000000000200000000000010000000000000008000000000000000000100000000000000000002000000000000000000000000000000000000000000000000000000010000000000000000000000000000000000000000000000000000000000000000000000000020000000000002000000000000000000000000000000000000000001000000000000002000000000000000000000000000000000000000000000000000000000010400000000000000000000000000000000000000000000000001010000000",
      "type": "0x2",
      "transactionHash": "0x47d894bc63e31801dbaf30732c67d68614859a64f581aa33b31d8c52bffa2f33",
      "transactionIndex": "0x4a",
      "blockHash": "0xfcf139ce3e4c6ae38c7d07ab40d6eef6c7e7b151c43d120d53b3df2c9e10a96d",
      "blockNumber": "0x964ffe",
      "gasUsed": "0x162b2",
      "effectiveGasPrice": "0x1460e8",
      "from": "0xf93ee28f72069752a808bbf56f9db51952475ae0",
      "to": "0x47ce967eab4cca879a424ed5720424ae37bf9b0c",
      "contractAddress": null
    },
    {
      "status": "0x1",
      "cumulativeGasUsed": "0x116dcf2",
      "logs": [
        {
          "address": "0xbdbd81bedb050c054643356ebec720258b9ac81e",
          "topics": [
            "0x8c5be1e5ebec7d5bd14f71427d1e84f3dd0314c0f7b2291e5b200ac8c7c3b925",
            "0x000000000000000000000000f93ee28f72069752a808bbf56f9db51952475ae0",
            "0x00000000000000000000000047ce967eab4cca879a424ed5720424ae37bf9b0c"
          ],
          "data": "0x000000000000000000000000000000000000000000000000000000000001866e",
          "blockHash": "0xfcf139ce3e4c6ae38c7d07ab40d6eef6c7e7b151c43d120d53b3df2c9e10a96d",
          "blockNumber": "0x964ffe",
          "blockTimestamp": "0x6940ec0c",
          "transactionHash": "0x37bfc6931b5b118bc4c6ce9726977992c6545d16f0c874e7d04aeb595db89ebd",
          "transactionIndex": "0x4b",
          "logIndex": "0x282",
          "removed": false
        },
        {
          "address": "0xbdbd81bedb050c054643356ebec720258b9ac81e",
          "topics": [
            "0xddf252ad1be2c89b69c2b068fc378daa952ba7f163c4a11628f55a4df523b3ef",
            "0x000000000000000000000000f93ee28f72069752a808bbf56f9db51952475ae0",
            "0x00000000000000000000000047ce967eab4cca879a424ed5720424ae37bf9b0c"
          ],
          "data": "0x000000000000000000000000000000000000000000000000000000000000001e",
          "blockHash": "0xfcf139ce3e4c6ae38c7d07ab40d6eef6c7e7b151c43d120d53b3df2c9e10a96d",
          "blockNumber": "0x964ffe",
          "blockTimestamp": "0x6940ec0c",
          "transactionHash": "0x37bfc6931b5b118bc4c6ce9726977992c6545d16f0c874e7d04aeb595db89ebd",
          "transactionIndex": "0x4b",
          "logIndex": "0x283",
          "removed": false
        },
        {
          "address": "0x8f62248b1ab982578e0f59d19076c1bd9c0405f3",
          "topics": [
            "0x8c5be1e5ebec7d5bd14f71427d1e84f3dd0314c0f7b2291e5b200ac8c7c3b925",
            "0x00000000000000000000000047ce967eab4cca879a424ed5720424ae37bf9b0c",
            "0x00000000000000000000000047ce967eab4cca879a424ed5720424ae37bf9b0c"
          ],
          "data": "0x0000000000000000000000000000000000000000000000000000000000000029",
          "blockHash": "0xfcf139ce3e4c6ae38c7d07ab40d6eef6c7e7b151c43d120d53b3df2c9e10a96d",
          "blockNumber": "0x964ffe",
          "blockTimestamp": "0x6940ec0c",
          "transactionHash": "0x37bfc6931b5b118bc4c6ce9726977992c6545d16f0c874e7d04aeb595db89ebd",
          "transactionIndex": "0x4b",
          "logIndex": "0x284",
          "removed": false
        },
        {
          "address": "0x8f62248b1ab982578e0f59d19076c1bd9c0405f3",
          "topics": [
            "0x8c5be1e5ebec7d5bd14f71427d1e84f3dd0314c0f7b2291e5b200ac8c7c3b925",
            "0x00000000000000000000000047ce967eab4cca879a424ed5720424ae37bf9b0c",
            "0x00000000000000000000000047ce967eab4cca879a424ed5720424ae37bf9b0c"
          ],
          "data": "0x0000000000000000000000000000000000000000000000000000000000000000",
          "blockHash": "0xfcf139ce3e4c6ae38c7d07ab40d6eef6c7e7b151c43d120d53b3df2c9e10a96d",
          "blockNumber": "0x964ffe",
          "blockTimestamp": "0x6940ec0c",
          "transactionHash": "0x37bfc6931b5b118bc4c6ce9726977992c6545d16f0c874e7d04aeb595db89ebd",
          "transactionIndex": "0x4b",
          "logIndex": "0x285",
          "removed": false
        },
        {
          "address": "0x8f62248b1ab982578e0f59d19076c1bd9c0405f3",
          "topics": [
            "0xddf252ad1be2c89b69c2b068fc378daa952ba7f163c4a11628f55a4df523b3ef",
            "0x00000000000000000000000047ce967eab4cca879a424ed5720424ae37bf9b0c",
            "0x000000000000000000000000f93ee28f72069752a808bbf56f9db51952475ae0"
          ],
          "data": "0x0000000000000000000000000000000000000000000000000000000000000029",
          "blockHash": "0xfcf139ce3e4c6ae38c7d07ab40d6eef6c7e7b151c43d120d53b3df2c9e10a96d",
          "blockNumber": "0x964ffe",
          "blockTimestamp": "0x6940ec0c",
          "transactionHash": "0x37bfc6931b5b118bc4c6ce9726977992c6545d16f0c874e7d04aeb595db89ebd",
          "transactionIndex": "0x4b",
          "logIndex": "0x286",
          "removed": false
        }
      ],
      "logsBloom": "0x00000000000000001000000400000000004000000000000000000000000000000000000000000000000000100000000000000000000000000000000000200000000000010000000000000008000000000000000000100000000000000000002000000000000000000000000000000000000000000000000000000010000000000000000000000000000000000000000000000000000000000000000000000000020000000000002000000000000000000000000000000000000000001000000000000002000000000000000000000000000000000000000000000000000000000010400000000000000000000000000000000000000000000000001010000000",
      "type": "0x2",
      "transactionHash": "0x37bfc6931b5b118bc4c6ce9726977992c6545d16f0c874e7d04aeb595db89ebd",
      "transactionIndex": "0x4b",
      "blockHash": "0xfcf139ce3e4c6ae38c7d07ab40d6eef6c7e7b151c43d120d53b3df2c9e10a96d",
      "blockNumber": "0x964ffe",
      "gasUsed": "0x16330",
      "effectiveGasPrice": "0x1460e8",
      "from": "0xf93ee28f72069752a808bbf56f9db51952475ae0",
      "to": "0x47ce967eab4cca879a424ed5720424ae37bf9b0c",
      "contractAddress": null
    },
    {
      "status": "0x1",
      "cumulativeGasUsed": "0x1183fa4",
      "logs": [
        {
          "address": "0x8f62248b1ab982578e0f59d19076c1bd9c0405f3",
          "topics": [
            "0x8c5be1e5ebec7d5bd14f71427d1e84f3dd0314c0f7b2291e5b200ac8c7c3b925",
            "0x000000000000000000000000f93ee28f72069752a808bbf56f9db51952475ae0",
            "0x00000000000000000000000047ce967eab4cca879a424ed5720424ae37bf9b0c"
          ],
          "data": "0x0000000000000000000000000000000000000000000000000000000000018655",
          "blockHash": "0xfcf139ce3e4c6ae38c7d07ab40d6eef6c7e7b151c43d120d53b3df2c9e10a96d",
          "blockNumber": "0x964ffe",
          "blockTimestamp": "0x6940ec0c",
          "transactionHash": "0x299c74d5e5bf7630c9e042cc9f79a13f278662d6a66fc789d8eadefece9de979",
          "transactionIndex": "0x4c",
          "logIndex": "0x287",
          "removed": false
        },
        {
          "address": "0x8f62248b1ab982578e0f59d19076c1bd9c0405f3",
          "topics": [
            "0xddf252ad1be2c89b69c2b068fc378daa952ba7f163c4a11628f55a4df523b3ef",
            "0x000000000000000000000000f93ee28f72069752a808bbf56f9db51952475ae0",
            "0x00000000000000000000000047ce967eab4cca879a424ed5720424ae37bf9b0c"
          ],
          "data": "0x0000000000000000000000000000000000000000000000000000000000000029",
          "blockHash": "0xfcf139ce3e4c6ae38c7d07ab40d6eef6c7e7b151c43d120d53b3df2c9e10a96d",
          "blockNumber": "0x964ffe",
          "blockTimestamp": "0x6940ec0c",
          "transactionHash": "0x299c74d5e5bf7630c9e042cc9f79a13f278662d6a66fc789d8eadefece9de979",
          "transactionIndex": "0x4c",
          "logIndex": "0x288",
          "removed": false
        },
        {
          "address": "0xbdbd81bedb050c054643356ebec720258b9ac81e",
          "topics": [
            "0x8c5be1e5ebec7d5bd14f71427d1e84f3dd0314c0f7b2291e5b200ac8c7c3b925",
            "0x00000000000000000000000047ce967eab4cca879a424ed5720424ae37bf9b0c",
            "0x00000000000000000000000047ce967eab4cca879a424ed5720424ae37bf9b0c"
          ],
          "data": "0x0000000000000000000000000000000000000000000000000000000000000041",
          "blockHash": "0xfcf139ce3e4c6ae38c7d07ab40d6eef6c7e7b151c43d120d53b3df2c9e10a96d",
          "blockNumber": "0x964ffe",
          "blockTimestamp": "0x6940ec0c",
          "transactionHash": "0x299c74d5e5bf7630c9e042cc9f79a13f278662d6a66fc789d8eadefece9de979",
          "transactionIndex": "0x4c",
          "logIndex": "0x289",
          "removed": false
        },
        {
          "address": "0xbdbd81bedb050c054643356ebec720258b9ac81e",
          "topics": [
            "0x8c5be1e5ebec7d5bd14f71427d1e84f3dd0314c0f7b2291e5b200ac8c7c3b925",
            "0x00000000000000000000000047ce967eab4cca879a424ed5720424ae37bf9b0c",
            "0x00000000000000000000000047ce967eab4cca879a424ed5720424ae37bf9b0c"
          ],
          "data": "0x0000000000000000000000000000000000000000000000000000000000000000",
          "blockHash": "0xfcf139ce3e4c6ae38c7d07ab40d6eef6c7e7b151c43d120d53b3df2c9e10a96d",
          "blockNumber": "0x964ffe",
          "blockTimestamp": "0x6940ec0c",
          "transactionHash": "0x299c74d5e5bf7630c9e042cc9f79a13f278662d6a66fc789d8eadefece9de979",
          "transactionIndex": "0x4c",
          "logIndex": "0x28a",
          "removed": false
        },
        {
          "address": "0xbdbd81bedb050c054643356ebec720258b9ac81e",
          "topics": [
            "0xddf252ad1be2c89b69c2b068fc378daa952ba7f163c4a11628f55a4df523b3ef",
            "0x00000000000000000000000047ce967eab4cca879a424ed5720424ae37bf9b0c",
            "0x000000000000000000000000f93ee28f72069752a808bbf56f9db51952475ae0"
          ],
          "data": "0x0000000000000000000000000000000000000000000000000000000000000041",
          "blockHash": "0xfcf139ce3e4c6ae38c7d07ab40d6eef6c7e7b151c43d120d53b3df2c9e10a96d",
          "blockNumber": "0x964ffe",
          "blockTimestamp": "0x6940ec0c",
          "transactionHash": "0x299c74d5e5bf7630c9e042cc9f79a13f278662d6a66fc789d8eadefece9de979",
          "transactionIndex": "0x4c",
          "logIndex": "0x28b",
          "removed": false
        }
      ],
      "logsBloom": "0x00000000000000001000000400000000004000000000000000000000000000000000000000000000000000100000000000000000000000000000000000200000000000010000000000000008000000000000000000100000000000000000002000000000000000000000000000000000000000000000000000000010000000000000000000000000000000000000000000000000000000000000000000000000020000000000002000000000000000000000000000000000000000001000000000000002000000000000000000000000000000000000000000000000000000000010400000000000000000000000000000000000000000000000001010000000",
      "type": "0x2",
      "transactionHash": "0x299c74d5e5bf7630c9e042cc9f79a13f278662d6a66fc789d8eadefece9de979",
      "transactionIndex": "0x4c",
      "blockHash": "0xfcf139ce3e4c6ae38c7d07ab40d6eef6c7e7b151c43d120d53b3df2c9e10a96d",
      "blockNumber": "0x964ffe",
      "gasUsed": "0x162b2",
      "effectiveGasPrice": "0x1460e8",
      "from": "0xf93ee28f72069752a808bbf56f9db51952475ae0",
      "to": "0x47ce967eab4cca879a424ed5720424ae37bf9b0c",
      "contractAddress": null
    }
  ],
  "libraries": [],
  "pending": [],
  "returns": {},
  "timestamp": 1765862413685,
  "chain": 11155111,
  "commit": "cad00f2"
}