{
  "transactions": [
    {
      "hash": null,
      "transactionType": "CALL",
      "contractName": null,
      "contractAddress": "0x47ce967eab4cca879a424ed5720424ae37bf9b0c",
      "function": "approve(address,uint256)",
      "arguments": [
        "0x47cE967eAb4CCa879A424Ed5720424ae37bf9B0c",
        "100000"
      ],
      "transaction": {
        "from": "0xf93ee28f72069752a808bbf56f9db51952475ae0",
        "to": "0x47ce967eab4cca879a424ed5720424ae37bf9b0c",
        "gas": "0x10606",
        "value": "0x0",
        "input": "0x095ea7b300000000000000000000000047ce967eab4cca879a424ed5720424ae37bf9b0c00000000000000000000000000000000000000000000000000000000000186a0",
        "nonce": "0x98",
        "chainId": "0xaa36a7"
      },
      "additionalContracts": [],
      "isFixedGasLimit": false
    },
    {
      "hash": null,
      "transactionType": "CALL",
      "contractName": null,
      "contractAddress": "0x47ce967eab4cca879a424ed5720424ae37bf9b0c",
      "function": "swap(address,address,uint256)",
      "arguments": [
        "0x8f62248b1aB982578e0f59d19076c1bd9C0405f3",
        "0xbDbD81BEdB050C054643356ebEC720258B9ac81e",
        "0"
      ],
      "transaction": {
        "from": "0xf93ee28f72069752a808bbf56f9db51952475ae0",
        "to": "0x47ce967eab4cca879a424ed5720424ae37bf9b0c",
        "gas": "0x164ff",
        "value": "0x0",
        "input": "0xdf791e500000000000000000000000008f62248b1ab982578e0f59d19076c1bd9c0405f3000000000000000000000000bdbd81bedb050c054643356ebec720258b9ac81e0000000000000000000000000000000000000000000000000000000000000000",
        "nonce": "0x99",
        "chainId": "0xaa36a7"
      },
      "additionalContracts": [],
      "isFixedGasLimit": false
    },
    {
      "hash": null,
      "transactionType": "CALL",
      "contractName": null,
      "contractAddress": "0x47ce967eab4cca879a424ed5720424ae37bf9b0c",
      "function": "swap(address,address,uint256)",
      "arguments": [
        "0x8f62248b1aB982578e0f59d19076c1bd9C0405f3",
        "0xbDbD81BEdB050C054643356ebEC720258B9ac81e",
        "0"
      ],
      "transaction": {
        "from": "0xf93ee28f72069752a808bbf56f9db51952475ae0",
        "to": "0x47ce967eab4cca879a424ed5720424ae37bf9b0c",
        "gas": "0x164ff",
        "value": "0x0",
        "input": "0xdf791e500000000000000000000000008f62248b1ab982578e0f59d19076c1bd9c0405f3000000000000000000000000bdbd81bedb050c054643356ebec720258b9ac81e0000000000000000000000000000000000000000000000000000000000000000",
        "nonce": "0x9a",
        "chainId": "0xaa36a7"
      },
      "additionalContracts": [],
      "isFixedGasLimit": false
    },
    {
      "hash": null,
      "transactionType": "CALL",
      "contractName": null,
      "contractAddress": "0x47ce967eab4cca879a424ed5720424ae37bf9b0c",
      "function": "swap(address,address,uint256)",
      "arguments": [
        "0x8f62248b1aB982578e0f59d19076c1bd9C0405f3",
        "0xbDbD81BEdB050C054643356ebEC720258B9ac81e",
        "0"
      ],
      "transaction": {
        "from": "0xf93ee28f72069752a808bbf56f9db51952475ae0",
        "to": "0x47ce967eab4cca879a424ed5720424ae37bf9b0c",
        "gas": "0x164ff",
        "value": "0x0",
        "input": "0xdf791e500000000000000000000000008f62248b1ab982578e0f59d19076c1bd9c0405f3000000000000000000000000bdbd81bedb050c054643356ebec720258b9ac81e0000000000000000000000000000000000000000000000000000000000000000",
        "nonce": "0x9b",
        "chainId": "0xaa36a7"
      },
      "additionalContracts": [],
      "isFixedGasLimit": false
    },
    {
      "hash": null,
      "transactionType": "CALL",
      "contractName": null,
      "contractAddress": "0x47ce967eab4cca879a424ed5720424ae37bf9b0c",
      "function": "swap(address,address,uint256)",
      "arguments": [
        "0x8f62248b1aB982578e0f59d19076c1bd9C0405f3",
        "0xbDbD81BEdB050C054643356ebEC720258B9ac81e",
        "0"
      ],
      "transaction": {
        "from": "0xf93ee28f72069752a808bbf56f9db51952475ae0",
        "to": "0x47ce967eab4cca879a424ed5720424ae37bf9b0c",
        "gas": "0x164ff",
        "value": "0x0",
        "input": "0xdf791e500000000000000000000000008f62248b1ab982578e0f59d19076c1bd9c0405f3000000000000000000000000bdbd81bedb050c054643356ebec720258b9ac81e0000000000000000000000000000000000000000000000000000000000000000",
        "nonce": "0x9c",
        "chainId": "0xaa36a7"
      },
      "additionalContracts": [],
      "isFixedGasLimit": false
    },
    {
      "hash": null,
      "transactionType": "CALL",
      "contractName": null,
      "contractAddress": "0x47ce967eab4cca879a424ed5720424ae37bf9b0c",
      "function": "swap(address,address,uint256)",
      "arguments": [
        "0x8f62248b1aB982578e0f59d19076c1bd9C0405f3",
        "0xbDbD81BEdB050C054643356ebEC720258B9ac81e",
        "0"
      ],
      "transaction": {
        "from": "0xf93ee28f72069752a808bbf56f9db51952475ae0",
        "to": "0x47ce967eab4cca879a424ed5720424ae37bf9b0c",
        "gas": "0x164ff",
        "value": "0x0",
        "input": "0xdf791e500000000000000000000000008f62248b1ab982578e0f59d19076c1bd9c0405f3000000000000000000000000bdbd81bedb050c054643356ebec720258b9ac81e0000000000000000000000000000000000000000000000000000000000000000",
        "nonce": "0x9d",
        "chainId": "0xaa36a7"
      },
      "additionalContracts": [],
      "isFixedGasLimit": false
    },
    {
      "hash": null,
      "transactionType": "CALL",
      "contractName": null,
      "contractAddress": "0x47ce967eab4cca879a424ed5720424ae37bf9b0c",
      "function": "swap(address,address,uint256)",
      "arguments": [
        "0x8f62248b1aB982578e0f59d19076c1bd9C0405f3",
        "0xbDbD81BEdB050C054643356ebEC720258B9ac81e",
        "0"
      ],
      "transaction": {
        "from": "0xf93ee28f72069752a808bbf56f9db51952475ae0",
        "to": "0x47ce967eab4cca879a424ed5720424ae37bf9b0c",
        "gas": "0x164ff",
        "value": "0x0",
        "input": "0xdf791e500000000000000000000000008f62248b1ab982578e0f59d19076c1bd9c0405f3000000000000000000000000bdbd81bedb050c054643356ebec720258b9ac81e0000000000000000000000000000000000000000000000000000000000000000",
        "nonce": "0x9e",
        "chainId": "0xaa36a7"
      },
      "additionalContracts": [],
      "isFixedGasLimit": false
    },
    {
      "hash": null,
      "transactionType": "CALL",
      "contractName": null,
      "contractAddress": "0x47ce967eab4cca879a424ed5720424ae37bf9b0c",
      "function": "swap(address,address,uint256)",
      "arguments": [
        "0x8f62248b1aB982578e0f59d19076c1bd9C0405f3",
        "0xbDbD81BEdB050C054643356ebEC720258B9ac81e",
        "0"
      ],
      "transaction": {
        "from": "0xf93ee28f72069752a808bbf56f9db51952475ae0",
        "to": "0x47ce967eab4cca879a424ed5720424ae37bf9b0c",
        "gas": "0x164ff",
        "value": "0x0",
        "input": "0xdf791e500000000000000000000000008f62248b1ab982578e0f59d19076c1bd9c0405f3000000000000000000000000bdbd81bedb050c054643356ebec720258b9ac81e0000000000000000000000000000000000000000000000000000000000000000",
        "nonce": "0x9f",
        "chainId": "0xaa36a7"
      },
      "additionalContracts": [],
      "isFixedGasLimit": false
    },
    {
      "hash": null,
      "transactionType": "CALL",
      "contractName": null,
      "contractAddress": "0x47ce967eab4cca879a424ed5720424ae37bf9b0c",
      "function": "swap(address,address,uint256)",
      "arguments": [
        "0x8f62248b1aB982578e0f59d19076c1bd9C0405f3",
        "0xbDbD81BEdB050C054643356ebEC720258B9ac81e",
        "0"
      ],
      "transaction": {
        "from": "0xf93ee28f72069752a808bbf56f9db51952475ae0",
        "to": "0x47ce967eab4cca879a424ed5720424ae37bf9b0c",
        "gas": "0x164ff",
        "value": "0x0",
        "input": "0xdf791e500000000000000000000000008f62248b1ab982578e0f59d19076c1bd9c0405f3000000000000000000000000bdbd81bedb050c054643356ebec720258b9ac81e0000000000000000000000000000000000000000000000000000000000000000",
        "nonce": "0xa0",
        "chainId": "0xaa36a7"
      },
      "additionalContracts": [],
      "isFixedGasLimit": false
    },
    {
      "hash": null,
      "transactionType": "CALL",
      "contractName": null,
      "contractAddress": "0x47ce967eab4cca879a424ed5720424ae37bf9b0c",
      "function": "swap(address,address,uint256)",
      "arguments": [
        "0x8f62248b1aB982578e0f59d19076c1bd9C0405f3",
        "0xbDbD81BEdB050C054643356ebEC720258B9ac81e",
        "0"
      ],
      "transaction": {
        "from": "0xf93ee28f72069752a808bbf56f9db51952475ae0",
        "to": "0x47ce967eab4cca879a424ed5720424ae37bf9b0c",
        "gas": "0x164ff",
        "value": "0x0",
        "input": "0xdf791e500000000000000000000000008f62248b1ab982578e0f59d19076c1bd9c0405f3000000000000000000000000bdbd81bedb050c054643356ebec720258b9ac81e0000000000000000000000000000000000000000000000000000000000000000",
        "nonce": "0xa1",
        "chainId": "0xaa36a7"
      },
      "additionalContracts": [],
      "isFixedGasLimit": false
    },
    {
      "hash": null,
      "transactionType": "CALL",
      "contractName": null,
      "contractAddress": "0x47ce967eab4cca879a424ed5720424ae37bf9b0c",
      "function": "swap(address,address,uint256)",
      "arguments": [
        "0x8f62248b1aB982578e0f59d19076c1bd9C0405f3",
        "0xbDbD81BEdB050C054643356ebEC720258B9ac81e",
        "0"
      ],
      "transaction": {
        "from": "0xf93ee28f72069752a808bbf56f9db51952475ae0",
        "to": "0x47ce967eab4cca879a424ed5720424ae37bf9b0c",
        "gas": "0x164ff",
        "value": "0x0",
        "input": "0xdf791e500000000000000000000000008f62248b1ab982578e0f59d19076c1bd9c0405f3000000000000000000000000bdbd81bedb050c054643356ebec720258b9ac81e0000000000000000000000000000000000000000000000000000000000000000",
        "nonce": "0xa2",
        "chainId": "0xaa36a7"
      },
      "additionalContracts": [],
      "isFixedGasLimit": false
    },
    {
      "hash": null,
      "transactionType": "CALL",
      "contractName": null,
      "contractAddress": "0x47ce967eab4cca879a424ed5720424ae37bf9b0c",
      "function": "swap(address,address,uint256)",
      "arguments": [
        "0x8f62248b1aB982578e0f59d19076c1bd9C0405f3",
        "0xbDbD81BEdB050C054643356ebEC720258B9ac81e",
        "0"
      ],
      "transaction": {
        "from": "0xf93ee28f72069752a808bbf56f9db51952475ae0",
        "to": "0x47ce967eab4cca879a424ed5720424ae37bf9b0c",
        "gas": "0x164ff",
        "value": "0x0",
        "input": "0xdf791e500000000000000000000000008f62248b1ab982578e0f59d19076c1bd9c0405f3000000000000000000000000bdbd81bedb050c054643356ebec720258b9ac81e0000000000000000000000000000000000000000000000000000000000000000",
        "nonce": "0xa3",
        "chainId": "0xaa36a7"
      },
      "additionalContracts": [],
      "isFixedGasLimit": false
    },
    {
      "hash": null,
      "transactionType": "CALL",
      "contractName": null,
      "contractAddress": "0x47ce967eab4cca879a424ed5720424ae37bf9b0c",
      "function": "swap(address,address,uint256)",
      "arguments": [
        "0x8f62248b1aB982578e0f59d19076c1bd9C0405f3",
        "0xbDbD81BEdB050C054643356ebEC720258B9ac81e",
        "0"
      ],
      "transaction": {
        "from": "0xf93ee28f72069752a808bbf56f9db51952475ae0",
        "to": "0x47ce967eab4cca879a424ed5720424ae37bf9b0c",
        "gas": "0x164ff",
        "value": "0x0",
        "input": "0xdf791e500000000000000000000000008f62248b1ab982578e0f59d19076c1bd9c0405f3000000000000000000000000bdbd81bedb050c054643356ebec720258b9ac81e0000000000000000000000000000000000000000000000000000000000000000",
        "nonce": "0xa4",
        "chainId": "0xaa36a7"
      },
      "additionalContracts": [],
      "isFixedGasLimit": false
    },
    {
      "hash": null,
      "transactionType": "CALL",
      "contractName": null,
      "contractAddress": "0x47ce967eab4cca879a424ed5720424ae37bf9b0c",
      "function": "swap(address,address,uint256)",
      "arguments": [
        "0x8f62248b1aB982578e0f59d19076c1bd9C0405f3",
        "0xbDbD81BEdB050C054643356ebEC720258B9ac81e",
        "0"
      ],
      "transaction": {
        "from": "0xf93ee28f72069752a808bbf56f9db51952475ae0",
        "to": "0x47ce967eab4cca879a424ed5720424ae37bf9b0c",
        "gas": "0x164ff",
        "value": "0x0",
        "input": "0xdf791e500000000000000000000000008f62248b1ab982578e0f59d19076c1bd9c0405f3000000000000000000000000bdbd81bedb050c054643356ebec720258b9ac81e0000000000000000000000000000000000000000000000000000000000000000",
        "nonce": "0xa5",
        "chainId": "0xaa36a7"
      },
      "additionalContracts": [],
      "isFixedGasLimit": false
    },
    {
      "hash": null,
      "transactionType": "CALL",
      "contractName": null,
      "contractAddress": "0x47ce967eab4cca879a424ed5720424ae37bf9b0c",
      "function": "swap(address,address,uint256)",
      "arguments": [
        "0x8f62248b1aB982578e0f59d19076c1bd9C0405f3",
        "0xbDbD81BEdB050C054643356ebEC720258B9ac81e",
        "0"
      ],
      "transaction": {
        "from": "0xf93ee28f72069752a808bbf56f9db51952475ae0",
        "to": "0x47ce967eab4cca879a424ed5720424ae37bf9b0c",
        "gas": "0x164ff",
        "value": "0x0",
        "input": "0xdf791e500000000000000000000000008f62248b1ab982578e0f59d19076c1bd9c0405f3000000000000000000000000bdbd81bedb050c054643356ebec720258b9ac81e0000000000000000000000000000000000000000000000000000000000000000",
        "nonce": "0xa6",
        "chainId": "0xaa36a7"
      },
      "additionalContracts": [],
      "isFixedGasLimit": false
    },
    {
      "hash": null,
      "transactionType": "CALL",
      "contractName": null,
      "contractAddress": "0x47ce967eab4cca879a424ed5720424ae37bf9b0c",
      "function": "swap(address,address,uint256)",
      "arguments": [
        "0x8f62248b1aB982578e0f59d19076c1bd9C0405f3",
        "0xbDbD81BEdB050C054643356ebEC720258B9ac81e",
        "0"
      ],
      "transaction": {
        "from": "0xf93ee28f72069752a808bbf56f9db51952475ae0",
        "to": "0x47ce967eab4cca879a424ed5720424ae37bf9b0c",
        "gas": "0x164ff",
        "value": "0x0",
        "input": "0xdf791e500000000000000000000000008f62248b1ab982578e0f59d19076c1bd9c0405f3000000000000000000000000bdbd81bedb050c054643356ebec720258b9ac81e0000000000000000000000000000000000000000000000000000000000000000",
        "nonce": "0xa7",
        "chainId": "0xaa36a7"
      },
      "additionalContracts": [],
      "isFixedGasLimit": false
    },
    {
      "hash": null,
      "transactionType": "CALL",
      "contractName": null,
      "contractAddress": "0x47ce967eab4cca879a424ed5720424ae37bf9b0c",
      "function": "swap(address,address,uint256)",
      "arguments": [
        "0x8f62248b1aB982578e0f59d19076c1bd9C0405f3",
        "0xbDbD81BEdB050C054643356ebEC720258B9ac81e",
        "0"
      ],
      "transaction": {
        "from": "0xf93ee28f72069752a808bbf56f9db51952475ae0",
        "to": "0x47ce967eab4cca879a424ed5720424ae37bf9b0c",
        "gas": "0x164ff",
        "value": "0x0",
        "input": "0xdf791e500000000000000000000000008f62248b1ab982578e0f59d19076c1bd9c0405f3000000000000000000000000bdbd81bedb050c054643356ebec720258b9ac81e0000000000000000000000000000000000000000000000000000000000000000",
        "nonce": "0xa8",
        "chainId": "0xaa36a7"
      },
      "additionalContracts": [],
      "isFixedGasLimit": false
    },
    {
      "hash": null,
      "transactionType": "CALL",
      "contractName": null,
      "contractAddress": "0x47ce967eab4cca879a424ed5720424ae37bf9b0c",
      "function": "swap(address,address,uint256)",
      "arguments": [
        "0x8f62248b1aB982578e0f59d19076c1bd9C0405f3",
        "0xbDbD81BEdB050C054643356ebEC720258B9ac81e",
        "0"
      ],
      "transaction": {
        "from": "0xf93ee28f72069752a808bbf56f9db51952475ae0",
        "to": "0x47ce967eab4cca879a424ed5720424ae37bf9b0c",
        "gas": "0x164ff",
        "value": "0x0",
        "input": "0xdf791e500000000000000000000000008f62248b1ab982578e0f59d19076c1bd9c0405f3000000000000000000000000bdbd81bedb050c054643356ebec720258b9ac81e0000000000000000000000000000000000000000000000000000000000000000",
        "nonce": "0xa9",
        "chainId": "0xaa36a7"
      },
      "additionalContracts": [],
      "isFixedGasLimit": false
    },
    {
      "hash": null,
      "transactionType": "CALL",
      "contractName": null,
      "contractAddress": "0x47ce967eab4cca879a424ed5720424ae37bf9b0c",
      "function": "swap(address,address,uint256)",
      "arguments": [
        "0x8f62248b1aB982578e0f59d19076c1bd9C0405f3",
        "0xbDbD81BEdB050C054643356ebEC720258B9ac81e",
        "0"
      ],
      "transaction": {
        "from": "0xf93ee28f72069752a808bbf56f9db51952475ae0",
        "to": "0x47ce967eab4cca879a424ed5720424ae37bf9b0c",
        "gas": "0x164ff",
        "value": "0x0",
        "input": "0xdf791e500000000000000000000000008f62248b1ab982578e0f59d19076c1bd9c0405f3000000000000000000000000bdbd81bedb050c054643356ebec720258b9ac81e0000000000000000000000000000000000000000000000000000000000000000",
        "nonce": "0xaa",
        "chainId": "0xaa36a7"
      },
      "additionalContracts": [],
      "isFixedGasLimit": false
    },
    {
      "hash": null,
      "transactionType": "CALL",
      "contractName": null,
      "contractAddress": "0x47ce967eab4cca879a424ed5720424ae37bf9b0c",
      "function": "swap(address,address,uint256)",
      "arguments": [
        "0x8f62248b1aB982578e0f59d19076c1bd9C0405f3",
        "0xbDbD81BEdB050C054643356ebEC720258B9ac81e",
        "0"
      ],
      "transaction": {
        "from": "0xf93ee28f72069752a808bbf56f9db51952475ae0",
        "to": "0x47ce967eab4cca879a424ed5720424ae37bf9b0c",
        "gas": "0x164ff",
        "value": "0x0",
        "input": "0xdf791e500000000000000000000000008f62248b1ab982578e0f59d19076c1bd9c0405f3000000000000000000000000bdbd81bedb050c054643356ebec720258b9ac81e0000000000000000000000000000000000000000000000000000000000000000",
        "nonce": "0xab",
        "chainId": "0xaa36a7"
      },
      "additionalContracts": [],
      "isFixedGasLimit": false
    },
    {
      "hash": null,
      "transactionType": "CALL",
      "contractName": null,
      "contractAddress": "0x47ce967eab4cca879a424ed5720424ae37bf9b0c",
      "function": "swap(address,address,uint256)",
      "arguments": [
        "0x8f62248b1aB982578e0f59d19076c1bd9C0405f3",
        "0xbDbD81BEdB050C054643356ebEC720258B9ac81e",
        "0"
      ],
      "transaction": {
        "from": "0xf93ee28f72069752a808bbf56f9db51952475ae0",
        "to": "0x47ce967eab4cca879a424ed5720424ae37bf9b0c",
        "gas": "0x164ff",
        "value": "0x0",
        "input": "0xdf791e500000000000000000000000008f62248b1ab982578e0f59d19076c1bd9c0405f3000000000000000000000000bdbd81bedb050c054643356ebec720258b9ac81e0000000000000000000000000000000000000000000000000000000000000000",
        "nonce": "0xac",
        "chainId": "0xaa36a7"
      },
      "additionalContracts": [],
      "isFixedGasLimit": false
    },
    {
      "hash": null,
      "transactionType": "CALL",
      "contractName": null,
      "contractAddress": "0x47ce967eab4cca879a424ed5720424ae37bf9b0c",
      "function": "swap(address,address,uint256)",
      "arguments": [
        "0x8f62248b1aB982578e0f59d19076c1bd9C0405f3",
        "0xbDbD81BEdB050C054643356ebEC720258B9ac81e",
        "0"
      ],
      "transaction": {
        "from": "0xf93ee28f72069752a808bbf56f9db51952475ae0",
        "to": "0x47ce967eab4cca879a424ed5720424ae37bf9b0c",
        "gas": "0x164ff",
        "value": "0x0",
        "input": "0xdf791e500000000000000000000000008f62248b1ab982578e0f59d19076c1bd9c0405f3000000000000000000000000bdbd81bedb050c054643356ebec720258b9ac81e0000000000000000000000000000000000000000000000000000000000000000",
        "nonce": "0xad",
        "chainId": "0xaa36a7"
      },
      "additionalContracts": [],
      "isFixedGasLimit": false
    },
    {
      "hash": null,
      "transactionType": "CALL",
      "contractName": null,
      "contractAddress": "0x47ce967eab4cca879a424ed5720424ae37bf9b0c",
      "function": "swap(address,address,uint256)",
      "arguments": [
        "0x8f62248b1aB982578e0f59d19076c1bd9C0405f3",
        "0xbDbD81BEdB050C054643356ebEC720258B9ac81e",
        "0"
      ],
      "transaction": {
        "from": "0xf93ee28f72069752a808bbf56f9db51952475ae0",
        "to": "0x47ce967eab4cca879a424ed5720424ae37bf9b0c",
        "gas": "0x164ff",
        "value": "0x0",
        "input": "0xdf791e500000000000000000000000008f62248b1ab982578e0f59d19076c1bd9c0405f3000000000000000000000000bdbd81bedb050c054643356ebec720258b9ac81e0000000000000000000000000000000000000000000000000000000000000000",
        "nonce": "0xae",
        "chainId": "0xaa36a7"
      },
      "additionalContracts": [],
      "isFixedGasLimit": false
    },
    {
      "hash": null,
      "transactionType": "CALL",
      "contractName": null,
      "contractAddress": "0x47ce967eab4cca879a424ed5720424ae37bf9b0c",
      "function": "swap(address,address,uint256)",
      "arguments": [
        "0x8f62248b1aB982578e0f59d19076c1bd9C0405f3",
        "0xbDbD81BEdB050C054643356ebEC720258B9ac81e",
        "0"
      ],
      "transaction": {
        "from": "0xf93ee28f72069752a808bbf56f9db51952475ae0",
        "to": "0x47ce967eab4cca879a424ed5720424ae37bf9b0c",
        "gas": "0x164ff",
        "value": "0x0",
        "input": "0xdf791e500000000000000000000000008f62248b1ab982578e0f59d19076c1bd9c0405f3000000000000000000000000bdbd81bedb050c054643356ebec720258b9ac81e0000000000000000000000000000000000000000000000000000000000000000",
        "nonce": "0xaf",
        "chainId": "0xaa36a7"
      },
      "additionalContracts": [],
      "isFixedGasLimit": false
    },
    {
      "hash": null,
      "transactionType": "CALL",
      "contractName": null,
      "contractAddress": "0x47ce967eab4cca879a424ed5720424ae37bf9b0c",
      "function": "swap(address,address,uint256)",
      "arguments": [
        "0x8f62248b1aB982578e0f59d19076c1bd9C0405f3",
        "0xbDbD81BEdB050C054643356ebEC720258B9ac81e",
        "0"
      ],
      "transaction": {
        "from": "0xf93ee28f72069752a808bbf56f9db51952475ae0",
        "to": "0x47ce967eab4cca879a424ed5720424ae37bf9b0c",
        "gas": "0x164ff",
        "value": "0x0",
        "input": "0xdf791e500000000000000000000000008f62248b1ab982578e0f59d19076c1bd9c0405f3000000000000000000000000bdbd81bedb050c054643356ebec720258b9ac81e0000000000000000000000000000000000000000000000000000000000000000",
        "nonce": "0xb0",
        "chainId": "0xaa36a7"
      },
      "additionalContracts": [],
      "isFixedGasLimit": false
    },
    {
      "hash": null,
      "transactionType": "CALL",
      "contractName": null,
      "contractAddress": "0x47ce967eab4cca879a424ed5720424ae37bf9b0c",
      "function": "swap(address,address,uint256)",
      "arguments": [
        "0x8f62248b1aB982578e0f59d19076c1bd9C0405f3",
        "0xbDbD81BEdB050C054643356ebEC720258B9ac81e",
        "0"
      ],
      "transaction": {
        "from": "0xf93ee28f72069752a808bbf56f9db51952475ae0",
        "to": "0x47ce967eab4cca879a424ed5720424ae37bf9b0c",
        "gas": "0x164ff",
        "value": "0x0",
        "input": "0xdf791e500000000000000000000000008f62248b1ab982578e0f59d19076c1bd9c0405f3000000000000000000000000bdbd81bedb050c054643356ebec720258b9ac81e0000000000000000000000000000000000000000000000000000000000000000",
        "nonce": "0xb1",
        "chainId": "0xaa36a7"
      },
      "additionalContracts": [],
      "isFixedGasLimit": false
    },
    {
      "hash": null,
      "transactionType": "CALL",
      "contractName": null,
      "contractAddress": "0x47ce967eab4cca879a424ed5720424ae37bf9b0c",
      "function": "swap(address,address,uint256)",
      "arguments": [
        "0x8f62248b1aB982578e0f59d19076c1bd9C0405f3",
        "0xbDbD81BEdB050C054643356ebEC720258B9ac81e",
        "0"
      ],
      "transaction": {
        "from": "0xf93ee28f72069752a808bbf56f9db51952475ae0",
        "to": "0x47ce967eab4cca879a424ed5720424ae37bf9b0c",
        "gas": "0x164ff",
        "value": "0x0",
        "input": "0xdf791e500000000000000000000000008f62248b1ab982578e0f59d19076c1bd9c0405f3000000000000000000000000bdbd81bedb050c054643356ebec720258b9ac81e0000000000000000000000000000000000000000000000000000000000000000",
        "nonce": "0xb2",
        "chainId": "0xaa36a7"
      },
      "additionalContracts": [],
      "isFixedGasLimit": false
    },
    {
      "hash": null,
      "transactionType": "CALL",
      "contractName": null,
      "contractAddress": "0x47ce967eab4cca879a424ed5720424ae37bf9b0c",
      "function": "swap(address,address,uint256)",
      "arguments": [
        "0x8f62248b1aB982578e0f59d19076c1bd9C0405f3",
        "0xbDbD81BEdB050C054643356ebEC720258B9ac81e",
        "0"
      ],
      "transaction": {
        "from": "0xf93ee28f72069752a808bbf56f9db51952475ae0",
        "to": "0x47ce967eab4cca879a424ed5720424ae37bf9b0c",
        "gas": "0x164ff",
        "value": "0x0",
        "input": "0xdf791e500000000000000000000000008f62248b1ab982578e0f59d19076c1bd9c0405f3000000000000000000000000bdbd81bedb050c054643356ebec720258b9ac81e0000000000000000000000000000000000000000000000000000000000000000",
        "nonce": "0xb3",
        "chainId": "0xaa36a7"
      },
      "additionalContracts": [],
      "isFixedGasLimit": false
    },
    {
      "hash": null,
      "transactionType": "CALL",
      "contractName": null,
      "contractAddress": "0x47ce967eab4cca879a424ed5720424ae37bf9b0c",
      "function": "swap(address,address,uint256)",
      "arguments": [
        "0x8f62248b1aB982578e0f59d19076c1bd9C0405f3",
        "0xbDbD81BEdB050C054643356ebEC720258B9ac81e",
        "0"
      ],
      "transaction": {
        "from": "0xf93ee28f72069752a808bbf56f9db51952475ae0",
        "to": "0x47ce967eab4cca879a424ed5720424ae37bf9b0c",
        "gas": "0x164ff",
        "value": "0x0",
        "input": "0xdf791e500000000000000000000000008f62248b1ab982578e0f59d19076c1bd9c0405f3000000000000000000000000bdbd81bedb050c054643356ebec720258b9ac81e0000000000000000000000000000000000000000000000000000000000000000",
        "nonce": "0xb4",
        "chainId": "0xaa36a7"
      },
      "additionalContracts": [],
      "isFixedGasLimit": false
    },
    {
      "hash": null,
      "transactionType": "CALL",
      "contractName": null,
      "contractAddress": "0x47ce967eab4cca879a424ed5720424ae37bf9b0c",
      "function": "swap(address,address,uint256)",
      "arguments": [
        "0x8f62248b1aB982578e0f59d19076c1bd9C0405f3",
        "0xbDbD81BEdB050C054643356ebEC720258B9ac81e",
        "0"
      ],
      "transaction": {
        "from": "0xf93ee28f72069752a808bbf56f9db51952475ae0",
        "to": "0x47ce967eab4cca879a424ed5720424ae37bf9b0c",
        "gas": "0x164ff",
        "value": "0x0",
        "input": "0xdf791e500000000000000000000000008f62248b1ab982578e0f59d19076c1bd9c0405f3000000000000000000000000bdbd81bedb050c054643356ebec720258b9ac81e0000000000000000000000000000000000000000000000000000000000000000",
        "nonce": "0xb5",
        "chainId": "0xaa36a7"
      },
      "additionalContracts": [],
      "isFixedGasLimit": false
    },
    {
      "hash": null,
      "transactionType": "CALL",
      "contractName": null,
      "contractAddress": "0x47ce967eab4cca879a424ed5720424ae37bf9b0c",
      "function": "swap(address,address,uint256)",
      "arguments": [
        "0x8f62248b1aB982578e0f59d19076c1bd9C0405f3",
        "0xbDbD81BEdB050C054643356ebEC720258B9ac81e",
        "0"
      ],
      "transaction": {
        "from": "0xf93ee28f72069752a808bbf56f9db51952475ae0",
        "to": "0x47ce967eab4cca879a424ed5720424ae37bf9b0c",
        "gas": "0x164ff",
        "value": "0x0",
        "input": "0xdf791e500000000000000000000000008f62248b1ab982578e0f59d19076c1bd9c0405f3000000000000000000000000bdbd81bedb050c054643356ebec720258b9ac81e0000000000000000000000000000000000000000000000000000000000000000",
        "nonce": "0xb6",
        "chainId": "0xaa36a7"
      },
      "additionalContracts": [],
      "isFixedGasLimit": false
    },
    {
      "hash": null,
      "transactionType": "CALL",
      "contractName": null,
      "contractAddress": "0x47ce967eab4cca879a424ed5720424ae37bf9b0c",
      "function": "swap(address,address,uint256)",
      "arguments": [
        "0x8f62248b1aB982578e0f59d19076c1bd9C0405f3",
        "0xbDbD81BEdB050C054643356ebEC720258B9ac81e",
        "0"
      ],
      "transaction": {
        "from": "0xf93ee28f72069752a808bbf56f9db51952475ae0",
        "to": "0x47ce967eab4cca879a424ed5720424ae37bf9b0c",
        "gas": "0x164ff",
        "value": "0x0",
        "input": "0xdf791e500000000000000000000000008f62248b1ab982578e0f59d19076c1bd9c0405f3000000000000000000000000bdbd81bedb050c054643356ebec720258b9ac81e0000000000000000000000000000000000000000000000000000000000000000",
        "nonce": "0xb7",
        "chainId": "0xaa36a7"
      },
      "additionalContracts": [],
      "isFixedGasLimit": false
    },
    {
      "hash": null,
      "transactionType": "CALL",
      "contractName": null,
      "contractAddress": "0x47ce967eab4cca879a424ed5720424ae37bf9b0c",
      "function": "swap(address,address,uint256)",
      "arguments": [
        "0x8f62248b1aB982578e0f59d19076c1bd9C0405f3",
        "0xbDbD81BEdB050C054643356ebEC720258B9ac81e",
        "0"
      ],
      "transaction": {
        "from": "0xf93ee28f72069752a808bbf56f9db51952475ae0",
        "to": "0x47ce967eab4cca879a424ed5720424ae37bf9b0c",
        "gas": "0x164ff",
        "value": "0x0",
        "input": "0xdf791e500000000000000000000000008f62248b1ab982578e0f59d19076c1bd9c0405f3000000000000000000000000bdbd81bedb050c054643356ebec720258b9ac81e0000000000000000000000000000000000000000000000000000000000000000",
        "nonce": "0xb8",
        "chainId": "0xaa36a7"
      },
      "additionalContracts": [],
      "isFixedGasLimit": false
    },
    {
      "hash": null,
      "transactionType": "CALL",
      "contractName": null,
      "contractAddress": "0x47ce967eab4cca879a424ed5720424ae37bf9b0c",
      "function": "swap(address,address,uint256)",
      "arguments": [
        "0x8f62248b1aB982578e0f59d19076c1bd9C0405f3",
        "0xbDbD81BEdB050C054643356ebEC720258B9ac81e",
        "0"
      ],
      "transaction": {
        "from": "0xf93ee28f72069752a808bbf56f9db51952475ae0",
        "to": "0x47ce967eab4cca879a424ed5720424ae37bf9b0c",
        "gas": "0x164ff",
        "value": "0x0",
        "input": "0xdf791e500000000000000000000000008f62248b1ab982578e0f59d19076c1bd9c0405f3000000000000000000000000bdbd81bedb050c054643356ebec720258b9ac81e0000000000000000000000000000000000000000000000000000000000000000",
        "nonce": "0xb9",
        "chainId": "0xaa36a7"
      },
      "additionalContracts": [],
      "isFixedGasLimit": false
    },
    {
      "hash": null,
      "transactionType": "CALL",
      "contractName": null,
      "contractAddress": "0x47ce967eab4cca879a424ed5720424ae37bf9b0c",
      "function": "swap(address,address,uint256)",
      "arguments": [
        "0x8f62248b1aB982578e0f59d19076c1bd9C0405f3",
        "0xbDbD81BEdB050C054643356ebEC720258B9ac81e",
        "0"
      ],
      "transaction": {
        "from": "0xf93ee28f72069752a808bbf56f9db51952475ae0",
        "to": "0x47ce967eab4cca879a424ed5720424ae37bf9b0c",
        "gas": "0x164ff",
        "value": "0x0",
        "input": "0xdf791e500000000000000000000000008f62248b1ab982578e0f59d19076c1bd9c0405f3000000000000000000000000bdbd81bedb050c054643356ebec720258b9ac81e0000000000000000000000000000000000000000000000000000000000000000",
        "nonce": "0xba",
        "chainId": "0xaa36a7"
      },
      "additionalContracts": [],
      "isFixedGasLimit": false
    },
    {
      "hash": null,
      "transactionType": "CALL",
      "contractName": null,
      "contractAddress": "0x47ce967eab4cca879a424ed5720424ae37bf9b0c",
      "function": "swap(address,address,uint256)",
      "arguments": [
        "0x8f62248b1aB982578e0f59d19076c1bd9C0405f3",
        "0xbDbD81BEdB050C054643356ebEC720258B9ac81e",
        "0"
      ],
      "transaction": {
        "from": "0xf93ee28f72069752a808bbf56f9db51952475ae0",
        "to": "0x47ce967eab4cca879a424ed5720424ae37bf9b0c",
        "gas": "0x164ff",
        "value": "0x0",
        "input": "0xdf791e500000000000000000000000008f62248b1ab982578e0f59d19076c1bd9c0405f3000000000000000000000000bdbd81bedb050c054643356ebec720258b9ac81e0000000000000000000000000000000000000000000000000000000000000000",
        "nonce": "0xbb",
        "chainId": "0xaa36a7"
      },
      "additionalContracts": [],
      "isFixedGasLimit": false
    },
    {
      "hash": null,
      "transactionType": "CALL",
      "contractName": null,
      "contractAddress": "0x47ce967eab4cca879a424ed5720424ae37bf9b0c",
      "function": "swap(address,address,uint256)",
      "arguments": [
        "0x8f62248b1aB982578e0f59d19076c1bd9C0405f3",
        "0xbDbD81BEdB050C054643356ebEC720258B9ac81e",
        "0"
      ],
      "transaction": {
        "from": "0xf93ee28f72069752a808bbf56f9db51952475ae0",
        "to": "0x47ce967eab4cca879a424ed5720424ae37bf9b0c",
        "gas": "0x164ff",
        "value": "0x0",
        "input": "0xdf791e500000000000000000000000008f62248b1ab982578e0f59d19076c1bd9c0405f3000000000000000000000000bdbd81bedb050c054643356ebec720258b9ac81e0000000000000000000000000000000000000000000000000000000000000000",
        "nonce": "0xbc",
        "chainId": "0xaa36a7"
      },
      "additionalContracts": [],
      "isFixedGasLimit": false
    },
    {
      "hash": null,
      "transactionType": "CALL",
      "contractName": null,
      "contractAddress": "0x47ce967eab4cca879a424ed5720424ae37bf9b0c",
      "function": "swap(address,address,uint256)",
      "arguments": [
        "0x8f62248b1aB982578e0f59d19076c1bd9C0405f3",
        "0xbDbD81BEdB050C054643356ebEC720258B9ac81e",
        "0"
      ],
      "transaction": {
        "from": "0xf93ee28f72069752a808bbf56f9db51952475ae0",
        "to": "0x47ce967eab4cca879a424ed5720424ae37bf9b0c",
        "gas": "0x164ff",
        "value": "0x0",
        "input": "0xdf791e500000000000000000000000008f62248b1ab982578e0f59d19076c1bd9c0405f3000000000000000000000000bdbd81bedb050c054643356ebec720258b9ac81e0000000000000000000000000000000000000000000000000000000000000000",
        "nonce": "0xbd",
        "chainId": "0xaa36a7"
      },
      "additionalContracts": [],
      "isFixedGasLimit": false
    },
    {
      "hash": null,
      "transactionType": "CALL",
      "contractName": null,
      "contractAddress": "0x47ce967eab4cca879a424ed5720424ae37bf9b0c",
      "function": "swap(address,address,uint256)",
      "arguments": [
        "0x8f62248b1aB982578e0f59d19076c1bd9C0405f3",
        "0xbDbD81BEdB050C054643356ebEC720258B9ac81e",
        "0"
      ],
      "transaction": {
        "from": "0xf93ee28f72069752a808bbf56f9db51952475ae0",
        "to": "0x47ce967eab4cca879a424ed5720424ae37bf9b0c",
        "gas": "0x164ff",
        "value": "0x0",
        "input": "0xdf791e500000000000000000000000008f62248b1ab982578e0f59d19076c1bd9c0405f3000000000000000000000000bdbd81bedb050c054643356ebec720258b9ac81e0000000000000000000000000000000000000000000000000000000000000000",
        "nonce": "0xbe",
        "chainId": "0xaa36a7"
      },
      "additionalContracts": [],
      "isFixedGasLimit": false
    },
    {
      "hash": null,
      "transactionType": "CALL",
      "contractName": null,
      "contractAddress": "0x47ce967eab4cca879a424ed5720424ae37bf9b0c",
      "function": "swap(address,address,uint256)",
      "arguments": [
        "0x8f62248b1aB982578e0f59d19076c1bd9C0405f3",
        "0xbDbD81BEdB050C054643356ebEC720258B9ac81e",
        "0"
      ],
      "transaction": {
        "from": "0xf93ee28f72069752a808bbf56f9db51952475ae0",
        "to": "0x47ce967eab4cca879a424ed5720424ae37bf9b0c",
        "gas": "0x164ff",
        "value": "0x0",
        "input": "0xdf791e500000000000000000000000008f62248b1ab982578e0f59d19076c1bd9c0405f3000000000000000000000000bdbd81bedb050c054643356ebec720258b9ac81e0000000000000000000000000000000000000000000000000000000000000000",
        "nonce": "0xbf",
        "chainId": "0xaa36a7"
      },
      "additionalContracts": [],
      "isFixedGasLimit": false
    },
    {
      "hash": null,
      "transactionType": "CALL",
      "contractName": null,
      "contractAddress": "0x47ce967eab4cca879a424ed5720424ae37bf9b0c",
      "function": "swap(address,address,uint256)",
      "arguments": [
        "0x8f62248b1aB982578e0f59d19076c1bd9C0405f3",
        "0xbDbD81BEdB050C054643356ebEC720258B9ac81e",
        "0"
      ],
      "transaction": {
        "from": "0xf93ee28f72069752a808bbf56f9db51952475ae0",
        "to": "0x47ce967eab4cca879a424ed5720424ae37bf9b0c",
        "gas": "0x164ff",
        "value": "0x0",
        "input": "0xdf791e500000000000000000000000008f62248b1ab982578e0f59d19076c1bd9c0405f3000000000000000000000000bdbd81bedb050c054643356ebec720258b9ac81e0000000000000000000000000000000000000000000000000000000000000000",
        "nonce": "0xc0",
        "chainId": "0xaa36a7"
      },
      "additionalContracts": [],
      "isFixedGasLimit": false
    },
    {
      "hash": null,
      "transactionType": "CALL",
      "contractName": null,
      "contractAddress": "0x47ce967eab4cca879a424ed5720424ae37bf9b0c",
      "function": "swap(address,address,uint256)",
      "arguments": [
        "0x8f62248b1aB982578e0f59d19076c1bd9C0405f3",
        "0xbDbD81BEdB050C054643356ebEC720258B9ac81e",
        "0"
      ],
      "transaction": {
        "from": "0xf93ee28f72069752a808bbf56f9db51952475ae0",
        "to": "0x47ce967eab4cca879a424ed5720424ae37bf9b0c",
        "gas": "0x164ff",
        "value": "0x0",
        "input": "0xdf791e500000000000000000000000008f62248b1ab982578e0f59d19076c1bd9c0405f3000000000000000000000000bdbd81bedb050c054643356ebec720258b9ac81e0000000000000000000000000000000000000000000000000000000000000000",
        "nonce": "0xc1",
        "chainId": "0xaa36a7"
      },
      "additionalContracts": [],
      "isFixedGasLimit": false
    },
    {
      "hash": null,
      "transactionType": "CALL",
      "contractName": null,
      "contractAddress": "0x47ce967eab4cca879a424ed5720424ae37bf9b0c",
      "function": "swap(address,address,uint256)",
      "arguments": [
        "0x8f62248b1aB982578e0f59d19076c1bd9C0405f3",
        "0xbDbD81BEdB050C054643356ebEC720258B9ac81e",
        "0"
      ],
      "transaction": {
        "from": "0xf93ee28f72069752a808bbf56f9db51952475ae0",
        "to": "0x47ce967eab4cca879a424ed5720424ae37bf9b0c",
        "gas": "0x164ff",
        "value": "0x0",
        "input": "0xdf791e500000000000000000000000008f62248b1ab982578e0f59d19076c1bd9c0405f3000000000000000000000000bdbd81bedb050c054643356ebec720258b9ac81e0000000000000000000000000000000000000000000000000000000000000000",
        "nonce": "0xc2",
        "chainId": "0xaa36a7"
      },
      "additionalContracts": [],
      "isFixedGasLimit": false
    },
    {
      "hash": null,
      "transactionType": "CALL",
      "contractName": null,
      "contractAddress": "0x47ce967eab4cca879a424ed5720424ae37bf9b0c",
      "function": "swap(address,address,uint256)",
      "arguments": [
        "0x8f62248b1aB982578e0f59d19076c1bd9C0405f3",
        "0xbDbD81BEdB050C054643356ebEC720258B9ac81e",
        "0"
      ],
      "transaction": {
        "from": "0xf93ee28f72069752a808bbf56f9db51952475ae0",
        "to": "0x47ce967eab4cca879a424ed5720424ae37bf9b0c",
        "gas": "0x164ff",
        "value": "0x0",
        "input": "0xdf791e500000000000000000000000008f62248b1ab982578e0f59d19076c1bd9c0405f3000000000000000000000000bdbd81bedb050c054643356ebec720258b9ac81e0000000000000000000000000000000000000000000000000000000000000000",
        "nonce": "0xc3",
        "chainId": "0xaa36a7"
      },
      "additionalContracts": [],
      "isFixedGasLimit": false
    },
    {
      "hash": null,
      "transactionType": "CALL",
      "contractName": null,
      "contractAddress": "0x47ce967eab4cca879a424ed5720424ae37bf9b0c",
      "function": "swap(address,address,uint256)",
      "arguments": [
        "0x8f62248b1aB982578e0f59d19076c1bd9C0405f3",
        "0xbDbD81BEdB050C054643356ebEC720258B9ac81e",
        "0"
      ],
      "transaction": {
        "from": "0xf93ee28f72069752a808bbf56f9db51952475ae0",
        "to": "0x47ce967eab4cca879a424ed5720424ae37bf9b0c",
        "gas": "0x164ff",
        "value": "0x0",
        "input": "0xdf791e500000000000000000000000008f62248b1ab982578e0f59d19076c1bd9c0405f3000000000000000000000000bdbd81bedb050c054643356ebec720258b9ac81e0000000000000000000000000000000000000000000000000000000000000000",
        "nonce": "0xc4",
        "chainId": "0xaa36a7"
      },
      "additionalContracts": [],
      "isFixedGasLimit": false
    },
    {
      "hash": null,
      "transactionType": "CALL",
      "contractName": null,
      "contractAddress": "0x47ce967eab4cca879a424ed5720424ae37bf9b0c",
      "function": "swap(address,address,uint256)",
      "arguments": [
        "0x8f62248b1aB982578e0f59d19076c1bd9C0405f3",
        "0xbDbD81BEdB050C054643356ebEC720258B9ac81e",
        "0"
      ],
      "transaction": {
        "from": "0xf93ee28f72069752a808bbf56f9db51952475ae0",
        "to": "0x47ce967eab4cca879a424ed5720424ae37bf9b0c",
        "gas": "0x164ff",
        "value": "0x0",
        "input": "0xdf791e500000000000000000000000008f62248b1ab982578e0f59d19076c1bd9c0405f3000000000000000000000000bdbd81bedb050c054643356ebec720258b9ac81e0000000000000000000000000000000000000000000000000000000000000000",
        "nonce": "0xc5",
        "chainId": "0xaa36a7"
      },
      "additionalContracts": [],
      "isFixedGasLimit": false
    },
    {
      "hash": null,
      "transactionType": "CALL",
      "contractName": null,
      "contractAddress": "0x47ce967eab4cca879a424ed5720424ae37bf9b0c",
      "function": "swap(address,address,uint256)",
      "arguments": [
        "0x8f62248b1aB982578e0f59d19076c1bd9C0405f3",
        "0xbDbD81BEdB050C054643356ebEC720258B9ac81e",
        "0"
      ],
      "transaction": {
        "from": "0xf93ee28f72069752a808bbf56f9db51952475ae0",
        "to": "0x47ce967eab4cca879a424ed5720424ae37bf9b0c",
        "gas": "0x164ff",
        "value": "0x0",
        "input": "0xdf791e500000000000000000000000008f62248b1ab982578e0f59d19076c1bd9c0405f3000000000000000000000000bdbd81bedb050c054643356ebec720258b9ac81e0000000000000000000000000000000000000000000000000000000000000000",
        "nonce": "0xc6",
        "chainId": "0xaa36a7"
      },
      "additionalContracts": [],
      "isFixedGasLimit": false
    },
    {
      "hash": null,
      "transactionType": "CALL",
      "contractName": null,
      "contractAddress": "0x47ce967eab4cca879a424ed5720424ae37bf9b0c",
      "function": "swap(address,address,uint256)",
      "arguments": [
        "0x8f62248b1aB982578e0f59d19076c1bd9C0405f3",
        "0xbDbD81BEdB050C054643356ebEC720258B9ac81e",
        "0"
      ],
      "transaction": {
        "from": "0xf93ee28f72069752a808bbf56f9db51952475ae0",
        "to": "0x47ce967eab4cca879a424ed5720424ae37bf9b0c",
        "gas": "0x164ff",
        "value": "0x0",
        "input": "0xdf791e500000000000000000000000008f62248b1ab982578e0f59d19076c1bd9c0405f3000000000000000000000000bdbd81bedb050c054643356ebec720258b9ac81e0000000000000000000000000000000000000000000000000000000000000000",
        "nonce": "0xc7",
        "chainId": "0xaa36a7"
      },
      "additionalContracts": [],
      "isFixedGasLimit": false
    },
    {
      "hash": null,
      "transactionType": "CALL",
      "contractName": null,
      "contractAddress": "0x47ce967eab4cca879a424ed5720424ae37bf9b0c",
      "function": "swap(address,address,uint256)",
      "arguments": [
        "0x8f62248b1aB982578e0f59d19076c1bd9C0405f3",
        "0xbDbD81BEdB050C054643356ebEC720258B9ac81e",
        "0"
      ],
      "transaction": {
        "from": "0xf93ee28f72069752a808bbf56f9db51952475ae0",
        "to": "0x47ce967eab4cca879a424ed5720424ae37bf9b0c",
        "gas": "0x164ff",
        "value": "0x0",
        "input": "0xdf791e500000000000000000000000008f62248b1ab982578e0f59d19076c1bd9c0405f3000000000000000000000000bdbd81bedb050c054643356ebec720258b9ac81e0000000000000000000000000000000000000000000000000000000000000000",
        "nonce": "0xc8",
        "chainId": "0xaa36a7"
      },
      "additionalContracts": [],
      "isFixedGasLimit": false
    },
    {
      "hash": null,
      "transactionType": "CALL",
      "contractName": null,
      "contractAddress": "0x47ce967eab4cca879a424ed5720424ae37bf9b0c",
      "function": "swap(address,address,uint256)",
      "arguments": [
        "0x8f62248b1aB982578e0f59d19076c1bd9C0405f3",
        "0xbDbD81BEdB050C054643356ebEC720258B9ac81e",
        "0"
      ],
      "transaction": {
        "from": "0xf93ee28f72069752a808bbf56f9db51952475ae0",
        "to": "0x47ce967eab4cca879a424ed5720424ae37bf9b0c",
        "gas": "0x164ff",
        "value": "0x0",
        "input": "0xdf791e500000000000000000000000008f62248b1ab982578e0f59d19076c1bd9c0405f3000000000000000000000000bdbd81bedb050c054643356ebec720258b9ac81e0000000000000000000000000000000000000000000000000000000000000000",
        "nonce": "0xc9",
        "chainId": "0xaa36a7"
      },
      "additionalContracts": [],
      "isFixedGasLimit": false
    },
    {
      "hash": null,
      "transactionType": "CALL",
      "contractName": null,
      "contractAddress": "0x47ce967eab4cca879a424ed5720424ae37bf9b0c",
      "function": "swap(address,address,uint256)",
      "arguments": [
        "0x8f62248b1aB982578e0f59d19076c1bd9C0405f3",
        "0xbDbD81BEdB050C054643356ebEC720258B9ac81e",
        "0"
      ],
      "transaction": {
        "from": "0xf93ee28f72069752a808bbf56f9db51952475ae0",
        "to": "0x47ce967eab4cca879a424ed5720424ae37bf9b0c",
        "gas": "0x164ff",
        "value": "0x0",
        "input": "0xdf791e500000000000000000000000008f62248b1ab982578e0f59d19076c1bd9c0405f3000000000000000000000000bdbd81bedb050c054643356ebec720258b9ac81e0000000000000000000000000000000000000000000000000000000000000000",
        "nonce": "0xca",
        "chainId": "0xaa36a7"
      },
      "additionalContracts": [],
      "isFixedGasLimit": false
    },
    {
      "hash": null,
      "transactionType": "CALL",
      "contractName": null,
      "contractAddress": "0x47ce967eab4cca879a424ed5720424ae37bf9b0c",
      "function": "swap(address,address,uint256)",
      "arguments": [
        "0x8f62248b1aB982578e0f59d19076c1bd9C0405f3",
        "0xbDbD81BEdB050C054643356ebEC720258B9ac81e",
        "0"
      ],
      "transaction": {
        "from": "0xf93ee28f72069752a808bbf56f9db51952475ae0",
        "to": "0x47ce967eab4cca879a424ed5720424ae37bf9b0c",
        "gas": "0x164ff",
        "value": "0x0",
        "input": "0xdf791e500000000000000000000000008f62248b1ab982578e0f59d19076c1bd9c0405f3000000000000000000000000bdbd81bedb050c054643356ebec720258b9ac81e0000000000000000000000000000000000000000000000000000000000000000",
        "nonce": "0xcb",
        "chainId": "0xaa36a7"
      },
      "additionalContracts": [],
      "isFixedGasLimit": false
    },
    {
      "hash": null,
      "transactionType": "CALL",
      "contractName": null,
      "contractAddress": "0x47ce967eab4cca879a424ed5720424ae37bf9b0c",
      "function": "swap(address,address,uint256)",
      "arguments": [
        "0x8f62248b1aB982578e0f59d19076c1bd9C0405f3",
        "0xbDbD81BEdB050C054643356ebEC720258B9ac81e",
        "0"
      ],
      "transaction": {
        "from": "0xf93ee28f72069752a808bbf56f9db51952475ae0",
        "to": "0x47ce967eab4cca879a424ed5720424ae37bf9b0c",
        "gas": "0x164ff",
        "value": "0x0",
        "input": "0xdf791e500000000000000000000000008f62248b1ab982578e0f59d19076c1bd9c0405f3000000000000000000000000bdbd81bedb050c054643356ebec720258b9ac81e0000000000000000000000000000000000000000000000000000000000000000",
        "nonce": "0xcc",
        "chainId": "0xaa36a7"
      },
      "additionalContracts": [],
      "isFixedGasLimit": false
    },
    {
      "hash": null,
      "transactionType": "CALL",
      "contractName": null,
      "contractAddress": "0x47ce967eab4cca879a424ed5720424ae37bf9b0c",
      "function": "swap(address,address,uint256)",
      "arguments": [
        "0x8f62248b1aB982578e0f59d19076c1bd9C0405f3",
        "0xbDbD81BEdB050C054643356ebEC720258B9ac81e",
        "0"
      ],
      "transaction": {
        "from": "0xf93ee28f72069752a808bbf56f9db51952475ae0",
        "to": "0x47ce967eab4cca879a424ed5720424ae37bf9b0c",
        "gas": "0x164ff",
        "value": "0x0",
        "input": "0xdf791e500000000000000000000000008f62248b1ab982578e0f59d19076c1bd9c0405f3000000000000000000000000bdbd81bedb050c054643356ebec720258b9ac81e0000000000000000000000000000000000000000000000000000000000000000",
        "nonce": "0xcd",
        "chainId": "0xaa36a7"
      },
      "additionalContracts": [],
      "isFixedGasLimit": false
    },
    {
      "hash": null,
      "transactionType": "CALL",
      "contractName": null,
      "contractAddress": "0x47ce967eab4cca879a424ed5720424ae37bf9b0c",
      "function": "swap(address,address,uint256)",
      "arguments": [
        "0x8f62248b1aB982578e0f59d19076c1bd9C0405f3",
        "0xbDbD81BEdB050C054643356ebEC720258B9ac81e",
        "0"
      ],
      "transaction": {
        "from": "0xf93ee28f72069752a808bbf56f9db51952475ae0",
        "to": "0x47ce967eab4cca879a424ed5720424ae37bf9b0c",
        "gas": "0x164ff",
        "value": "0x0",
        "input": "0xdf791e500000000000000000000000008f62248b1ab982578e0f59d19076c1bd9c0405f3000000000000000000000000bdbd81bedb050c054643356ebec720258b9ac81e0000000000000000000000000000000000000000000000000000000000000000",
        "nonce": "0xce",
        "chainId": "0xaa36a7"
      },
      "additionalContracts": [],
      "isFixedGasLimit": false
    },
    {
      "hash": null,
      "transactionType": "CALL",
      "contractName": null,
      "contractAddress": "0x47ce967eab4cca879a424ed5720424ae37bf9b0c",
      "function": "swap(address,address,uint256)",
      "arguments": [
        "0x8f62248b1aB982578e0f59d19076c1bd9C0405f3",
        "0xbDbD81BEdB050C054643356ebEC720258B9ac81e",
        "0"
      ],
      "transaction": {
        "from": "0xf93ee28f72069752a808bbf56f9db51952475ae0",
        "to": "0x47ce967eab4cca879a424ed5720424ae37bf9b0c",
        "gas": "0x164ff",
        "value": "0x0",
        "input": "0xdf791e500000000000000000000000008f62248b1ab982578e0f59d19076c1bd9c0405f3000000000000000000000000bdbd81bedb050c054643356ebec720258b9ac81e0000000000000000000000000000000000000000000000000000000000000000",
        "nonce": "0xcf",
        "chainId": "0xaa36a7"
      },
      "additionalContracts": [],
      "isFixedGasLimit": false
    },
    {
      "hash": null,
      "transactionType": "CALL",
      "contractName": null,
      "contractAddress": "0x47ce967eab4cca879a424ed5720424ae37bf9b0c",
      "function": "swap(address,address,uint256)",
      "arguments": [
        "0x8f62248b1aB982578e0f59d19076c1bd9C0405f3",
        "0xbDbD81BEdB050C054643356ebEC720258B9ac81e",
        "0"
      ],
      "transaction": {
        "from": "0xf93ee28f72069752a808bbf56f9db51952475ae0",
        "to": "0x47ce967eab4cca879a424ed5720424ae37bf9b0c",
        "gas": "0x164ff",
        "value": "0x0",
        "input": "0xdf791e500000000000000000000000008f62248b1ab982578e0f59d19076c1bd9c0405f3000000000000000000000000bdbd81bedb050c054643356ebec720258b9ac81e0000000000000000000000000000000000000000000000000000000000000000",
        "nonce": "0xd0",
        "chainId": "0xaa36a7"
      },
      "additionalContracts": [],
      "isFixedGasLimit": false
    },
    {
      "hash": null,
      "transactionType": "CALL",
      "contractName": null,
      "contractAddress": "0x47ce967eab4cca879a424ed5720424ae37bf9b0c",
      "function": "swap(address,address,uint256)",
      "arguments": [
        "0x8f62248b1aB982578e0f59d19076c1bd9C0405f3",
        "0xbDbD81BEdB050C054643356ebEC720258B9ac81e",
        "0"
      ],
      "transaction": {
        "from": "0xf93ee28f72069752a808bbf56f9db51952475ae0",
        "to": "0x47ce967eab4cca879a424ed5720424ae37bf9b0c",
        "gas": "0x164ff",
        "value": "0x0",
        "input": "0xdf791e500000000000000000000000008f62248b1ab982578e0f59d19076c1bd9c0405f3000000000000000000000000bdbd81bedb050c054643356ebec720258b9ac81e0000000000000000000000000000000000000000000000000000000000000000",
        "nonce": "0xd1",
        "chainId": "0xaa36a7"
      },
      "additionalContracts": [],
      "isFixedGasLimit": false
    },
    {
      "hash": null,
      "transactionType": "CALL",
      "contractName": null,
      "contractAddress": "0x47ce967eab4cca879a424ed5720424ae37bf9b0c",
      "function": "swap(address,address,uint256)",
      "arguments": [
        "0x8f62248b1aB982578e0f59d19076c1bd9C0405f3",
        "0xbDbD81BEdB050C054643356ebEC720258B9ac81e",
        "0"
      ],
      "transaction": {
        "from": "0xf93ee28f72069752a808bbf56f9db51952475ae0",
        "to": "0x47ce967eab4cca879a424ed5720424ae37bf9b0c",
        "gas": "0x164ff",
        "value": "0x0",
        "input": "0xdf791e500000000000000000000000008f62248b1ab982578e0f59d19076c1bd9c0405f3000000000000000000000000bdbd81bedb050c054643356ebec720258b9ac81e0000000000000000000000000000000000000000000000000000000000000000",
        "nonce": "0xd2",
        "chainId": "0xaa36a7"
      },
      "additionalContracts": [],
      "isFixedGasLimit": false
    },
    {
      "hash": null,
      "transactionType": "CALL",
      "contractName": null,
      "contractAddress": "0x47ce967eab4cca879a424ed5720424ae37bf9b0c",
      "function": "swap(address,address,uint256)",
      "arguments": [
        "0x8f62248b1aB982578e0f59d19076c1bd9C0405f3",
        "0xbDbD81BEdB050C054643356ebEC720258B9ac81e",
        "0"
      ],
      "transaction": {
        "from": "0xf93ee28f72069752a808bbf56f9db51952475ae0",
        "to": "0x47ce967eab4cca879a424ed5720424ae37bf9b0c",
        "gas": "0x164ff",
        "value": "0x0",
        "input": "0xdf791e500000000000000000000000008f62248b1ab982578e0f59d19076c1bd9c0405f3000000000000000000000000bdbd81bedb050c054643356ebec720258b9ac81e0000000000000000000000000000000000000000000000000000000000000000",
        "nonce": "0xd3",
        "chainId": "0xaa36a7"
      },
      "additionalContracts": [],
      "isFixedGasLimit": false
    },
    {
      "hash": null,
      "transactionType": "CALL",
      "contractName": null,
      "contractAddress": "0x47ce967eab4cca879a424ed5720424ae37bf9b0c",
      "function": "swap(address,address,uint256)",
      "arguments": [
        "0x8f62248b1aB982578e0f59d19076c1bd9C0405f3",
        "0xbDbD81BEdB050C054643356ebEC720258B9ac81e",
        "0"
      ],
      "transaction": {
        "from": "0xf93ee28f72069752a808bbf56f9db51952475ae0",
        "to": "0x47ce967eab4cca879a424ed5720424ae37bf9b0c",
        "gas": "0x164ff",
        "value": "0x0",
        "input": "0xdf791e500000000000000000000000008f62248b1ab982578e0f59d19076c1bd9c0405f3000000000000000000000000bdbd81bedb050c054643356ebec720258b9ac81e0000000000000000000000000000000000000000000000000000000000000000",
        "nonce": "0xd4",
        "chainId": "0xaa36a7"
      },
      "additionalContracts": [],
      "isFixedGasLimit": false
    },
    {
      "hash": null,
      "transactionType": "CALL",
      "contractName": null,
      "contractAddress": "0x47ce967eab4cca879a424ed5720424ae37bf9b0c",
      "function": "swap(address,address,uint256)",
      "arguments": [
        "0x8f62248b1aB982578e0f59d19076c1bd9C0405f3",
        "0xbDbD81BEdB050C054643356ebEC720258B9ac81e",
        "0"
      ],
      "transaction": {
        "from": "0xf93ee28f72069752a808bbf56f9db51952475ae0",
        "to": "0x47ce967eab4cca879a424ed5720424ae37bf9b0c",
        "gas": "0x164ff",
        "value": "0x0",
        "input": "0xdf791e500000000000000000000000008f62248b1ab982578e0f59d19076c1bd9c0405f3000000000000000000000000bdbd81bedb050c054643356ebec720258b9ac81e0000000000000000000000000000000000000000000000000000000000000000",
        "nonce": "0xd5",
        "chainId": "0xaa36a7"
      },
      "additionalContracts": [],
      "isFixedGasLimit": false
    },
    {
      "hash": null,
      "transactionType": "CALL",
      "contractName": null,
      "contractAddress": "0x47ce967eab4cca879a424ed5720424ae37bf9b0c",
      "function": "swap(address,address,uint256)",
      "arguments": [
        "0x8f62248b1aB982578e0f59d19076c1bd9C0405f3",
        "0xbDbD81BEdB050C054643356ebEC720258B9ac81e",
        "0"
      ],
      "transaction": {
        "from": "0xf93ee28f72069752a808bbf56f9db51952475ae0",
        "to": "0x47ce967eab4cca879a424ed5720424ae37bf9b0c",
        "gas": "0x164ff",
        "value": "0x0",
        "input": "0xdf791e500000000000000000000000008f62248b1ab982578e0f59d19076c1bd9c0405f3000000000000000000000000bdbd81bedb050c054643356ebec720258b9ac81e0000000000000000000000000000000000000000000000000000000000000000",
        "nonce": "0xd6",
        "chainId": "0xaa36a7"
      },
      "additionalContracts": [],
      "isFixedGasLimit": false
    },
    {
      "hash": null,
      "transactionType": "CALL",
      "contractName": null,
      "contractAddress": "0x47ce967eab4cca879a424ed5720424ae37bf9b0c",
      "function": "swap(address,address,uint256)",
      "arguments": [
        "0x8f62248b1aB982578e0f59d19076c1bd9C0405f3",
        "0xbDbD81BEdB050C054643356ebEC720258B9ac81e",
        "0"
      ],
      "transaction": {
        "from": "0xf93ee28f72069752a808bbf56f9db51952475ae0",
        "to": "0x47ce967eab4cca879a424ed5720424ae37bf9b0c",
        "gas": "0x164ff",
        "value": "0x0",
        "input": "0xdf791e500000000000000000000000008f62248b1ab982578e0f59d19076c1bd9c0405f3000000000000000000000000bdbd81bedb050c054643356ebec720258b9ac81e0000000000000000000000000000000000000000000000000000000000000000",
        "nonce": "0xd7",
        "chainId": "0xaa36a7"
      },
      "additionalContracts": [],
      "isFixedGasLimit": false
    },
    {
      "hash": null,
      "transactionType": "CALL",
      "contractName": null,
      "contractAddress": "0x47ce967eab4cca879a424ed5720424ae37bf9b0c",
      "function": "swap(address,address,uint256)",
      "arguments": [
        "0x8f62248b1aB982578e0f59d19076c1bd9C0405f3",
        "0xbDbD81BEdB050C054643356ebEC720258B9ac81e",
        "0"
      ],
      "transaction": {
        "from": "0xf93ee28f72069752a808bbf56f9db51952475ae0",
        "to": "0x47ce967eab4cca879a424ed5720424ae37bf9b0c",
        "gas": "0x164ff",
        "value": "0x0",
        "input": "0xdf791e500000000000000000000000008f62248b1ab982578e0f59d19076c1bd9c0405f3000000000000000000000000bdbd81bedb050c054643356ebec720258b9ac81e0000000000000000000000000000000000000000000000000000000000000000",
        "nonce": "0xd8",
        "chainId": "0xaa36a7"
      },
      "additionalContracts": [],
      "isFixedGasLimit": false
    },
    {
      "hash": null,
      "transactionType": "CALL",
      "contractName": null,
      "contractAddress": "0x47ce967eab4cca879a424ed5720424ae37bf9b0c",
      "function": "swap(address,address,uint256)",
      "arguments": [
        "0x8f62248b1aB982578e0f59d19076c1bd9C0405f3",
        "0xbDbD81BEdB050C054643356ebEC720258B9ac81e",
        "0"
      ],
      "transaction": {
        "from": "0xf93ee28f72069752a808bbf56f9db51952475ae0",
        "to": "0x47ce967eab4cca879a424ed5720424ae37bf9b0c",
        "gas": "0x164ff",
        "value": "0x0",
        "input": "0xdf791e500000000000000000000000008f62248b1ab982578e0f59d19076c1bd9c0405f3000000000000000000000000bdbd81bedb050c054643356ebec720258b9ac81e0000000000000000000000000000000000000000000000000000000000000000",
        "nonce": "0xd9",
        "chainId": "0xaa36a7"
      },
      "additionalContracts": [],
      "isFixedGasLimit": false
    },
    {
      "hash": null,
      "transactionType": "CALL",
      "contractName": null,
      "contractAddress": "0x47ce967eab4cca879a424ed5720424ae37bf9b0c",
      "function": "swap(address,address,uint256)",
      "arguments": [
        "0x8f62248b1aB982578e0f59d19076c1bd9C0405f3",
        "0xbDbD81BEdB050C054643356ebEC720258B9ac81e",
        "0"
      ],
      "transaction": {
        "from": "0xf93ee28f72069752a808bbf56f9db51952475ae0",
        "to": "0x47ce967eab4cca879a424ed5720424ae37bf9b0c",
        "gas": "0x164ff",
        "value": "0x0",
        "input": "0xdf791e500000000000000000000000008f62248b1ab982578e0f59d19076c1bd9c0405f3000000000000000000000000bdbd81bedb050c054643356ebec720258b9ac81e0000000000000000000000000000000000000000000000000000000000000000",
        "nonce": "0xda",
        "chainId": "0xaa36a7"
      },
      "additionalContracts": [],
      "isFixedGasLimit": false
    },
    {
      "hash": null,
      "transactionType": "CALL",
      "contractName": null,
      "contractAddress": "0x47ce967eab4cca879a424ed5720424ae37bf9b0c",
      "function": "swap(address,address,uint256)",
      "arguments": [
        "0x8f62248b1aB982578e0f59d19076c1bd9C0405f3",
        "0xbDbD81BEdB050C054643356ebEC720258B9ac81e",
        "0"
      ],
      "transaction": {
        "from": "0xf93ee28f72069752a808bbf56f9db51952475ae0",
        "to": "0x47ce967eab4cca879a424ed5720424ae37bf9b0c",
        "gas": "0x164ff",
        "value": "0x0",
        "input": "0xdf791e500000000000000000000000008f62248b1ab982578e0f59d19076c1bd9c0405f3000000000000000000000000bdbd81bedb050c054643356ebec720258b9ac81e0000000000000000000000000000000000000000000000000000000000000000",
        "nonce": "0xdb",
        "chainId": "0xaa36a7"
      },
      "additionalContracts": [],
      "isFixedGasLimit": false
    },
    {
      "hash": null,
      "transactionType": "CALL",
      "contractName": null,
      "contractAddress": "0x47ce967eab4cca879a424ed5720424ae37bf9b0c",
      "function": "swap(address,address,uint256)",
      "arguments": [
        "0x8f62248b1aB982578e0f59d19076c1bd9C0405f3",
        "0xbDbD81BEdB050C054643356ebEC720258B9ac81e",
        "0"
      ],
      "transaction": {
        "from": "0xf93ee28f72069752a808bbf56f9db51952475ae0",
        "to": "0x47ce967eab4cca879a424ed5720424ae37bf9b0c",
        "gas": "0x164ff",
        "value": "0x0",
        "input": "0xdf791e500000000000000000000000008f62248b1ab982578e0f59d19076c1bd9c0405f3000000000000000000000000bdbd81bedb050c054643356ebec720258b9ac81e0000000000000000000000000000000000000000000000000000000000000000",
        "nonce": "0xdc",
        "chainId": "0xaa36a7"
      },
      "additionalContracts": [],
      "isFixedGasLimit": false
    },
    {
      "hash": null,
      "transactionType": "CALL",
      "contractName": null,
      "contractAddress": "0x47ce967eab4cca879a424ed5720424ae37bf9b0c",
      "function": "swap(address,address,uint256)",
      "arguments": [
        "0x8f62248b1aB982578e0f59d19076c1bd9C0405f3",
        "0xbDbD81BEdB050C054643356ebEC720258B9ac81e",
        "0"
      ],
      "transaction": {
        "from": "0xf93ee28f72069752a808bbf56f9db51952475ae0",
        "to": "0x47ce967eab4cca879a424ed5720424ae37bf9b0c",
        "gas": "0x164ff",
        "value": "0x0",
        "input": "0xdf791e500000000000000000000000008f62248b1ab982578e0f59d19076c1bd9c0405f3000000000000000000000000bdbd81bedb050c054643356ebec720258b9ac81e0000000000000000000000000000000000000000000000000000000000000000",
        "nonce": "0xdd",
        "chainId": "0xaa36a7"
      },
      "additionalContracts": [],
      "isFixedGasLimit": false
    },
    {
      "hash": null,
      "transactionType": "CALL",
      "contractName": null,
      "contractAddress": "0x47ce967eab4cca879a424ed5720424ae37bf9b0c",
      "function": "swap(address,address,uint256)",
      "arguments": [
        "0x8f62248b1aB982578e0f59d19076c1bd9C0405f3",
        "0xbDbD81BEdB050C054643356ebEC720258B9ac81e",
        "0"
      ],
      "transaction": {
        "from": "0xf93ee28f72069752a808bbf56f9db51952475ae0",
        "to": "0x47ce967eab4cca879a424ed5720424ae37bf9b0c",
        "gas": "0x164ff",
        "value": "0x0",
        "input": "0xdf791e500000000000000000000000008f62248b1ab982578e0f59d19076c1bd9c0405f3000000000000000000000000bdbd81bedb050c054643356ebec720258b9ac81e0000000000000000000000000000000000000000000000000000000000000000",
        "nonce": "0xde",
        "chainId": "0xaa36a7"
      },
      "additionalContracts": [],
      "isFixedGasLimit": false
    },
    {
      "hash": null,
      "transactionType": "CALL",
      "contractName": null,
      "contractAddress": "0x47ce967eab4cca879a424ed5720424ae37bf9b0c",
      "function": "swap(address,address,uint256)",
      "arguments": [
        "0x8f62248b1aB982578e0f59d19076c1bd9C0405f3",
        "0xbDbD81BEdB050C054643356ebEC720258B9ac81e",
        "0"
      ],
      "transaction": {
        "from": "0xf93ee28f72069752a808bbf56f9db51952475ae0",
        "to": "0x47ce967eab4cca879a424ed5720424ae37bf9b0c",
        "gas": "0x164ff",
        "value": "0x0",
        "input": "0xdf791e500000000000000000000000008f62248b1ab982578e0f59d19076c1bd9c0405f3000000000000000000000000bdbd81bedb050c054643356ebec720258b9ac81e0000000000000000000000000000000000000000000000000000000000000000",
        "nonce": "0xdf",
        "chainId": "0xaa36a7"
      },
      "additionalContracts": [],
      "isFixedGasLimit": false
    },
    {
      "hash": null,
      "transactionType": "CALL",
      "contractName": null,
      "contractAddress": "0x47ce967eab4cca879a424ed5720424ae37bf9b0c",
      "function": "swap(address,address,uint256)",
      "arguments": [
        "0x8f62248b1aB982578e0f59d19076c1bd9C0405f3",
        "0xbDbD81BEdB050C054643356ebEC720258B9ac81e",
        "0"
      ],
      "transaction": {
        "from": "0xf93ee28f72069752a808bbf56f9db51952475ae0",
        "to": "0x47ce967eab4cca879a424ed5720424ae37bf9b0c",
        "gas": "0x164ff",
        "value": "0x0",
        "input": "0xdf791e500000000000000000000000008f62248b1ab982578e0f59d19076c1bd9c0405f3000000000000000000000000bdbd81bedb050c054643356ebec720258b9ac81e0000000000000000000000000000000000000000000000000000000000000000",
        "nonce": "0xe0",
        "chainId": "0xaa36a7"
      },
      "additionalContracts": [],
      "isFixedGasLimit": false
    },
    {
      "hash": null,
      "transactionType": "CALL",
      "contractName": null,
      "contractAddress": "0x47ce967eab4cca879a424ed5720424ae37bf9b0c",
      "function": "swap(address,address,uint256)",
      "arguments": [
        "0x8f62248b1aB982578e0f59d19076c1bd9C0405f3",
        "0xbDbD81BEdB050C054643356ebEC720258B9ac81e",
        "0"
      ],
      "transaction": {
        "from": "0xf93ee28f72069752a808bbf56f9db51952475ae0",
        "to": "0x47ce967eab4cca879a424ed5720424ae37bf9b0c",
        "gas": "0x164ff",
        "value": "0x0",
        "input": "0xdf791e500000000000000000000000008f62248b1ab982578e0f59d19076c1bd9c0405f3000000000000000000000000bdbd81bedb050c054643356ebec720258b9ac81e0000000000000000000000000000000000000000000000000000000000000000",
        "nonce": "0xe1",
        "chainId": "0xaa36a7"
      },
      "additionalContracts": [],
      "isFixedGasLimit": false
    },
    {
      "hash": null,
      "transactionType": "CALL",
      "contractName": null,
      "contractAddress": "0x47ce967eab4cca879a424ed5720424ae37bf9b0c",
      "function": "swap(address,address,uint256)",
      "arguments": [
        "0x8f62248b1aB982578e0f59d19076c1bd9C0405f3",
        "0xbDbD81BEdB050C054643356ebEC720258B9ac81e",
        "0"
      ],
      "transaction": {
        "from": "0xf93ee28f72069752a808bbf56f9db51952475ae0",
        "to": "0x47ce967eab4cca879a424ed5720424ae37bf9b0c",
        "gas": "0x164ff",
        "value": "0x0",
        "input": "0xdf791e500000000000000000000000008f62248b1ab982578e0f59d19076c1bd9c0405f3000000000000000000000000bdbd81bedb050c054643356ebec720258b9ac81e0000000000000000000000000000000000000000000000000000000000000000",
        "nonce": "0xe2",
        "chainId": "0xaa36a7"
      },
      "additionalContracts": [],
      "isFixedGasLimit": false
    },
    {
      "hash": null,
      "transactionType": "CALL",
      "contractName": null,
      "contractAddress": "0x47ce967eab4cca879a424ed5720424ae37bf9b0c",
      "function": "swap(address,address,uint256)",
      "arguments": [
        "0x8f62248b1aB982578e0f59d19076c1bd9C0405f3",
        "0xbDbD81BEdB050C054643356ebEC720258B9ac81e",
        "0"
      ],
      "transaction": {
        "from": "0xf93ee28f72069752a808bbf56f9db51952475ae0",
        "to": "0x47ce967eab4cca879a424ed5720424ae37bf9b0c",
        "gas": "0x164ff",
        "value": "0x0",
        "input": "0xdf791e500000000000000000000000008f62248b1ab982578e0f59d19076c1bd9c0405f3000000000000000000000000bdbd81bedb050c054643356ebec720258b9ac81e0000000000000000000000000000000000000000000000000000000000000000",
        "nonce": "0xe3",
        "chainId": "0xaa36a7"
      },
      "additionalContracts": [],
      "isFixedGasLimit": false
    },
    {
      "hash": null,
      "transactionType": "CALL",
      "contractName": null,
      "contractAddress": "0x47ce967eab4cca879a424ed5720424ae37bf9b0c",
      "function": "swap(address,address,uint256)",
      "arguments": [
        "0x8f62248b1aB982578e0f59d19076c1bd9C0405f3",
        "0xbDbD81BEdB050C054643356ebEC720258B9ac81e",
        "0"
      ],
      "transaction": {
        "from": "0xf93ee28f72069752a808bbf56f9db51952475ae0",
        "to": "0x47ce967eab4cca879a424ed5720424ae37bf9b0c",
        "gas": "0x164ff",
        "value": "0x0",
        "input": "0xdf791e500000000000000000000000008f62248b1ab982578e0f59d19076c1bd9c0405f3000000000000000000000000bdbd81bedb050c054643356ebec720258b9ac81e0000000000000000000000000000000000000000000000000000000000000000",
        "nonce": "0xe4",
        "chainId": "0xaa36a7"
      },
      "additionalContracts": [],
      "isFixedGasLimit": false
    },
    {
      "hash": null,
      "transactionType": "CALL",
      "contractName": null,
      "contractAddress": "0x47ce967eab4cca879a424ed5720424ae37bf9b0c",
      "function": "swap(address,address,uint256)",
      "arguments": [
        "0x8f62248b1aB982578e0f59d19076c1bd9C0405f3",
        "0xbDbD81BEdB050C054643356ebEC720258B9ac81e",
        "0"
      ],
      "transaction": {
        "from": "0xf93ee28f72069752a808bbf56f9db51952475ae0",
        "to": "0x47ce967eab4cca879a424ed5720424ae37bf9b0c",
        "gas": "0x164ff",
        "value": "0x0",
        "input": "0xdf791e500000000000000000000000008f62248b1ab982578e0f59d19076c1bd9c0405f3000000000000000000000000bdbd81bedb050c054643356ebec720258b9ac81e0000000000000000000000000000000000000000000000000000000000000000",
        "nonce": "0xe5",
        "chainId": "0xaa36a7"
      },
      "additionalContracts": [],
      "isFixedGasLimit": false
    },
    {
      "hash": null,
      "transactionType": "CALL",
      "contractName": null,
      "contractAddress": "0x47ce967eab4cca879a424ed5720424ae37bf9b0c",
      "function": "swap(address,address,uint256)",
      "arguments": [
        "0x8f62248b1aB982578e0f59d19076c1bd9C0405f3",
        "0xbDbD81BEdB050C054643356ebEC720258B9ac81e",
        "0"
      ],
      "transaction": {
        "from": "0xf93ee28f72069752a808bbf56f9db51952475ae0",
        "to": "0x47ce967eab4cca879a424ed5720424ae37bf9b0c",
        "gas": "0x164ff",
        "value": "0x0",
        "input": "0xdf791e500000000000000000000000008f62248b1ab982578e0f59d19076c1bd9c0405f3000000000000000000000000bdbd81bedb050c054643356ebec720258b9ac81e0000000000000000000000000000000000000000000000000000000000000000",
        "nonce": "0xe6",
        "chainId": "0xaa36a7"
      },
      "additionalContracts": [],
      "isFixedGasLimit": false
    },
    {
      "hash": null,
      "transactionType": "CALL",
      "contractName": null,
      "contractAddress": "0x47ce967eab4cca879a424ed5720424ae37bf9b0c",
      "function": "swap(address,address,uint256)",
      "arguments": [
        "0x8f62248b1aB982578e0f59d19076c1bd9C0405f3",
        "0xbDbD81BEdB050C054643356ebEC720258B9ac81e",
        "0"
      ],
      "transaction": {
        "from": "0xf93ee28f72069752a808bbf56f9db51952475ae0",
        "to": "0x47ce967eab4cca879a424ed5720424ae37bf9b0c",
        "gas": "0x164ff",
        "value": "0x0",
        "input": "0xdf791e500000000000000000000000008f62248b1ab982578e0f59d19076c1bd9c0405f3000000000000000000000000bdbd81bedb050c054643356ebec720258b9ac81e0000000000000000000000000000000000000000000000000000000000000000",
        "nonce": "0xe7",
        "chainId": "0xaa36a7"
      },
      "additionalContracts": [],
      "isFixedGasLimit": false
    },
    {
      "hash": null,
      "transactionType": "CALL",
      "contractName": null,
      "contractAddress": "0x47ce967eab4cca879a424ed5720424ae37bf9b0c",
      "function": "swap(address,address,uint256)",
      "arguments": [
        "0x8f62248b1aB982578e0f59d19076c1bd9C0405f3",
        "0xbDbD81BEdB050C054643356ebEC720258B9ac81e",
        "0"
      ],
      "transaction": {
        "from": "0xf93ee28f72069752a808bbf56f9db51952475ae0",
        "to": "0x47ce967eab4cca879a424ed5720424ae37bf9b0c",
        "gas": "0x164ff",
        "value": "0x0",
        "input": "0xdf791e500000000000000000000000008f62248b1ab982578e0f59d19076c1bd9c0405f3000000000000000000000000bdbd81bedb050c054643356ebec720258b9ac81e0000000000000000000000000000000000000000000000000000000000000000",
        "nonce": "0xe8",
        "chainId": "0xaa36a7"
      },
      "additionalContracts": [],
      "isFixedGasLimit": false
    },
    {
      "hash": null,
      "transactionType": "CALL",
      "contractName": null,
      "contractAddress": "0x47ce967eab4cca879a424ed5720424ae37bf9b0c",
      "function": "swap(address,address,uint256)",
      "arguments": [
        "0x8f62248b1aB982578e0f59d19076c1bd9C0405f3",
        "0xbDbD81BEdB050C054643356ebEC720258B9ac81e",
        "0"
      ],
      "transaction": {
        "from": "0xf93ee28f72069752a808bbf56f9db51952475ae0",
        "to": "0x47ce967eab4cca879a424ed5720424ae37bf9b0c",
        "gas": "0x164ff",
        "value": "0x0",
        "input": "0xdf791e500000000000000000000000008f62248b1ab982578e0f59d19076c1bd9c0405f3000000000000000000000000bdbd81bedb050c054643356ebec720258b9ac81e0000000000000000000000000000000000000000000000000000000000000000",
        "nonce": "0xe9",
        "chainId": "0xaa36a7"
      },
      "additionalContracts": [],
      "isFixedGasLimit": false
    },
    {
      "hash": null,
      "transactionType": "CALL",
      "contractName": null,
      "contractAddress": "0x47ce967eab4cca879a424ed5720424ae37bf9b0c",
      "function": "swap(address,address,uint256)",
      "arguments": [
        "0x8f62248b1aB982578e0f59d19076c1bd9C0405f3",
        "0xbDbD81BEdB050C054643356ebEC720258B9ac81e",
        "0"
      ],
      "transaction": {
        "from": "0xf93ee28f72069752a808bbf56f9db51952475ae0",
        "to": "0x47ce967eab4cca879a424ed5720424ae37bf9b0c",
        "gas": "0x164ff",
        "value": "0x0",
        "input": "0xdf791e500000000000000000000000008f62248b1ab982578e0f59d19076c1bd9c0405f3000000000000000000000000bdbd81bedb050c054643356ebec720258b9ac81e0000000000000000000000000000000000000000000000000000000000000000",
        "nonce": "0xea",
        "chainId": "0xaa36a7"
      },
      "additionalContracts": [],
      "isFixedGasLimit": false
    },
    {
      "hash": null,
      "transactionType": "CALL",
      "contractName": null,
      "contractAddress": "0x47ce967eab4cca879a424ed5720424ae37bf9b0c",
      "function": "swap(address,address,uint256)",
      "arguments": [
        "0x8f62248b1aB982578e0f59d19076c1bd9C0405f3",
        "0xbDbD81BEdB050C054643356ebEC720258B9ac81e",
        "0"
      ],
      "transaction": {
        "from": "0xf93ee28f72069752a808bbf56f9db51952475ae0",
        "to": "0x47ce967eab4cca879a424ed5720424ae37bf9b0c",
        "gas": "0x164ff",
        "value": "0x0",
        "input": "0xdf791e500000000000000000000000008f62248b1ab982578e0f59d19076c1bd9c0405f3000000000000000000000000bdbd81bedb050c054643356ebec720258b9ac81e0000000000000000000000000000000000000000000000000000000000000000",
        "nonce": "0xeb",
        "chainId": "0xaa36a7"
      },
      "additionalContracts": [],
      "isFixedGasLimit": false
    },
    {
      "hash": null,
      "transactionType": "CALL",
      "contractName": null,
      "contractAddress": "0x47ce967eab4cca879a424ed5720424ae37bf9b0c",
      "function": "swap(address,address,uint256)",
      "arguments": [
        "0x8f62248b1aB982578e0f59d19076c1bd9C0405f3",
        "0xbDbD81BEdB050C054643356ebEC720258B9ac81e",
        "0"
      ],
      "transaction": {
        "from": "0xf93ee28f72069752a808bbf56f9db51952475ae0",
        "to": "0x47ce967eab4cca879a424ed5720424ae37bf9b0c",
        "gas": "0x164ff",
        "value": "0x0",
        "input": "0xdf791e500000000000000000000000008f62248b1ab982578e0f59d19076c1bd9c0405f3000000000000000000000000bdbd81bedb050c054643356ebec720258b9ac81e0000000000000000000000000000000000000000000000000000000000000000",
        "nonce": "0xec",
        "chainId": "0xaa36a7"
      },
      "additionalContracts": [],
      "isFixedGasLimit": false
    },
    {
      "hash": null,
      "transactionType": "CALL",
      "contractName": null,
      "contractAddress": "0x47ce967eab4cca879a424ed5720424ae37bf9b0c",
      "function": "swap(address,address,uint256)",
      "arguments": [
        "0x8f62248b1aB982578e0f59d19076c1bd9C0405f3",
        "0xbDbD81BEdB050C054643356ebEC720258B9ac81e",
        "0"
      ],
      "transaction": {
        "from": "0xf93ee28f72069752a808bbf56f9db51952475ae0",
        "to": "0x47ce967eab4cca879a424ed5720424ae37bf9b0c",
        "gas": "0x164ff",
        "value": "0x0",
        "input": "0xdf791e500000000000000000000000008f62248b1ab982578e0f59d19076c1bd9c0405f3000000000000000000000000bdbd81bedb050c054643356ebec720258b9ac81e0000000000000000000000000000000000000000000000000000000000000000",
        "nonce": "0xed",
        "chainId": "0xaa36a7"
      },
      "additionalContracts": [],
      "isFixedGasLimit": false
    },
    {
      "hash": null,
      "transactionType": "CALL",
      "contractName": null,
      "contractAddress": "0x47ce967eab4cca879a424ed5720424ae37bf9b0c",
      "function": "swap(address,address,uint256)",
      "arguments": [
        "0x8f62248b1aB982578e0f59d19076c1bd9C0405f3",
        "0xbDbD81BEdB050C054643356ebEC720258B9ac81e",
        "0"
      ],
      "transaction": {
        "from": "0xf93ee28f72069752a808bbf56f9db51952475ae0",
        "to": "0x47ce967eab4cca879a424ed5720424ae37bf9b0c",
        "gas": "0x164ff",
        "value": "0x0",
        "input": "0xdf791e500000000000000000000000008f62248b1ab982578e0f59d19076c1bd9c0405f3000000000000000000000000bdbd81bedb050c054643356ebec720258b9ac81e0000000000000000000000000000000000000000000000000000000000000000",
        "nonce": "0xee",
        "chainId": "0xaa36a7"
      },
      "additionalContracts": [],
      "isFixedGasLimit": false
    },
    {
      "hash": null,
      "transactionType": "CALL",
      "contractName": null,
      "contractAddress": "0x47ce967eab4cca879a424ed5720424ae37bf9b0c",
      "function": "swap(address,address,uint256)",
      "arguments": [
        "0x8f62248b1aB982578e0f59d19076c1bd9C0405f3",
        "0xbDbD81BEdB050C054643356ebEC720258B9ac81e",
        "0"
      ],
      "transaction": {
        "from": "0xf93ee28f72069752a808bbf56f9db51952475ae0",
        "to": "0x47ce967eab4cca879a424ed5720424ae37bf9b0c",
        "gas": "0x164ff",
        "value": "0x0",
        "input": "0xdf791e500000000000000000000000008f62248b1ab982578e0f59d19076c1bd9c0405f3000000000000000000000000bdbd81bedb050c054643356ebec720258b9ac81e0000000000000000000000000000000000000000000000000000000000000000",
        "nonce": "0xef",
        "chainId": "0xaa36a7"
      },
      "additionalContracts": [],
      "isFixedGasLimit": false
    },
    {
      "hash": null,
      "transactionType": "CALL",
      "contractName": null,
      "contractAddress": "0x47ce967eab4cca879a424ed5720424ae37bf9b0c",
      "function": "swap(address,address,uint256)",
      "arguments": [
        "0x8f62248b1aB982578e0f59d19076c1bd9C0405f3",
        "0xbDbD81BEdB050C054643356ebEC720258B9ac81e",
        "0"
      ],
      "transaction": {
        "from": "0xf93ee28f72069752a808bbf56f9db51952475ae0",
        "to": "0x47ce967eab4cca879a424ed5720424ae37bf9b0c",
        "gas": "0x164ff",
        "value": "0x0",
        "input": "0xdf791e500000000000000000000000008f62248b1ab982578e0f59d19076c1bd9c0405f3000000000000000000000000bdbd81bedb050c054643356ebec720258b9ac81e0000000000000000000000000000000000000000000000000000000000000000",
        "nonce": "0xf0",
        "chainId": "0xaa36a7"
      },
      "additionalContracts": [],
      "isFixedGasLimit": false
    },
    {
      "hash": null,
      "transactionType": "CALL",
      "contractName": null,
      "contractAddress": "0x47ce967eab4cca879a424ed5720424ae37bf9b0c",
      "function": "swap(address,address,uint256)",
      "arguments": [
        "0x8f62248b1aB982578e0f59d19076c1bd9C0405f3",
        "0xbDbD81BEdB050C054643356ebEC720258B9ac81e",
        "0"
      ],
      "transaction": {
        "from": "0xf93ee28f72069752a808bbf56f9db51952475ae0",
        "to": "0x47ce967eab4cca879a424ed5720424ae37bf9b0c",
        "gas": "0x164ff",
        "value": "0x0",
        "input": "0xdf791e500000000000000000000000008f62248b1ab982578e0f59d19076c1bd9c0405f3000000000000000000000000bdbd81bedb050c054643356ebec720258b9ac81e0000000000000000000000000000000000000000000000000000000000000000",
        "nonce": "0xf1",
        "chainId": "0xaa36a7"
      },
      "additionalContracts": [],
      "isFixedGasLimit": false
    },
    {
      "hash": null,
      "transactionType": "CALL",
      "contractName": null,
      "contractAddress": "0x47ce967eab4cca879a424ed5720424ae37bf9b0c",
      "function": "swap(address,address,uint256)",
      "arguments": [
        "0x8f62248b1aB982578e0f59d19076c1bd9C0405f3",
        "0xbDbD81BEdB050C054643356ebEC720258B9ac81e",
        "0"
      ],
      "transaction": {
        "from": "0xf93ee28f72069752a808bbf56f9db51952475ae0",
        "to": "0x47ce967eab4cca879a424ed5720424ae37bf9b0c",
        "gas": "0x164ff",
        "value": "0x0",
        "input": "0xdf791e500000000000000000000000008f62248b1ab982578e0f59d19076c1bd9c0405f3000000000000000000000000bdbd81bedb050c054643356ebec720258b9ac81e0000000000000000000000000000000000000000000000000000000000000000",
        "nonce": "0xf2",
        "chainId": "0xaa36a7"
      },
      "additionalContracts": [],
      "isFixedGasLimit": false
    },
    {
      "hash": null,
      "transactionType": "CALL",
      "contractName": null,
      "contractAddress": "0x47ce967eab4cca879a424ed5720424ae37bf9b0c",
      "function": "swap(address,address,uint256)",
      "arguments": [
        "0x8f62248b1aB982578e0f59d19076c1bd9C0405f3",
        "0xbDbD81BEdB050C054643356ebEC720258B9ac81e",
        "0"
      ],
      "transaction": {
        "from": "0xf93ee28f72069752a808bbf56f9db51952475ae0",
        "to": "0x47ce967eab4cca879a424ed5720424ae37bf9b0c",
        "gas": "0x164ff",
        "value": "0x0",
        "input": "0xdf791e500000000000000000000000008f62248b1ab982578e0f59d19076c1bd9c0405f3000000000000000000000000bdbd81bedb050c054643356ebec720258b9ac81e0000000000000000000000000000000000000000000000000000000000000000",
        "nonce": "0xf3",
        "chainId": "0xaa36a7"
      },
      "additionalContracts": [],
      "isFixedGasLimit": false
    },
    {
      "hash": null,
      "transactionType": "CALL",
      "contractName": null,
      "contractAddress": "0x47ce967eab4cca879a424ed5720424ae37bf9b0c",
      "function": "swap(address,address,uint256)",
      "arguments": [
        "0x8f62248b1aB982578e0f59d19076c1bd9C0405f3",
        "0xbDbD81BEdB050C054643356ebEC720258B9ac81e",
        "0"
      ],
      "transaction": {
        "from": "0xf93ee28f72069752a808bbf56f9db51952475ae0",
        "to": "0x47ce967eab4cca879a424ed5720424ae37bf9b0c",
        "gas": "0x164ff",
        "value": "0x0",
        "input": "0xdf791e500000000000000000000000008f62248b1ab982578e0f59d19076c1bd9c0405f3000000000000000000000000bdbd81bedb050c054643356ebec720258b9ac81e0000000000000000000000000000000000000000000000000000000000000000",
        "nonce": "0xf4",
        "chainId": "0xaa36a7"
      },
      "additionalContracts": [],
      "isFixedGasLimit": false
    },
    {
      "hash": null,
      "transactionType": "CALL",
      "contractName": null,
      "contractAddress": "0x47ce967eab4cca879a424ed5720424ae37bf9b0c",
      "function": "swap(address,address,uint256)",
      "arguments": [
        "0x8f62248b1aB982578e0f59d19076c1bd9C0405f3",
        "0xbDbD81BEdB050C054643356ebEC720258B9ac81e",
        "0"
      ],
      "transaction": {
        "from": "0xf93ee28f72069752a808bbf56f9db51952475ae0",
        "to": "0x47ce967eab4cca879a424ed5720424ae37bf9b0c",
        "gas": "0x164ff",
        "value": "0x0",
        "input": "0xdf791e500000000000000000000000008f62248b1ab982578e0f59d19076c1bd9c0405f3000000000000000000000000bdbd81bedb050c054643356ebec720258b9ac81e0000000000000000000000000000000000000000000000000000000000000000",
        "nonce": "0xf5",
        "chainId": "0xaa36a7"
      },
      "additionalContracts": [],
      "isFixedGasLimit": false
    },
    {
      "hash": null,
      "transactionType": "CALL",
      "contractName": null,
      "contractAddress": "0x47ce967eab4cca879a424ed5720424ae37bf9b0c",
      "function": "swap(address,address,uint256)",
      "arguments": [
        "0x8f62248b1aB982578e0f59d19076c1bd9C0405f3",
        "0xbDbD81BEdB050C054643356ebEC720258B9ac81e",
        "0"
      ],
      "transaction": {
        "from": "0xf93ee28f72069752a808bbf56f9db51952475ae0",
        "to": "0x47ce967eab4cca879a424ed5720424ae37bf9b0c",
        "gas": "0x164ff",
        "value": "0x0",
        "input": "0xdf791e500000000000000000000000008f62248b1ab982578e0f59d19076c1bd9c0405f3000000000000000000000000bdbd81bedb050c054643356ebec720258b9ac81e0000000000000000000000000000000000000000000000000000000000000000",
        "nonce": "0xf6",
        "chainId": "0xaa36a7"
      },
      "additionalContracts": [],
      "isFixedGasLimit": false
    },
    {
      "hash": null,
      "transactionType": "CALL",
      "contractName": null,
      "contractAddress": "0x47ce967eab4cca879a424ed5720424ae37bf9b0c",
      "function": "swap(address,address,uint256)",
      "arguments": [
        "0x8f62248b1aB982578e0f59d19076c1bd9C0405f3",
        "0xbDbD81BEdB050C054643356ebEC720258B9ac81e",
        "0"
      ],
      "transaction": {
        "from": "0xf93ee28f72069752a808bbf56f9db51952475ae0",
        "to": "0x47ce967eab4cca879a424ed5720424ae37bf9b0c",
        "gas": "0x164ff",
        "value": "0x0",
        "input": "0xdf791e500000000000000000000000008f62248b1ab982578e0f59d19076c1bd9c0405f3000000000000000000000000bdbd81bedb050c054643356ebec720258b9ac81e0000000000000000000000000000000000000000000000000000000000000000",
        "nonce": "0xf7",
        "chainId": "0xaa36a7"
      },
      "additionalContracts": [],
      "isFixedGasLimit": false
    },
    {
      "hash": null,
      "transactionType": "CALL",
      "contractName": null,
      "contractAddress": "0x47ce967eab4cca879a424ed5720424ae37bf9b0c",
      "function": "swap(address,address,uint256)",
      "arguments": [
        "0x8f62248b1aB982578e0f59d19076c1bd9C0405f3",
        "0xbDbD81BEdB050C054643356ebEC720258B9ac81e",
        "0"
      ],
      "transaction": {
        "from": "0xf93ee28f72069752a808bbf56f9db51952475ae0",
        "to": "0x47ce967eab4cca879a424ed5720424ae37bf9b0c",
        "gas": "0x164ff",
        "value": "0x0",
        "input": "0xdf791e500000000000000000000000008f62248b1ab982578e0f59d19076c1bd9c0405f3000000000000000000000000bdbd81bedb050c054643356ebec720258b9ac81e0000000000000000000000000000000000000000000000000000000000000000",
        "nonce": "0xf8",
        "chainId": "0xaa36a7"
      },
      "additionalContracts": [],
      "isFixedGasLimit": false
    },
    {
      "hash": null,
      "transactionType": "CALL",
      "contractName": null,
      "contractAddress": "0x47ce967eab4cca879a424ed5720424ae37bf9b0c",
      "function": "swap(address,address,uint256)",
      "arguments": [
        "0x8f62248b1aB982578e0f59d19076c1bd9C0405f3",
        "0xbDbD81BEdB050C054643356ebEC720258B9ac81e",
        "0"
      ],
      "transaction": {
        "from": "0xf93ee28f72069752a808bbf56f9db51952475ae0",
        "to": "0x47ce967eab4cca879a424ed5720424ae37bf9b0c",
        "gas": "0x164ff",
        "value": "0x0",
        "input": "0xdf791e500000000000000000000000008f62248b1ab982578e0f59d19076c1bd9c0405f3000000000000000000000000bdbd81bedb050c054643356ebec720258b9ac81e0000000000000000000000000000000000000000000000000000000000000000",
        "nonce": "0xf9",
        "chainId": "0xaa36a7"
      },
      "additionalContracts": [],
      "isFixedGasLimit": false
    },
    {
      "hash": null,
      "transactionType": "CALL",
      "contractName": null,
      "contractAddress": "0x47ce967eab4cca879a424ed5720424ae37bf9b0c",
      "function": "swap(address,address,uint256)",
      "arguments": [
        "0x8f62248b1aB982578e0f59d19076c1bd9C0405f3",
        "0xbDbD81BEdB050C054643356ebEC720258B9ac81e",
        "0"
      ],
      "transaction": {
        "from": "0xf93ee28f72069752a808bbf56f9db51952475ae0",
        "to": "0x47ce967eab4cca879a424ed5720424ae37bf9b0c",
        "gas": "0x164ff",
        "value": "0x0",
        "input": "0xdf791e500000000000000000000000008f62248b1ab982578e0f59d19076c1bd9c0405f3000000000000000000000000bdbd81bedb050c054643356ebec720258b9ac81e0000000000000000000000000000000000000000000000000000000000000000",
        "nonce": "0xfa",
        "chainId": "0xaa36a7"
      },
      "additionalContracts": [],
      "isFixedGasLimit": false
    },
    {
      "hash": null,
      "transactionType": "CALL",
      "contractName": null,
      "contractAddress": "0x47ce967eab4cca879a424ed5720424ae37bf9b0c",
      "function": "swap(address,address,uint256)",
      "arguments": [
        "0x8f62248b1aB982578e0f59d19076c1bd9C0405f3",
        "0xbDbD81BEdB050C054643356ebEC720258B9ac81e",
        "0"
      ],
      "transaction": {
        "from": "0xf93ee28f72069752a808bbf56f9db51952475ae0",
        "to": "0x47ce967eab4cca879a424ed5720424ae37bf9b0c",
        "gas": "0x164ff",
        "value": "0x0",
        "input": "0xdf791e500000000000000000000000008f62248b1ab982578e0f59d19076c1bd9c0405f3000000000000000000000000bdbd81bedb050c054643356ebec720258b9ac81e0000000000000000000000000000000000000000000000000000000000000000",
        "nonce": "0xfb",
        "chainId": "0xaa36a7"
      },
      "additionalContracts": [],
      "isFixedGasLimit": false
    },
    {
      "hash": null,
      "transactionType": "CALL",
      "contractName": null,
      "contractAddress": "0x47ce967eab4cca879a424ed5720424ae37bf9b0c",
      "function": "swap(address,address,uint256)",
      "arguments": [
        "0x8f62248b1aB982578e0f59d19076c1bd9C0405f3",
        "0xbDbD81BEdB050C054643356ebEC720258B9ac81e",
        "0"
      ],
      "transaction": {
        "from": "0xf93ee28f72069752a808bbf56f9db51952475ae0",
        "to": "0x47ce967eab4cca879a424ed5720424ae37bf9b0c",
        "gas": "0x164ff",
        "value": "0x0",
        "input": "0xdf791e500000000000000000000000008f62248b1ab982578e0f59d19076c1bd9c0405f3000000000000000000000000bdbd81bedb050c054643356ebec720258b9ac81e0000000000000000000000000000000000000000000000000000000000000000",
        "nonce": "0xfc",
        "chainId": "0xaa36a7"
      },
      "additionalContracts": [],
      "isFixedGasLimit": false
    },
    {
      "hash": null,
      "transactionType": "CALL",
      "contractName": null,
      "contractAddress": "0x47ce967eab4cca879a424ed5720424ae37bf9b0c",
      "function": "swap(address,address,uint256)",
      "arguments": [
        "0x8f62248b1aB982578e0f59d19076c1bd9C0405f3",
        "0xbDbD81BEdB050C054643356ebEC720258B9ac81e",
        "0"
      ],
      "transaction": {
        "from": "0xf93ee28f72069752a808bbf56f9db51952475ae0",
        "to": "0x47ce967eab4cca879a424ed5720424ae37bf9b0c",
        "gas": "0x164ff",
        "value": "0x0",
        "input": "0xdf791e500000000000000000000000008f62248b1ab982578e0f59d19076c1bd9c0405f3000000000000000000000000bdbd81bedb050c054643356ebec720258b9ac81e0000000000000000000000000000000000000000000000000000000000000000",
        "nonce": "0xfd",
        "chainId": "0xaa36a7"
      },
      "additionalContracts": [],
      "isFixedGasLimit": false
    },
    {
      "hash": null,
      "transactionType": "CALL",
      "contractName": null,
      "contractAddress": "0x47ce967eab4cca879a424ed5720424ae37bf9b0c",
      "function": "swap(address,address,uint256)",
      "arguments": [
        "0x8f62248b1aB982578e0f59d19076c1bd9C0405f3",
        "0xbDbD81BEdB050C054643356ebEC720258B9ac81e",
        "0"
      ],
      "transaction": {
        "from": "0xf93ee28f72069752a808bbf56f9db51952475ae0",
        "to": "0x47ce967eab4cca879a424ed5720424ae37bf9b0c",
        "gas": "0x164ff",
        "value": "0x0",
        "input": "0xdf791e500000000000000000000000008f62248b1ab982578e0f59d19076c1bd9c0405f3000000000000000000000000bdbd81bedb050c054643356ebec720258b9ac81e0000000000000000000000000000000000000000000000000000000000000000",
        "nonce": "0xfe",
        "chainId": "0xaa36a7"
      },
      "additionalContracts": [],
      "isFixedGasLimit": false
    },
    {
      "hash": null,
      "transactionType": "CALL",
      "contractName": null,
      "contractAddress": "0x47ce967eab4cca879a424ed5720424ae37bf9b0c",
      "function": "swap(address,address,uint256)",
      "arguments": [
        "0x8f62248b1aB982578e0f59d19076c1bd9C0405f3",
        "0xbDbD81BEdB050C054643356ebEC720258B9ac81e",
        "0"
      ],
      "transaction": {
        "from": "0xf93ee28f72069752a808bbf56f9db51952475ae0",
        "to": "0x47ce967eab4cca879a424ed5720424ae37bf9b0c",
        "gas": "0x164ff",
        "value": "0x0",
        "input": "0xdf791e500000000000000000000000008f62248b1ab982578e0f59d19076c1bd9c0405f3000000000000000000000000bdbd81bedb050c054643356ebec720258b9ac81e0000000000000000000000000000000000000000000000000000000000000000",
        "nonce": "0xff",
        "chainId": "0xaa36a7"
      },
      "additionalContracts": [],
      "isFixedGasLimit": false
    },
    {
      "hash": null,
      "transactionType": "CALL",
      "contractName": null,
      "contractAddress": "0x47ce967eab4cca879a424ed5720424ae37bf9b0c",
      "function": "swap(address,address,uint256)",
      "arguments": [
        "0x8f62248b1aB982578e0f59d19076c1bd9C0405f3",
        "0xbDbD81BEdB050C054643356ebEC720258B9ac81e",
        "0"
      ],
      "transaction": {
        "from": "0xf93ee28f72069752a808bbf56f9db51952475ae0",
        "to": "0x47ce967eab4cca879a424ed5720424ae37bf9b0c",
        "gas": "0x164ff",
        "value": "0x0",
        "input": "0xdf791e500000000000000000000000008f62248b1ab982578e0f59d19076c1bd9c0405f3000000000000000000000000bdbd81bedb050c054643356ebec720258b9ac81e0000000000000000000000000000000000000000000000000000000000000000",
        "nonce": "0x100",
        "chainId": "0xaa36a7"
      },
      "additionalContracts": [],
      "isFixedGasLimit": false
    },
    {
      "hash": null,
      "transactionType": "CALL",
      "contractName": null,
      "contractAddress": "0x47ce967eab4cca879a424ed5720424ae37bf9b0c",
      "function": "swap(address,address,uint256)",
      "arguments": [
        "0x8f62248b1aB982578e0f59d19076c1bd9C0405f3",
        "0xbDbD81BEdB050C054643356ebEC720258B9ac81e",
        "0"
      ],
      "transaction": {
        "from": "0xf93ee28f72069752a808bbf56f9db51952475ae0",
        "to": "0x47ce967eab4cca879a424ed5720424ae37bf9b0c",
        "gas": "0x164ff",
        "value": "0x0",
        "input": "0xdf791e500000000000000000000000008f62248b1ab982578e0f59d19076c1bd9c0405f3000000000000000000000000bdbd81bedb050c054643356ebec720258b9ac81e0000000000000000000000000000000000000000000000000000000000000000",
        "nonce": "0x101",
        "chainId": "0xaa36a7"
      },
      "additionalContracts": [],
      "isFixedGasLimit": false
    },
    {
      "hash": null,
      "transactionType": "CALL",
      "contractName": null,
      "contractAddress": "0x47ce967eab4cca879a424ed5720424ae37bf9b0c",
      "function": "swap(address,address,uint256)",
      "arguments": [
        "0x8f62248b1aB982578e0f59d19076c1bd9C0405f3",
        "0xbDbD81BEdB050C054643356ebEC720258B9ac81e",
        "0"
      ],
      "transaction": {
        "from": "0xf93ee28f72069752a808bbf56f9db51952475ae0",
        "to": "0x47ce967eab4cca879a424ed5720424ae37bf9b0c",
        "gas": "0x164ff",
        "value": "0x0",
        "input": "0xdf791e500000000000000000000000008f62248b1ab982578e0f59d19076c1bd9c0405f3000000000000000000000000bdbd81bedb050c054643356ebec720258b9ac81e0000000000000000000000000000000000000000000000000000000000000000",
        "nonce": "0x102",
        "chainId": "0xaa36a7"
      },
      "additionalContracts": [],
      "isFixedGasLimit": false
    },
    {
      "hash": null,
      "transactionType": "CALL",
      "contractName": null,
      "contractAddress": "0x47ce967eab4cca879a424ed5720424ae37bf9b0c",
      "function": "swap(address,address,uint256)",
      "arguments": [
        "0x8f62248b1aB982578e0f59d19076c1bd9C0405f3",
        "0xbDbD81BEdB050C054643356ebEC720258B9ac81e",
        "0"
      ],
      "transaction": {
        "from": "0xf93ee28f72069752a808bbf56f9db51952475ae0",
        "to": "0x47ce967eab4cca879a424ed5720424ae37bf9b0c",
        "gas": "0x164ff",
        "value": "0x0",
        "input": "0xdf791e500000000000000000000000008f62248b1ab982578e0f59d19076c1bd9c0405f3000000000000000000000000bdbd81bedb050c054643356ebec720258b9ac81e0000000000000000000000000000000000000000000000000000000000000000",
        "nonce": "0x103",
        "chainId": "0xaa36a7"
      },
      "additionalContracts": [],
      "isFixedGasLimit": false
    },
    {
      "hash": null,
      "transactionType": "CALL",
      "contractName": null,
      "contractAddress": "0x47ce967eab4cca879a424ed5720424ae37bf9b0c",
      "function": "swap(address,address,uint256)",
      "arguments": [
        "0x8f62248b1aB982578e0f59d19076c1bd9C0405f3",
        "0xbDbD81BEdB050C054643356ebEC720258B9ac81e",
        "0"
      ],
      "transaction": {
        "from": "0xf93ee28f72069752a808bbf56f9db51952475ae0",
        "to": "0x47ce967eab4cca879a424ed5720424ae37bf9b0c",
        "gas": "0x164ff",
        "value": "0x0",
        "input": "0xdf791e500000000000000000000000008f62248b1ab982578e0f59d19076c1bd9c0405f3000000000000000000000000bdbd81bedb050c054643356ebec720258b9ac81e0000000000000000000000000000000000000000000000000000000000000000",
        "nonce": "0x104",
        "chainId": "0xaa36a7"
      },
      "additionalContracts": [],
      "isFixedGasLimit": false
    },
    {
      "hash": null,
      "transactionType": "CALL",
      "contractName": null,
      "contractAddress": "0x47ce967eab4cca879a424ed5720424ae37bf9b0c",
      "function": "swap(address,address,uint256)",
      "arguments": [
        "0x8f62248b1aB982578e0f59d19076c1bd9C0405f3",
        "0xbDbD81BEdB050C054643356ebEC720258B9ac81e",
        "0"
      ],
      "transaction": {
        "from": "0xf93ee28f72069752a808bbf56f9db51952475ae0",
        "to": "0x47ce967eab4cca879a424ed5720424ae37bf9b0c",
        "gas": "0x164ff",
        "value": "0x0",
        "input": "0xdf791e500000000000000000000000008f62248b1ab982578e0f59d19076c1bd9c0405f3000000000000000000000000bdbd81bedb050c054643356ebec720258b9ac81e0000000000000000000000000000000000000000000000000000000000000000",
        "nonce": "0x105",
        "chainId": "0xaa36a7"
      },
      "additionalContracts": [],
      "isFixedGasLimit": false
    },
    {
      "hash": null,
      "transactionType": "CALL",
      "contractName": null,
      "contractAddress": "0x47ce967eab4cca879a424ed5720424ae37bf9b0c",
      "function": "swap(address,address,uint256)",
      "arguments": [
        "0x8f62248b1aB982578e0f59d19076c1bd9C0405f3",
        "0xbDbD81BEdB050C054643356ebEC720258B9ac81e",
        "0"
      ],
      "transaction": {
        "from": "0xf93ee28f72069752a808bbf56f9db51952475ae0",
        "to": "0x47ce967eab4cca879a424ed5720424ae37bf9b0c",
        "gas": "0x164ff",
        "value": "0x0",
        "input": "0xdf791e500000000000000000000000008f62248b1ab982578e0f59d19076c1bd9c0405f3000000000000000000000000bdbd81bedb050c054643356ebec720258b9ac81e0000000000000000000000000000000000000000000000000000000000000000",
        "nonce": "0x106",
        "chainId": "0xaa36a7"
      },
      "additionalContracts": [],
      "isFixedGasLimit": false
    },
    {
      "hash": null,
      "transactionType": "CALL",
      "contractName": null,
      "contractAddress": "0x47ce967eab4cca879a424ed5720424ae37bf9b0c",
      "function": "swap(address,address,uint256)",
      "arguments": [
        "0x8f62248b1aB982578e0f59d19076c1bd9C0405f3",
        "0xbDbD81BEdB050C054643356ebEC720258B9ac81e",
        "0"
      ],
      "transaction": {
        "from": "0xf93ee28f72069752a808bbf56f9db51952475ae0",
        "to": "0x47ce967eab4cca879a424ed5720424ae37bf9b0c",
        "gas": "0x164ff",
        "value": "0x0",
        "input": "0xdf791e500000000000000000000000008f62248b1ab982578e0f59d19076c1bd9c0405f3000000000000000000000000bdbd81bedb050c054643356ebec720258b9ac81e0000000000000000000000000000000000000000000000000000000000000000",
        "nonce": "0x107",
        "chainId": "0xaa36a7"
      },
      "additionalContracts": [],
      "isFixedGasLimit": false
    },
    {
      "hash": null,
      "transactionType": "CALL",
      "contractName": null,
      "contractAddress": "0x47ce967eab4cca879a424ed5720424ae37bf9b0c",
      "function": "swap(address,address,uint256)",
      "arguments": [
        "0x8f62248b1aB982578e0f59d19076c1bd9C0405f3",
        "0xbDbD81BEdB050C054643356ebEC720258B9ac81e",
        "0"
      ],
      "transaction": {
        "from": "0xf93ee28f72069752a808bbf56f9db51952475ae0",
        "to": "0x47ce967eab4cca879a424ed5720424ae37bf9b0c",
        "gas": "0x164ff",
        "value": "0x0",
        "input": "0xdf791e500000000000000000000000008f62248b1ab982578e0f59d19076c1bd9c0405f3000000000000000000000000bdbd81bedb050c054643356ebec720258b9ac81e0000000000000000000000000000000000000000000000000000000000000000",
        "nonce": "0x108",
        "chainId": "0xaa36a7"
      },
      "additionalContracts": [],
      "isFixedGasLimit": false
    },
    {
      "hash": null,
      "transactionType": "CALL",
      "contractName": null,
      "contractAddress": "0x47ce967eab4cca879a424ed5720424ae37bf9b0c",
      "function": "swap(address,address,uint256)",
      "arguments": [
        "0x8f62248b1aB982578e0f59d19076c1bd9C0405f3",
        "0xbDbD81BEdB050C054643356ebEC720258B9ac81e",
        "0"
      ],
      "transaction": {
        "from": "0xf93ee28f72069752a808bbf56f9db51952475ae0",
        "to": "0x47ce967eab4cca879a424ed5720424ae37bf9b0c",
        "gas": "0x164ff",
        "value": "0x0",
        "input": "0xdf791e500000000000000000000000008f62248b1ab982578e0f59d19076c1bd9c0405f3000000000000000000000000bdbd81bedb050c054643356ebec720258b9ac81e0000000000000000000000000000000000000000000000000000000000000000",
        "nonce": "0x109",
        "chainId": "0xaa36a7"
      },
      "additionalContracts": [],
      "isFixedGasLimit": false
    },
    {
      "hash": null,
      "transactionType": "CALL",
      "contractName": null,
      "contractAddress": "0x47ce967eab4cca879a424ed5720424ae37bf9b0c",
      "function": "swap(address,address,uint256)",
      "arguments": [
        "0x8f62248b1aB982578e0f59d19076c1bd9C0405f3",
        "0xbDbD81BEdB050C054643356ebEC720258B9ac81e",
        "0"
      ],
      "transaction": {
        "from": "0xf93ee28f72069752a808bbf56f9db51952475ae0",
        "to": "0x47ce967eab4cca879a424ed5720424ae37bf9b0c",
        "gas": "0x164ff",
        "value": "0x0",
        "input": "0xdf791e500000000000000000000000008f62248b1ab982578e0f59d19076c1bd9c0405f3000000000000000000000000bdbd81bedb050c054643356ebec720258b9ac81e0000000000000000000000000000000000000000000000000000000000000000",
        "nonce": "0x10a",
        "chainId": "0xaa36a7"
      },
      "additionalContracts": [],
      "isFixedGasLimit": false
    },
    {
      "hash": null,
      "transactionType": "CALL",
      "contractName": null,
      "contractAddress": "0x47ce967eab4cca879a424ed5720424ae37bf9b0c",
      "function": "swap(address,address,uint256)",
      "arguments": [
        "0x8f62248b1aB982578e0f59d19076c1bd9C0405f3",
        "0xbDbD81BEdB050C054643356ebEC720258B9ac81e",
        "0"
      ],
      "transaction": {
        "from": "0xf93ee28f72069752a808bbf56f9db51952475ae0",
        "to": "0x47ce967eab4cca879a424ed5720424ae37bf9b0c",
        "gas": "0x164ff",
        "value": "0x0",
        "input": "0xdf791e500000000000000000000000008f62248b1ab982578e0f59d19076c1bd9c0405f3000000000000000000000000bdbd81bedb050c054643356ebec720258b9ac81e0000000000000000000000000000000000000000000000000000000000000000",
        "nonce": "0x10b",
        "chainId": "0xaa36a7"
      },
      "additionalContracts": [],
      "isFixedGasLimit": false
    },
    {
      "hash": null,
      "transactionType": "CALL",
      "contractName": null,
      "contractAddress": "0x47ce967eab4cca879a424ed5720424ae37bf9b0c",
      "function": "swap(address,address,uint256)",
      "arguments": [
        "0x8f62248b1aB982578e0f59d19076c1bd9C0405f3",
        "0xbDbD81BEdB050C054643356ebEC720258B9ac81e",
        "0"
      ],
      "transaction": {
        "from": "0xf93ee28f72069752a808bbf56f9db51952475ae0",
        "to": "0x47ce967eab4cca879a424ed5720424ae37bf9b0c",
        "gas": "0x164ff",
        "value": "0x0",
        "input": "0xdf791e500000000000000000000000008f62248b1ab982578e0f59d19076c1bd9c0405f3000000000000000000000000bdbd81bedb050c054643356ebec720258b9ac81e0000000000000000000000000000000000000000000000000000000000000000",
        "nonce": "0x10c",
        "chainId": "0xaa36a7"
      },
      "additionalContracts": [],
      "isFixedGasLimit": false
    },
    {
      "hash": null,
      "transactionType": "CALL",
      "contractName": null,
      "contractAddress": "0x47ce967eab4cca879a424ed5720424ae37bf9b0c",
      "function": "swap(address,address,uint256)",
      "arguments": [
        "0x8f62248b1aB982578e0f59d19076c1bd9C0405f3",
        "0xbDbD81BEdB050C054643356ebEC720258B9ac81e",
        "0"
      ],
      "transaction": {
        "from": "0xf93ee28f72069752a808bbf56f9db51952475ae0",
        "to": "0x47ce967eab4cca879a424ed5720424ae37bf9b0c",
        "gas": "0x164ff",
        "value": "0x0",
        "input": "0xdf791e500000000000000000000000008f62248b1ab982578e0f59d19076c1bd9c0405f3000000000000000000000000bdbd81bedb050c054643356ebec720258b9ac81e0000000000000000000000000000000000000000000000000000000000000000",
        "nonce": "0x10d",
        "chainId": "0xaa36a7"
      },
      "additionalContracts": [],
      "isFixedGasLimit": false
    },
    {
      "hash": null,
      "transactionType": "CALL",
      "contractName": null,
      "contractAddress": "0x47ce967eab4cca879a424ed5720424ae37bf9b0c",
      "function": "swap(address,address,uint256)",
      "arguments": [
        "0x8f62248b1aB982578e0f59d19076c1bd9C0405f3",
        "0xbDbD81BEdB050C054643356ebEC720258B9ac81e",
        "0"
      ],
      "transaction": {
        "from": "0xf93ee28f72069752a808bbf56f9db51952475ae0",
        "to": "0x47ce967eab4cca879a424ed5720424ae37bf9b0c",
        "gas": "0x164ff",
        "value": "0x0",
        "input": "0xdf791e500000000000000000000000008f62248b1ab982578e0f59d19076c1bd9c0405f3000000000000000000000000bdbd81bedb050c054643356ebec720258b9ac81e0000000000000000000000000000000000000000000000000000000000000000",
        "nonce": "0x10e",
        "chainId": "0xaa36a7"
      },
      "additionalContracts": [],
      "isFixedGasLimit": false
    },
    {
      "hash": null,
      "transactionType": "CALL",
      "contractName": null,
      "contractAddress": "0x47ce967eab4cca879a424ed5720424ae37bf9b0c",
      "function": "swap(address,address,uint256)",
      "arguments": [
        "0x8f62248b1aB982578e0f59d19076c1bd9C0405f3",
        "0xbDbD81BEdB050C054643356ebEC720258B9ac81e",
        "0"
      ],
      "transaction": {
        "from": "0xf93ee28f72069752a808bbf56f9db51952475ae0",
        "to": "0x47ce967eab4cca879a424ed5720424ae37bf9b0c",
        "gas": "0x164ff",
        "value": "0x0",
        "input": "0xdf791e500000000000000000000000008f62248b1ab982578e0f59d19076c1bd9c0405f3000000000000000000000000bdbd81bedb050c054643356ebec720258b9ac81e0000000000000000000000000000000000000000000000000000000000000000",
        "nonce": "0x10f",
        "chainId": "0xaa36a7"
      },
      "additionalContracts": [],
      "isFixedGasLimit": false
    },
    {
      "hash": null,
      "transactionType": "CALL",
      "contractName": null,
      "contractAddress": "0x47ce967eab4cca879a424ed5720424ae37bf9b0c",
      "function": "swap(address,address,uint256)",
      "arguments": [
        "0x8f62248b1aB982578e0f59d19076c1bd9C0405f3",
        "0xbDbD81BEdB050C054643356ebEC720258B9ac81e",
        "0"
      ],
      "transaction": {
        "from": "0xf93ee28f72069752a808bbf56f9db51952475ae0",
        "to": "0x47ce967eab4cca879a424ed5720424ae37bf9b0c",
        "gas": "0x164ff",
        "value": "0x0",
        "input": "0xdf791e500000000000000000000000008f62248b1ab982578e0f59d19076c1bd9c0405f3000000000000000000000000bdbd81bedb050c054643356ebec720258b9ac81e0000000000000000000000000000000000000000000000000000000000000000",
        "nonce": "0x110",
        "chainId": "0xaa36a7"
      },
      "additionalContracts": [],
      "isFixedGasLimit": false
    },
    {
      "hash": null,
      "transactionType": "CALL",
      "contractName": null,
      "contractAddress": "0x47ce967eab4cca879a424ed5720424ae37bf9b0c",
      "function": "swap(address,address,uint256)",
      "arguments": [
        "0x8f62248b1aB982578e0f59d19076c1bd9C0405f3",
        "0xbDbD81BEdB050C054643356ebEC720258B9ac81e",
        "0"
      ],
      "transaction": {
        "from": "0xf93ee28f72069752a808bbf56f9db51952475ae0",
        "to": "0x47ce967eab4cca879a424ed5720424ae37bf9b0c",
        "gas": "0x164ff",
        "value": "0x0",
        "input": "0xdf791e500000000000000000000000008f62248b1ab982578e0f59d19076c1bd9c0405f3000000000000000000000000bdbd81bedb050c054643356ebec720258b9ac81e0000000000000000000000000000000000000000000000000000000000000000",
        "nonce": "0x111",
        "chainId": "0xaa36a7"
      },
      "additionalContracts": [],
      "isFixedGasLimit": false
    },
    {
      "hash": null,
      "transactionType": "CALL",
      "contractName": null,
      "contractAddress": "0x47ce967eab4cca879a424ed5720424ae37bf9b0c",
      "function": "swap(address,address,uint256)",
      "arguments": [
        "0x8f62248b1aB982578e0f59d19076c1bd9C0405f3",
        "0xbDbD81BEdB050C054643356ebEC720258B9ac81e",
        "0"
      ],
      "transaction": {
        "from": "0xf93ee28f72069752a808bbf56f9db51952475ae0",
        "to": "0x47ce967eab4cca879a424ed5720424ae37bf9b0c",
        "gas": "0x164ff",
        "value": "0x0",
        "input": "0xdf791e500000000000000000000000008f62248b1ab982578e0f59d19076c1bd9c0405f3000000000000000000000000bdbd81bedb050c054643356ebec720258b9ac81e0000000000000000000000000000000000000000000000000000000000000000",
        "nonce": "0x112",
        "chainId": "0xaa36a7"
      },
      "additionalContracts": [],
      "isFixedGasLimit": false
    },
    {
      "hash": null,
      "transactionType": "CALL",
      "contractName": null,
      "contractAddress": "0x47ce967eab4cca879a424ed5720424ae37bf9b0c",
      "function": "swap(address,address,uint256)",
      "arguments": [
        "0x8f62248b1aB982578e0f59d19076c1bd9C0405f3",
        "0xbDbD81BEdB050C054643356ebEC720258B9ac81e",
        "0"
      ],
      "transaction": {
        "from": "0xf93ee28f72069752a808bbf56f9db51952475ae0",
        "to": "0x47ce967eab4cca879a424ed5720424ae37bf9b0c",
        "gas": "0x164ff",
        "value": "0x0",
        "input": "0xdf791e500000000000000000000000008f62248b1ab982578e0f59d19076c1bd9c0405f3000000000000000000000000bdbd81bedb050c054643356ebec720258b9ac81e0000000000000000000000000000000000000000000000000000000000000000",
        "nonce": "0x113",
        "chainId": "0xaa36a7"
      },
      "additionalContracts": [],
      "isFixedGasLimit": false
    },
    {
      "hash": null,
      "transactionType": "CALL",
      "contractName": null,
      "contractAddress": "0x47ce967eab4cca879a424ed5720424ae37bf9b0c",
      "function": "swap(address,address,uint256)",
      "arguments": [
        "0x8f62248b1aB982578e0f59d19076c1bd9C0405f3",
        "0xbDbD81BEdB050C054643356ebEC720258B9ac81e",
        "0"
      ],
      "transaction": {
        "from": "0xf93ee28f72069752a808bbf56f9db51952475ae0",
        "to": "0x47ce967eab4cca879a424ed5720424ae37bf9b0c",
        "gas": "0x164ff",
        "value": "0x0",
        "input": "0xdf791e500000000000000000000000008f62248b1ab982578e0f59d19076c1bd9c0405f3000000000000000000000000bdbd81bedb050c054643356ebec720258b9ac81e0000000000000000000000000000000000000000000000000000000000000000",
        "nonce": "0x114",
        "chainId": "0xaa36a7"
      },
      "additionalContracts": [],
      "isFixedGasLimit": false
    },
    {
      "hash": null,
      "transactionType": "CALL",
      "contractName": null,
      "contractAddress": "0x47ce967eab4cca879a424ed5720424ae37bf9b0c",
      "function": "swap(address,address,uint256)",
      "arguments": [
        "0x8f62248b1aB982578e0f59d19076c1bd9C0405f3",
        "0xbDbD81BEdB050C054643356ebEC720258B9ac81e",
        "0"
      ],
      "transaction": {
        "from": "0xf93ee28f72069752a808bbf56f9db51952475ae0",
        "to": "0x47ce967eab4cca879a424ed5720424ae37bf9b0c",
        "gas": "0x164ff",
        "value": "0x0",
        "input": "0xdf791e500000000000000000000000008f62248b1ab982578e0f59d19076c1bd9c0405f3000000000000000000000000bdbd81bedb050c054643356ebec720258b9ac81e0000000000000000000000000000000000000000000000000000000000000000",
        "nonce": "0x115",
        "chainId": "0xaa36a7"
      },
      "additionalContracts": [],
      "isFixedGasLimit": false
    },
    {
      "hash": null,
      "transactionType": "CALL",
      "contractName": null,
      "contractAddress": "0x47ce967eab4cca879a424ed5720424ae37bf9b0c",
      "function": "swap(address,address,uint256)",
      "arguments": [
        "0x8f62248b1aB982578e0f59d19076c1bd9C0405f3",
        "0xbDbD81BEdB050C054643356ebEC720258B9ac81e",
        "0"
      ],
      "transaction": {
        "from": "0xf93ee28f72069752a808bbf56f9db51952475ae0",
        "to": "0x47ce967eab4cca879a424ed5720424ae37bf9b0c",
        "gas": "0x164ff",
        "value": "0x0",
        "input": "0xdf791e500000000000000000000000008f62248b1ab982578e0f59d19076c1bd9c0405f3000000000000000000000000bdbd81bedb050c054643356ebec720258b9ac81e0000000000000000000000000000000000000000000000000000000000000000",
        "nonce": "0x116",
        "chainId": "0xaa36a7"
      },
      "additionalContracts": [],
      "isFixedGasLimit": false
    },
    {
      "hash": null,
      "transactionType": "CALL",
      "contractName": null,
      "contractAddress": "0x47ce967eab4cca879a424ed5720424ae37bf9b0c",
      "function": "swap(address,address,uint256)",
      "arguments": [
        "0x8f62248b1aB982578e0f59d19076c1bd9C0405f3",
        "0xbDbD81BEdB050C054643356ebEC720258B9ac81e",
        "0"
      ],
      "transaction": {
        "from": "0xf93ee28f72069752a808bbf56f9db51952475ae0",
        "to": "0x47ce967eab4cca879a424ed5720424ae37bf9b0c",
        "gas": "0x164ff",
        "value": "0x0",
        "input": "0xdf791e500000000000000000000000008f62248b1ab982578e0f59d19076c1bd9c0405f3000000000000000000000000bdbd81bedb050c054643356ebec720258b9ac81e0000000000000000000000000000000000000000000000000000000000000000",
        "nonce": "0x117",
        "chainId": "0xaa36a7"
      },
      "additionalContracts": [],
      "isFixedGasLimit": false
    },
    {
      "hash": null,
      "transactionType": "CALL",
      "contractName": null,
      "contractAddress": "0x47ce967eab4cca879a424ed5720424ae37bf9b0c",
      "function": "swap(address,address,uint256)",
      "arguments": [
        "0x8f62248b1aB982578e0f59d19076c1bd9C0405f3",
        "0xbDbD81BEdB050C054643356ebEC720258B9ac81e",
        "0"
      ],
      "transaction": {
        "from": "0xf93ee28f72069752a808bbf56f9db51952475ae0",
        "to": "0x47ce967eab4cca879a424ed5720424ae37bf9b0c",
        "gas": "0x164ff",
        "value": "0x0",
        "input": "0xdf791e500000000000000000000000008f62248b1ab982578e0f59d19076c1bd9c0405f3000000000000000000000000bdbd81bedb050c054643356ebec720258b9ac81e0000000000000000000000000000000000000000000000000000000000000000",
        "nonce": "0x118",
        "chainId": "0xaa36a7"
      },
      "additionalContracts": [],
      "isFixedGasLimit": false
    },
    {
      "hash": null,
      "transactionType": "CALL",
      "contractName": null,
      "contractAddress": "0x47ce967eab4cca879a424ed5720424ae37bf9b0c",
      "function": "swap(address,address,uint256)",
      "arguments": [
        "0x8f62248b1aB982578e0f59d19076c1bd9C0405f3",
        "0xbDbD81BEdB050C054643356ebEC720258B9ac81e",
        "0"
      ],
      "transaction": {
        "from": "0xf93ee28f72069752a808bbf56f9db51952475ae0",
        "to": "0x47ce967eab4cca879a424ed5720424ae37bf9b0c",
        "gas": "0x164ff",
        "value": "0x0",
        "input": "0xdf791e500000000000000000000000008f62248b1ab982578e0f59d19076c1bd9c0405f3000000000000000000000000bdbd81bedb050c054643356ebec720258b9ac81e0000000000000000000000000000000000000000000000000000000000000000",
        "nonce": "0x119",
        "chainId": "0xaa36a7"
      },
      "additionalContracts": [],
      "isFixedGasLimit": false
    },
    {
      "hash": null,
      "transactionType": "CALL",
      "contractName": null,
      "contractAddress": "0x47ce967eab4cca879a424ed5720424ae37bf9b0c",
      "function": "swap(address,address,uint256)",
      "arguments": [
        "0x8f62248b1aB982578e0f59d19076c1bd9C0405f3",
        "0xbDbD81BEdB050C054643356ebEC720258B9ac81e",
        "0"
      ],
      "transaction": {
        "from": "0xf93ee28f72069752a808bbf56f9db51952475ae0",
        "to": "0x47ce967eab4cca879a424ed5720424ae37bf9b0c",
        "gas": "0x164ff",
        "value": "0x0",
        "input": "0xdf791e500000000000000000000000008f62248b1ab982578e0f59d19076c1bd9c0405f3000000000000000000000000bdbd81bedb050c054643356ebec720258b9ac81e0000000000000000000000000000000000000000000000000000000000000000",
        "nonce": "0x11a",
        "chainId": "0xaa36a7"
      },
      "additionalContracts": [],
      "isFixedGasLimit": false
    },
    {
      "hash": null,
      "transactionType": "CALL",
      "contractName": null,
      "contractAddress": "0x47ce967eab4cca879a424ed5720424ae37bf9b0c",
      "function": "swap(address,address,uint256)",
      "arguments": [
        "0x8f62248b1aB982578e0f59d19076c1bd9C0405f3",
        "0xbDbD81BEdB050C054643356ebEC720258B9ac81e",
        "0"
      ],
      "transaction": {
        "from": "0xf93ee28f72069752a808bbf56f9db51952475ae0",
        "to": "0x47ce967eab4cca879a424ed5720424ae37bf9b0c",
        "gas": "0x164ff",
        "value": "0x0",
        "input": "0xdf791e500000000000000000000000008f62248b1ab982578e0f59d19076c1bd9c0405f3000000000000000000000000bdbd81bedb050c054643356ebec720258b9ac81e0000000000000000000000000000000000000000000000000000000000000000",
        "nonce": "0x11b",
        "chainId": "0xaa36a7"
      },
      "additionalContracts": [],
      "isFixedGasLimit": false
    },
    {
      "hash": null,
      "transactionType": "CALL",
      "contractName": null,
      "contractAddress": "0x47ce967eab4cca879a424ed5720424ae37bf9b0c",
      "function": "swap(address,address,uint256)",
      "arguments": [
        "0x8f62248b1aB982578e0f59d19076c1bd9C0405f3",
        "0xbDbD81BEdB050C054643356ebEC720258B9ac81e",
        "0"
      ],
      "transaction": {
        "from": "0xf93ee28f72069752a808bbf56f9db51952475ae0",
        "to": "0x47ce967eab4cca879a424ed5720424ae37bf9b0c",
        "gas": "0x164ff",
        "value": "0x0",
        "input": "0xdf791e500000000000000000000000008f62248b1ab982578e0f59d19076c1bd9c0405f3000000000000000000000000bdbd81bedb050c054643356ebec720258b9ac81e0000000000000000000000000000000000000000000000000000000000000000",
        "nonce": "0x11c",
        "chainId": "0xaa36a7"
      },
      "additionalContracts": [],
      "isFixedGasLimit": false
    },
    {
      "hash": null,
      "transactionType": "CALL",
      "contractName": null,
      "contractAddress": "0x47ce967eab4cca879a424ed5720424ae37bf9b0c",
      "function": "swap(address,address,uint256)",
      "arguments": [
        "0x8f62248b1aB982578e0f59d19076c1bd9C0405f3",
        "0xbDbD81BEdB050C054643356ebEC720258B9ac81e",
        "0"
      ],
      "transaction": {
        "from": "0xf93ee28f72069752a808bbf56f9db51952475ae0",
        "to": "0x47ce967eab4cca879a424ed5720424ae37bf9b0c",
        "gas": "0x164ff",
        "value": "0x0",
        "input": "0xdf791e500000000000000000000000008f62248b1ab982578e0f59d19076c1bd9c0405f3000000000000000000000000bdbd81bedb050c054643356ebec720258b9ac81e0000000000000000000000000000000000000000000000000000000000000000",
        "nonce": "0x11d",
        "chainId": "0xaa36a7"
      },
      "additionalContracts": [],
      "isFixedGasLimit": false
    },
    {
      "hash": null,
      "transactionType": "CALL",
      "contractName": null,
      "contractAddress": "0x47ce967eab4cca879a424ed5720424ae37bf9b0c",
      "function": "swap(address,address,uint256)",
      "arguments": [
        "0x8f62248b1aB982578e0f59d19076c1bd9C0405f3",
        "0xbDbD81BEdB050C054643356ebEC720258B9ac81e",
        "0"
      ],
      "transaction": {
        "from": "0xf93ee28f72069752a808bbf56f9db51952475ae0",
        "to": "0x47ce967eab4cca879a424ed5720424ae37bf9b0c",
        "gas": "0x164ff",
        "value": "0x0",
        "input": "0xdf791e500000000000000000000000008f62248b1ab982578e0f59d19076c1bd9c0405f3000000000000000000000000bdbd81bedb050c054643356ebec720258b9ac81e0000000000000000000000000000000000000000000000000000000000000000",
        "nonce": "0x11e",
        "chainId": "0xaa36a7"
      },
      "additionalContracts": [],
      "isFixedGasLimit": false
    }
  ],
  "receipts": [],
  "libraries": [],
  "pending": [],
  "returns": {},
  "timestamp": 1765928778913,
  "chain": 11155111,
  "commit": "cad00f2"
}